:1000000000800020BD010000F54C0100AD4C010056
:10001000AD4C0100AD4C0100AD4C0100AD4C0100F8
:10002000AD4C0100AD4C0100AD4C0100F54C0100A0
:10003000F54C0100AD4C0100B9620100BD63010047
:10004000F54C0100F54C0100F54C0100F54C0100A8
:10005000F54C0100F54C0100F54C0100F54C010098
:10006000F54C0100F54C0100F54C0100F54C010088
:10007000F54C0100F54C0100F54C0100F54C010078
:10008000F54C0100F54C0100F54C0100F54C010068
:10009000F54C0100F54C0100F54C0100F54C010058
:1000A000316700003D670000F54C0100F54C010090
:1000B000F54C0100F54C0100F54C0100F54C010038
:1000C000F54C0100F54C0100F54C0100F54C010028
:1000D000F54C0100F54C0100F54C0100F54C010018
:1000E000F54C0100F54C0100F54C0100F54C010008
:1000F000F54C0100C1670100F54C010009530100F6
:10010000F54C0100ED680100F54C0100F54C0100D3
:10011000F54C0100F54C0100F54C0100F54C0100D7
:10012000F54C0100F54C0100F54C0100F54C0100C7
:10013000F54C0100F54C0100F54C0100F54C0100B7
:10014000F54C0100F54C0100F54C0100F54C0100A7
:10015000F54C0100F54C0100F54C0100F54C010097
:100160007568000085550100F54C0100F54C010053
:10017000F54C0100F54C0100F54C0100F54C010077
:10018000F54C0100F54C0100F54C0100F54C010067
:10019000F54C0100F54C0100F54C0100F54C010057
:1001A000F54C0100F54C0100F54C0100F54C010047
:1001B000F54C0100F54C0100F54C0100564B4CF29A
:1001C000205210B51A804DF628121A8000BF00BFC9
:1001D00014F094FD514B4FF010621A60504A9A602F
:1001E000504ADA60504A136813F4807304D14F49BF
:1001F0000B604FF4A85313604D4B1A78110703D5C9
:100200001A7842F008021A704A4B4B492A221A7097
:100210004A4A4B4B8B4204D252F8040F43F8040B6A
:10022000F8E7484B484900228B4202D243F8042B9E
:10023000FAE74649464A002352F8230041F82300D2
:1002400001336F2BF8D1434B434A802103F8011B44
:100250009342FBD1414B3D4A1A60414B8A221A70AE
:10026000A3F5805324225A70A0221A709A7992071B
:10027000FCD59A79D406FCD43A4A937903F00C035E
:10028000082B384BF9D103221A7140225A719A79FE
:100290009006FCD5334A9179324B4906FBD5324A58
:1002A000324911600221516020221A709A7902F0BD
:1002B0000C020C2AFAD12E4B2E4A1A602E4B2F4AD2
:1002C0001A6000225A60072243F8042C2C4AC3F813
:1002D0000C2D62B614F0EEFE144B1B68DA0705D540
:1002E000284814F04BFE284B284A1A60284B1B78EC
:1002F0005B0609D5244C254B22689A4204D121483B
:1003000014F03CFE0023236019F094FF14F0FCFC71
:1003100016F0B6F9FEE700BF0E200540308004401D
:10032000823F04000100002B10D0034014D0034092
:1003300002D0074000E007400898FF1FF45C02006D
:100340002087FF1F0898FF1F68A6FF1F0082FF1F5E
:100350000000000000E400E05FE400E008ED00E0E1
:100360000050064000400640448004400000030165
:1003700004800440C010050014E000E0FF76010096
:10038000000020207639655D1CE00340A5C3945A27
:1003900000F00740FFFFFFFFFFFFFFFFFFFFFFFF32
:1003A000FFFFFFFFFFFFFFFFFFFFFFFFFFFFFFFF5D
:1003B000FFFFFFFFFFFFFFFFFFFFFFFFFFFFFFFF4D
:1003C000FFFFFFFFFFFFFFFFFFFFFFFFFFFFFFFF3D
:1003D000FFFFFFFFFFFFFFFFFFFFFFFFFFFFFFFF2D
:1003E000FFFFFFFFFFFFFFFFFFFFFFFFFFFFFFFF1D
:1003F000FFFFFFFFFFFFFFFFFFFFFFFFFFFFFFFF0D
:10040000FFFFFFFFFFFFFFFFFFFFFFFFDEF9FFFF23
:1004100010B5054C237833B9044B13B10448AFF33E
:1004200000800123237010BD0898FF1F000000000A
:10043000F05C0200084B10B51BB108490848AFF347
:1004400000800848036803B910BD074B002BFBD0A0
:10045000BDE81040184700BF000000000C98FF1FC7
:10046000F05C02000898FF1F0000000043680B705A
:1004700043681B0A4B70C3888B70C379CB70836849
:100480000B7183681B0A4B7143898B71C37ACB71E3
:10049000082070470B7843604A7843EA02234360A0
:1004A0008A7843EA02434360CA7843EA02634360BE
:1004B0000B7983604A7943EA022383608A7943EAAD
:1004C00002438360CA7943EA02638360082070476D
:1004D000004870478C1A0200004870479C1A0200BE
:1004E000F0B50C460A788280064614F8010F002306
:1004F00042EA0022B2801A4614F8010F98400833ED
:10050000202B42EA0002F7D1971D062F58D901F19E
:10051000050E551D73464C1913F8010F03F8010C15
:10052000A342F9D100234B5518460D44C6F808E004
:1005300015F8014F84400830202843EA0403F7D11E
:10054000381D0344834209D909320A440446013460
:1005500012F8015F02F8015CA342F8D80138CF1805
:100560000024084407F8014C2246F06017F8015BAC
:1005700095400832202A44EA0504F7D1181D0444A6
:10058000A04209D203330B440246013213F8015F43
:1005900003F8015CA242F8D30D1901380844002386
:1005A00005F8013C3061A8786B780A5DED780104AC
:1005B00041EA0323134343EA0563201D7361F0BD41
:1005C000551D01F1050EADE700487047C01A020045
:1005D00000487047DC1A02000B78F0B40371002366
:1005E00006460C461D4614F8012F9A400833202B6E
:1005F00045EA0205F7D1681D052801F1040708D96D
:100600002C1D3B460C4413F8012F03F8012C9C428F
:10061000F9D10D4400232B71B760F0BC704700BFC7
:1006200000487047001B020000487047141B02007E
:1006300000487047041F020000487047381B020042
:10064000F0B40B7843604A7843EA022343608A7827
:1006500043EA02434360CA7843EA026343600B798A
:1006600083604A7943EA022383608A7943EA02433A
:100670008360CA7943EA026383600B7AC3604A7A73
:1006800043EA0223C3608A7A0C4643EA0242C2600C
:1006900014F80B5F002342EA0562C2601D4614F89D
:1006A000012F9A400833202B45EA0205F7D105F1C6
:1006B0001006102E01F10F0709D905F10F043B4672
:1006C0000C4413F8012F03F8012C9C42F9D1294462
:1006D0000023CB7307613046F0BC70470048704779
:1006E0005C1B0200004870476C1B0200004870470A
:1006F000901B020000487047A41B0200004870478E
:10070000C81B020000487047E41B02000048704705
:10071000081C020000487047201C02000048704777
:10072000441C020000487047541C020000487047F7
:10073000781C020000487047941C020003790B707B
:10074000C3884B70C3881B0A8B700320704700BF9F
:100750000B7803714B78C3808A7843EA0223C38005
:100760000320704700487047B81C020000487047DB
:10077000D41C020000487047F81C02000048704773
:10078000101D020043680B7010B4180C1C0A1A0EDE
:100790004C708870CA70042010BC70470B684360AE
:1007A0000420704700487047341D0200004870471D
:1007B000481D020003790B70012070470B7803710C
:1007C00001207047004870476C1D020000487047C8
:1007D0007C1D020083880B7083881B0A4B700220EB
:1007E000704700BF0B7883804A7843EA02238380F6
:1007F0000220704700487047A01D02000048704763
:10080000B01D02000023F0B406464C1E1D4614F82D
:10081000012F9A400833202B45EA0205F7D1281D05
:10082000042801F1030708D9EC1C3B460C4413F8DB
:10083000012F03F8012C9C42F9D10D440023EB70E9
:100840007760F0BC704700BF00487047D41D0200BD
:1008500000487047E41D020090F8F804704700BF9C
:100860000B7803824978426943EA012303820C3002
:10087000104700BF8069704700487047A01D020004
:1008800000487047B01D020015F04ABB70B506461F
:1008900040680D461AF034FD6A1E0446002324FA0F
:1008A00003F10833202B02F8011FF8D17168281DCD
:1008B000224613F013FF201D70BD00BF436870B5C2
:1008C0000B7043681B0A4B70C3888B70C379CB7065
:1008D00083680B7183681B0A4B7143898B71C37AE0
:1008E000CB71C3680B72C3681B0A4B72C3898B72CE
:1008F000C37BCB72054600690C461AF001FD030E5E
:10090000010A020C06462073A2736173E37329691E
:1009100004F11000324613F0E1FE06F1100070BD44
:1009200043682DE9F0470B7043681B0A4B70C3887E
:100930008B70C379CB704368002B00F085800A462A
:1009400000250426C36853F8253013711C0C1F0AB8
:100950001B0E94715771D37143680135AB42344615
:1009600002F1040206F10406ECD804F1080204F1D5
:10097000050A04F1060904F1070804F1090C04F161
:100980000A0E04F10B0517460C3403698B550369F5
:100990001B0A01F80A30438A01F80930C37C01F8C8
:1009A00008300369F3B101EB070E75460022836935
:1009B00053F822300EF822301C0C1E0A1B0EAC70AD
:1009C0006E70EB700369013293423C4605F10405F9
:1009D00007F10407EBD804F1050C04F1060EE51D40
:1009E0003A460834C3698B54C3691B0A01F80C30BA
:1009F000C38B01F80E30C37F4B55C3690BB30F4651
:100A000080460026D8F8243053F826001AF078FCE7
:100A1000B10005463A19002325FA03F00833202BCC
:100A200002F8010BF8D1D8F8243004343819595899
:100A30002A4613F053FED8F81C300136B3422C443A
:100A4000E0D82046BDE8F087082217460C240B2585
:100A50004FF00A0E4FF0090C4FF007084FF006094F
:100A60004FF0050A042690E770B503790B7006462F
:100A700080680D461AF044FC2A460446002324FAF6
:100A800003F10833202B02F8011FF8D1B168681D6B
:100A9000224613F023FE601D70BD00BFF8B58388A9
:100AA0000B7083881B0A4B70064680680D461AF04F
:100AB00027FC030E010A020C6B71A8702A71E97001
:100AC00002460446B168A81D13F008FEF0681AF04B
:100AD00017FC611D024629440634002322FA03F064
:100AE0000833202B01F8010FF8D104342819F168DC
:100AF000144413F0F3FD30691AF002FC2A1907467A
:100B0000002327FA03F10833202B02F8011BF8D148
:100B1000043428193A46316913F0E0FD3819736935
:100B20002B540544190A1A0C1B0E6970AA70EB703D
:100B30000430F8BD084615F0DDBA00BF2DE9F04FCE
:100B400043680C689C4283B005460E4600F2B380B1
:100B50006C60002C00F0B88005F1080C33460027CB
:100B60004FF0040E9C795A79197993F80780E86858
:100B7000240444EA02220A4342EA0862AA60DCF83A
:100B8000002040F827206A680137BA42714603F115
:100B900004030EF1040EE5D801F1080847464B1D89
:100BA000881DCA1D01F1090A01F10A0B01F10B09A7
:100BB00001F10C04305CF35C16F80E1016F802E03C
:100BC0002A69000440EA03230B4343EA0E6393427D
:100BD00000F290802B613BB305F1140CF3194FF038
:100BE000000E9C785A78197893F80380A869240439
:100BF00044EA02220A4342EA08626A61DCF8002001
:100C000040F82E202A690EF1010E72453C4603F190
:100C1000040307F10407E4D804F1050A04F1060B04
:100C200004F10709B846083416F80B2016F80A0034
:100C300016F8083016F80970E969120442EA002231
:100C4000134343EA07678F424ED8EF617FB3002713
:100C5000BC4605F1200E00231946301910F8012B6F
:100C60009A400833202B41EA0201F7D104F104082D
:100C70004144884509D2E31C33444246013213F80B
:100C8000010F03F8010C8A42F8D3721808F1FF38FB
:100C900002F801CC06EB08032B626A6ADEF800302A
:100CA00042F82730EB690137BB420C46D3D82046C7
:100CB00003B0BDE8F08FA100C06819F0D1FE6C60F0
:100CC000E860002C7FF448AF4FF0080847460C243A
:100CD0004FF00B094FF00A0B4FF0090A07220620CC
:100CE00005234FF0040E65E7B900686A19F0B8FEF5
:100CF0006862AAE79900A869019319F0B1FE019B07
:100D0000A86167E700B5084A084B12681B7983B0F1
:100D10000192074A019911601BB98188054805F0C5
:100D200095FD03B05DF804FB70A3FF1F6C98FF1FD7
:100D30009C9EFF1F809EFF1FF8B506464068C0F3CB
:100D4000C7520C460346002A58D002F560721101C2
:100D500049B2C2F30715C3F3C34211435F01002236
:100D6000A171D910DB12217122706270A270E7703C
:100D70006371002119F07AF8002848D1E571B06854
:100D8000C0F3C7520346002A3ED002F5607211013B
:100D900049B2C2F30715C3F3C34211435F010022F6
:100DA000A173D910DB12217322726272A272E772F0
:100DB0006373002119F05AF890BBE573F068C0F333
:100DC000C7520346EAB102F56072110149B2C2F39B
:100DD0000715C3F3C34211435F010022DE10DB128B
:100DE000A17522746274A274E7742675637500217C
:100DF00019F03CF878B9E5751820F8BD154611468C
:100E0000A9E715461146E4E715461146C3E765F024
:100E10007F02E271B3E765F07F02E2751820F8BD4A
:100E200065F07F02E273C9E72DE9F84383680B7030
:100E300083681B0A4B7043898B70C37ACB70C3687D
:100E40000B71C3681B0A4B71C3898B71C37BCB7158
:100E500003690B7203691B0A4B72438A8B72C37C52
:100E6000CB72064640690C461AF04AFA030E010A94
:100E7000020C2073A273E3736173024681467169A9
:100E800004F1100013F02AFCF06909F11008C0F316
:100E9000C752034604EB0805002A00F0A68002F5BD
:100EA0006072110149B2C2F30717C3F3C342114381
:100EB000002204F808204FEA431EA971D910DB1262
:100EC00029716A70AA7085F803E06B71002118F02F
:100ED000CDFF002840F08C80EF71306AC0F3C7521C
:100EE0000346002A7ED002F56072110149B2C2F3B6
:100EF0000717C3F3C34211434FEA431E0022A973ED
:100F0000D910DB1229732A726A72AA7285F80BE073
:100F10006B73002118F0AAFF002871D1EF73706A7B
:100F2000C0F3C7520346002A59D002F5607211017E
:100F300049B2C2F30717C3F3C34211434FEA431E3A
:100F40000022A975D910DB1229752A746A74AA7453
:100F500085F813E06B75002118F088FF00284BD14D
:100F6000EF7509F14807274424364C444FF0000937
:100F700025E04FFA82FEC1F30715C3F3C3424EEAE0
:100F800002024FEA431C4FEAE30EDB12002184F811
:100F9000289084F8299084F82A9084F82E2084F8E8
:100FA0002BC084F82CE084F82D3018F05FFF08B1D6
:100FB00065F07F0584F82F500834BC420BD056F8FA
:100FC000040FC0F3C75505F5607103460A01002DF3
:100FD000CFD1AE46D1E708F16000BDE8F8831746EF
:100FE0001146A8E71746114683E7174611465CE706
:100FF00067F07F02EA7170E767F07F02EA75B0E799
:1010000067F07F02EA738AE7836870B50B708368C4
:101010001B0A4B7043898B70C37ACB70C3680B710A
:10102000C3681B0A4B71C3898B71C37BCB71036986
:101030000B7203691B0A4B72438A8B72C37CCB729F
:10104000054640690C461AF05BF9030E010A020CD2
:1010500006462073A273E37361736969024604F163
:101060001000344413F03AFB2B7E2374EB69637455
:10107000190A1A0C1B0EA174E27423752B6A63758E
:10108000190A1A0C1B0EA175E27523766B6A63763A
:10109000190A1A0C1B0EA176E2762377AB6A6377E6
:1010A000190A1A0C1B0EA177E27784F8203006F19A
:1010B000210070BDF8B505464068C0F3C7520C4624
:1010C0000346002A78D002F56072110149B2C2F3DA
:1010D0000716C3F3C34211435F010022A171D91067
:1010E000DB12217122706270A270E77063710021BF
:1010F00018F0BCFE00286BD1E671A868C0F3C75297
:101100000346002A61D002F56072110149B2C2F3B0
:101110000716C3F3C34211435F010022A173D91024
:10112000DB12217322726272A272E7726373002172
:1011300018F09CFE002858D1E673E868C0F3C75247
:101140000346002A3ED002F56072110149B2C2F393
:101150000716C3F3C34211435F010022A175D910E2
:10116000DB12217522746274A274E7746375002126
:1011700018F07CFEA8BBE6752869C0F3C752034689
:10118000EAB102F56072110149B2C2F30715C3F367
:10119000C34211435F010022DE10DB12A1772276E9
:1011A0006276A276E77626776377002118F05EFEF6
:1011B00090B9E5772020F8BD1646114689E7154617
:1011C0001146E4E716461146C3E716461146A0E766
:1011D00066F07F02E27190E765F07F02E2772020FF
:1011E000F8BD66F07F02E275C6E766F07F02E27343
:1011F000A3E700BFCB785B0930B443600A7943EAC8
:10120000C20343604A7943EAC22242608B79DB041D
:1012100003F4F00313434360CC798D79220102F487
:10122000FE6252EA151205D0A2F5607243EAC2537B
:101230004360CC7924F07F0443EA04634360CB7AB3
:101240005B0983600A7B43EAC20383604A7B43EA0B
:10125000C22282608B7BDB0403F4F00313438360C0
:10126000CC7B8D7B220102F4FE6252EA151205D07E
:10127000A2F5607243EAC2538360CC7B24F07F0402
:1012800043EA04638360CB7C5B09C3600A7D43EA65
:10129000C203C3604A7D43EAC222C2608B7DDB0485
:1012A00003F4F0031343C360CC7D8D7D220102F46F
:1012B000FE6252EA151205D0A2F5607243EAC253EB
:1012C000C360CC7D24F07F0443EA0463C36030BC78
:1012D00018207047CB785B0930B443600A7943EA41
:1012E000C20343604A7943EAC22242608B79DB043D
:1012F00003F4F00313434360CC798D79220102F4A7
:10130000FE6252EA151205D0A2F5607243EAC2539A
:101310004360CC7924F07F0443EA04634360CB7AD2
:101320005B0983600A7B43EAC20383604A7B43EA2A
:10133000C22282608B7BDB0403F4F00313438360DF
:10134000CC7B8D7B220102F4FE6252EA151205D09D
:10135000A2F5607243EAC2538360CC7B24F07F0421
:1013600043EA04638360CB7C5B09C3600A7D43EA84
:10137000C203C3604A7D43EAC222C2608B7DDB04A4
:1013800003F4F0031343C360CC7D8D7D220102F48E
:10139000FE6252EA151205D0A2F5607243EAC2530A
:1013A000C360CC7D24F07F0443EA0463C360CB7E3A
:1013B0005B0903610A7F43EAC20303614A7F43EA90
:1013C000C22202618B7FDB0403F4F0031343036149
:1013D000CC7F8D7F220102F4FE6252EA151205D005
:1013E000A2F5607243EAC2530361CC7F24F07F040C
:1013F00043EA0463036130BC202070472DE9F84FB5
:1014000083680B7083681B0A4B7043898B70C37AA7
:10141000CB70C3680B71C3681B0A4B71C3898B7196
:10142000C37BCB7103690B7203691B0A4B72438A3E
:101430008B72C37CCB72824640690E4619F060FF06
:10144000030E010A020C04463073B273F373717316
:10145000024604F11009DAF8141006F1100013F036
:101460003DF99AF81C3006F8093006EB0902BAF883
:101470001E305370BAF81E301B0A9370DAF8200041
:1014800004F1130EC0F3C752034606EB0E05002A03
:1014900000F0BD8002F56072110149B2C2F3071776
:1014A000C3F3C3421143002206F80E204FEA431C47
:1014B0004FEAE30EDB12A9716A70AA7085F803C0C7
:1014C00085F804E06B71002118F0D0FC002840F092
:1014D000A180EF71DAF8240009F10B0EC0F3C752B6
:1014E000034606EB0E05002A00F08E8002F56072BE
:1014F000110149B2C2F30717C3F3C34211430022DB
:1015000006F80E204FEA431C4FEAE30EDB12A971E6
:101510006A70AA7085F803C085F804E06B71002139
:1015200018F0A4FC00287DD1EF71DAF8280009F149
:10153000130EC0F3C752034606EB0E05002A60D017
:1015400002F56072110149B2C2F30717C3F3C34237
:101550001143002206F80E204FEA431C4FEAE30E27
:10156000DB12A9716A70AA7085F803C085F804E0DF
:101570006B71002118F07AFC00284FD1EF7104F153
:101580004808B04434440AF1280B002724E052B242
:10159000C1F30715C3F3C34E42EA0E024FEA431CE0
:1015A0004FEAE30EDB12002184F82B7084F82C70D4
:1015B00084F82D7084F8312084F82EC084F82FE050
:1015C00084F8303018F052FC08B165F07F0584F8DB
:1015D0003250083444450BD05BF8040FC0F3C755B4
:1015E00005F5607103460A01002DD0D12A46D1E7E6
:1015F00009F163039AF85020F25409F16400BDE840
:10160000F88F17461146A1E71746114674E71746AB
:10161000114645E767F07F02EA715BE767F07F02FA
:10162000EA71ACE767F07F02EA717EE783682DE933
:10163000F04F0B7083681B0A4B7043898B70C37A21
:10164000CB70C3680B71C3681B0A4B71C3898B7164
:10165000C37BCB7103690B7203691B0A4B72438A0C
:101660008B72C37CCB7283B080464069894619F087
:1016700047FE030E010A020C89F80C0089F80E20BF
:1016800089F80F3089F80D1002460646D8F8141074
:1016900009F1100013F022F8D8F81C0006F110012F
:1016A000C0F3C7520346019109EB0104002A00F080
:1016B000508202F56072110149B2C2F30715C3F3FB
:1016C000C342019F1143002209F807204FEA431E3D
:1016D000A171D910DB1221716270A27084F803E04D
:1016E0006371002118F0C2FB002840F03582E571DB
:1016F000D8F82000C0F3C7520346002A00F0268223
:1017000002F56072110149B2C2F30715C3F3C34277
:1017100011434FEA431E0022A173D910DB1221733B
:1017200022726272A27284F80BE06373002118F0D7
:101730009DFB002840F03482E573D8F82400C0F304
:10174000C7520346002A00F0FE8102F560721101C3
:1017500049B2C2F30715C3F3C34211434FEA431E14
:101760000022A175D910DB12217522746274A27453
:1017700084F813E06375002118F078FB002840F02E
:101780000B82E575D8F82800C0F3C7520346002A3B
:1017900000F0D68102F56072110149B2C2F307155B
:1017A000C3F3C34211434FEA431E0022A177D9106D
:1017B000DB12217722766276A27684F81BE06377CB
:1017C000002118F053FB002840F0E281E57709EB97
:1017D000060448364E44254608F128074FF0000B12
:1017E00025E04FFA8EFECAF3071AC3F3C34C4EEA44
:1017F0000C0E85F836E04FEA431C4FEAE30EDB128D
:10180000002185F830B085F831B085F832B085F820
:1018100033C085F834E085F8353018F027FB08B17F
:101820006AF07F0A85F837A00835B5420DD057F821
:10183000040FC0F3C75101F5607A03464FEA0A1E50
:101840000029CED18A468E46CFE7D8F854000199B8
:10185000C0F3C75201F1680E034609EB0E05002ADA
:1018600000F06B8102F56072110149B2C2F3071AF0
:10187000C3F3C3421143002209F80E204FEA431C70
:101880004FEAE30EDB12A9716A70AA7085F803C0F3
:1018900085F804E06B71002118F0E8FA002840F0A8
:1018A000738185F807A0D8F85800C0F3C7520346E3
:1018B000002A00F03F8102F56072110149B2C2F3C3
:1018C000071AC3F3C34211434FEA431E0022A97310
:1018D000D910DB1229732A726A72AA7285F80BE09A
:1018E0006B73002118F0C2FA002840F0498185F896
:1018F0000FA0D8F85C00C0F3C7520346002A00F0DE
:10190000168102F56072110149B2C2F3071AC3F3DE
:10191000C34211434FEA431E0022A975D910DB12BE
:1019200029752A746A74AA7485F813E06B7500210E
:1019300018F09CFA002840F01F8185F817A008F1E4
:101940005C0725464FF0000B25E04FFA8EFECAF3E8
:10195000071AC3F3C34C4EEA0C0E85F896E04FEA23
:10196000431C4FEAE30EDB12002185F890B085F8A6
:1019700091B085F892B085F893C085F894E085F829
:10198000953018F073FA08B16AF07F0A85F897A0CD
:101990000835B5420DD057F8040FC0F3C75101F513
:1019A000607A03464FEA0A1E0029CED18A468E4647
:1019B000CFE7D8F888000199C0F3C75201F1C80EEB
:1019C000034609EB0E05002A00F0AE8002F56072B6
:1019D000110149B2C2F3071AC3F3C34211430022F3
:1019E00009F80E204FEA431C4FEAE30EDB12A971FF
:1019F0006A70AA7085F803C085F804E06B71002155
:101A000018F034FA002840F0B38085F807A0D8F821
:101A10008C00C0F3C7520346002A00F0828002F512
:101A20006072110149B2C2F30719C3F3C3421143F3
:101A30004FEA431E0022A973D910DB1229732A72C0
:101A40006A72AA7285F80BE06B73002118F00EFA27
:101A5000002840F0898085F80F90D8F89000C0F3F6
:101A6000C7520346002A59D002F56072110149B2EB
:101A7000C2F30719C3F3C34211434FEA431E0022C6
:101A8000A975D910DB1229752A746A74AA7485F8AD
:101A900013E06B75002118F0E9F9002860D185F892
:101AA000179008F190084FF0000925E04FFA82FEE8
:101AB000C1F30715C3F3C3424EEA02024FEA431CC7
:101AC0004FEAE30EDB12002184F8F09084F8F190E5
:101AD00084F8F29084F8F62084F8F3C084F8F4E0F7
:101AE00084F8F53018F0C2F908B165F07F0584F884
:101AF000F7500834A6420BD058F8040FC0F3C7556E
:101B000005F5607103460A01002DCFD1AE46D1E73D
:101B1000019B03F5947003B0BDE8F08F9146114628
:101B2000A8E79146114680E79246114654E792464F
:101B30001146ECE692461146C3E69246114697E6F8
:101B4000154611462CE61546114604E61546114683
:101B5000DCE515461146B2E565F07F02E271C7E5A6
:101B600069F07F02EA759CE769F07F02EA7374E727
:101B70006AF07F02EA714AE76AF07F02EA75DEE600
:101B80006AF07F02EA73B4E66AF07F02EA718AE6DD
:101B900065F07F02E2771AE665F07F02E275F1E513
:101BA00065F07F02E273C8E5F0B50B7883604A7890
:101BB00043EA022383608A7843EA02438360CA7857
:101BC00043EA026383600B79C3604A7943EA0223E4
:101BD000C3608A7943EA0243C360CA7943EA026375
:101BE000C3600B7A03614A7A43EA022303618A7A6B
:101BF0000C4643EA0243036114F80B5F002243EAF8
:101C000005630361174614F8013F93400832202A08
:101C100047EA0307F7D107F1100EBEF1100F01F1EB
:101C20000F0509D907F10F042B460C4413F8012FB7
:101C300003F8012CA342F9D1CC1901EB0E030022C9
:101C4000E2734561DA785209C261197942EAC10248
:101C5000C261597942EAC121C1619A79D20402F480
:101C6000F0020A43C261DD799E79290101F4FE6127
:101C700051EA161105D0A1F5607142EAC152C26164
:101C8000DD7925F07F0542EA0562C261DA7A520900
:101C90000262197B42EAC1020262597B42EAC12117
:101CA00001629A7BD20402F4F0020A430262DD7BF5
:101CB0009E7B290101F4FE6151EA161105D0A1F5C0
:101CC000607142EAC1520262DD7B25F07F0542EA83
:101CD00005620262DA7C52094262197D42EAC1025F
:101CE0004262597D42EAC12141629A7DD20402F4E6
:101CF000F0020A434262DD7D9E7D290101F4FE610E
:101D000051EA161105D0A1F5607142EAC152426252
:101D1000DD7D25F07F0542EA0562426200F128017F
:101D200070370EF1180694F82B305B090B6094F8AD
:101D30002C2043EAC2030B6094F82D2043EAC22210
:101D40000A6094F82E30DB0403F4F00313430B60B5
:101D500094F82F0094F82EC0050105F4FE6252EAB3
:101D60001C12A2F5607204D043EAC2530B6094F8CF
:101D70002F0020F07F00083643EA0063BE4241F89E
:101D8000043B04F10804CED10EF16000F0BD00BFA9
:101D9000F0B585B0364A01920368364D03950322AB
:101DA0008DF808201B6834498B425AD10023382112
:101DB000044680F8232205F1300E80F8241280F8C2
:101DC000253280F8263280F8273200F50A772E4631
:101DD0000FCE764538607960BA60FB60354607F112
:101DE0001007F4D103CD00227960C2234FF0FF0E1B
:101DF000FE263D250721386084F8203284F81CE255
:101E000084F81D6284F81E5284F81F2284F822226E
:101E100084F8211204F2212304F25F2001E013F878
:101E2000011F83420A44FAD1D243144E84F860223F
:101E300004F21B2504F5187703E014F05BF9BD42AA
:101E40000BD0626815F8011F13681B68B34208467F
:101E5000F3D010469847BD42F3D14FF0FF3005B0A4
:101E6000F0BD01AA072198474FF0FF3005B0F0BD43
:101E700018190200081E020005270000350B00009B
:101E80000B782DE9F04383604A7843EA02238360AC
:101E90008A7843EA02438360CA7843EA0263836034
:101EA0000B79C3604A7943EA0223C3608A7943EA23
:101EB0000243C360CA7943EA0263C3600B7A0361D9
:101EC0004A7A43EA022303618A7A064643EA0242D7
:101ED0000846326110F80B4F002342EA0462326177
:101EE0009E4610F8012F9A400833202B4EEA020E2E
:101EF000F7D10EF11000102801F10F0509D90EF1EC
:101F00000F042B460C4413F8012F03F8012C9C42BC
:101F1000F9D101EB0E040023E37375610B5C337799
:101F20000A18C51C5378F38392780D4443EA0223C0
:101F3000F383EB785B0933622A7943EAC2033362A5
:101F40006A7943EAC2233362AA79D20402F4F00226
:101F500013433362EF7995F806C03A0102F4FE624A
:101F600052EA1C1205D0A2F5607243EAC2533362F2
:101F7000EF7927F07F0700F10B050D4443EA076373
:101F80003362EB785B0973622A7943EAC2037362B6
:101F90006A7943EAC2237362AA79D20402F4F00296
:101FA00013437362EF7995F806C03A0102F4FE62BA
:101FB00052EA1C1205D0A2F5607243EAC253736262
:101FC000EF7927F07F0700F113050D4443EA07631B
:101FD0007362EB785B09B3622A7943EAC203B362A6
:101FE0006A7943EAC222B262AB79DB0403F4F003FC
:101FF0001343B362EF7995F806C03A0102F4FE622A
:1020000052EA1C1205D0A2F5607243EAC253B362D1
:10201000EF7927F07F0743EA0763B3620EF1730E8F
:1020200000F11B0706F12C0594F82E305B092B609C
:1020300094F82F2043EAC2032B6094F8302043EA3F
:10204000C2222A6094F83130DB0403F4F003134316
:102050002B6094F8328094F831904FEA081C0CF40D
:10206000FE6252EA1912A2F5607204D043EAC2532A
:102070002B6094F8328028F07F08083743EA086321
:10208000774545F8043B04F10804CDD100F1630322
:102090006430CB5C86F85030BDE8F0832DE9F04F1A
:1020A0000B7883604A7843EA022383608A7843EAA4
:1020B00002438360CA7843EA026383600B79C3609A
:1020C0004A7943EA0223C3608A7943EA0243C36040
:1020D000CA7943EA0263C3600B7A03614A7A43EA2E
:1020E000022303618A7A0C4643EA0242026114F831
:1020F0000B5F002342EA056202611E4614F8012FBD
:102100009A400833202B46EA0206F7D106F1100563
:10211000102D01F10F0E09D906F10F0473460C447E
:1021200013F8012F03F8012C9C42F9D18F194B1998
:102130000022FA73C0F814E0DA785209C2611C79FF
:1021400042EAC402C2615C7942EAC424C4619A7959
:10215000D20402F4F0022243C26193F807E093F83C
:1021600006C04FEA0E1404F4FE6454EA1C1406D0B0
:10217000A4F5607442EAC452C26193F807E02EF0FD
:102180007F0E42EA0E62C261DA7A520902621C7B59
:1021900042EAC40202625C7B42EAC42404629A7B83
:1021A000D20402F4F0022243026293F80FE093F8A3
:1021B0000EC04FEA0E1404F4FE6454EA1C1406D058
:1021C000A4F5607442EAC452026293F80FE02EF064
:1021D0007F0E42EA0E620262DA7C520942621C7D84
:1021E00042EAC40242625C7D42EAC42444629A7DAF
:1021F000D20402F4F0022243426293F817E093F80B
:1022000016C04FEA0E1404F4FE6454EA1C1406D0FF
:10221000A4F5607442EAC452426293F817E02EF0CB
:102220007F0E42EA0E624262DA7E520982621C7FAF
:1022300042EAC40282625C7F42EAC42484629A7FDA
:10224000D20402F4F0022243826293F81FE093F872
:102250001EC04FEA0E1404F4FE6454EA1C1406D0A7
:10226000A4F5607442EAC452826293F81FE02EF033
:102270007F0E42EA0E62826205F120083C4600F1C0
:102280002C0C06F17809BE469EF833305B09CCF879
:1022900000309EF8342043EAC203CCF800309EF8A8
:1022A000352043EAC222CCF800209EF83630DB0409
:1022B00003F4F0031343CCF800309EF837A09EF8E7
:1022C00036B04FEA0A1202F4FE6252EA1B12A2F57D
:1022D000607205D043EAC253CCF800309EF837A0B4
:1022E0002AF07F0A08F1080843EA0A63C8454CF857
:1022F000043B0EF1080EC7D105F168030B44DA78F0
:102300005209426593F804E042EACE02426593F82E
:1023100005E042EACE22426593F806E04FEACE4E4F
:102320000EF4F00E4EEA0202426593F807C093F8ED
:1023300006804FEA0C1E0EF4FE6E5EEA181E06D0F2
:10234000AEF5607E42EACE52426593F807C02CF0AB
:102350007F0C42EA0C624265DA7A5209826593F890
:102360000CE042EACE02826593F80DE042EACE220A
:10237000826593F80EE04FEACE4E0EF4F00E4EEA70
:102380000202826593F80FC093F80E804FEA0C1E8C
:102390000EF4FE6E5EEA181E06D0AEF5607E42EACE
:1023A000CE52826593F80FC02CF07F0C42EA0C628B
:1023B0008265DA7C5209C26593F814E042EACE02E3
:1023C000C26593F815E042EACE22C26593F816E0A2
:1023D0004FEACE4E0EF4F00E4EEA0202C26593F8BA
:1023E00017C093F816804FEA0C1E0EF4FE6E5EEADC
:1023F000181E06D0AEF5607E42EACE52C26593F852
:1024000017C02CF07F0C42EA0C62C26505F1800C0B
:1024100000F1600E06F1D80897F893305B09CEF80A
:10242000003097F8942043EAC203CEF8003097F8C2
:10243000952043EAC222CEF8002097F89630DB04BC
:1024400003F4F0031343CEF8003097F897A097F801
:1024500096B04FEA0A1909F4FE6252EA1B12A2F57D
:10246000607205D043EAC253CEF8003097F897A0C7
:102470002AF07F0A0CF1080C43EA0A63C4454EF8BF
:10248000043B07F10807C7D105F1C8031944CB780D
:102490005B09C0F888300A7943EAC203C0F8883083
:1024A0004A7943EAC222C0F888208B79DB0403F41E
:1024B000F0031343C0F88830CF7991F806E03A0171
:1024C00002F4FE6252EA1E1206D0A2F5607243EADE
:1024D000C253C0F88830CF7927F07F0743EA0763FB
:1024E000C0F88830CB7A5B09C0F88C300A7B43EAAD
:1024F000C203C0F88C304A7B43EAC222C0F88C2069
:102500008B7BDB0403F4F0031343C0F88C30CF7BE8
:1025100091F80EE03A0102F4FE6252EA1E1206D071
:10252000A2F5607243EAC253C0F88C30CF7B27F02B
:102530007F0743EA0763C0F88C30CB7C5B09C0F8A7
:1025400090300A7D43EAC203C0F890304A7D43EAE6
:10255000C222C0F890208B7DDB0403F4F003134308
:10256000C0F89030CF7D91F816E03A0102F4FE6297
:1025700052EA1E1206D0A2F5607243EAC253C0F8B6
:102580009030CF7D27F07F0743EA0763C0F8903093
:1025900006F59C76943005F1E00794F8F3305B097A
:1025A000036094F8F42043EAC203036094F8F52032
:1025B00043EAC222026094F8F630DB0403F4F0032D
:1025C0001343036094F8F7E094F8F6C04FEA0E1155
:1025D00001F4FE6252EA1C12A2F5607204D043EAD2
:1025E000C253036094F8F7E02EF07F0E083743EAF9
:1025F0000E63B74240F8043B04F10804CDD105F561
:102600009470BDE8F08F00BFF0B40B7883604A7817
:1026100043EA022383608A7843EA02438360CA78EC
:1026200043EA026383600B79C3604A7943EA022379
:10263000C3608A7943EA0243C360CA7943EA02630A
:10264000C3600B7A03614A7A43EA022303618A7A00
:102650000D4643EA02420261044615F80B0F0023BF
:1026600042EA00622261184615F8012F9A400833A9
:10267000202B40EA0200F7D100F11006102E01F1E4
:102680000F0709D900F10F053B460D4413F8012F40
:1026900003F8012C9D42F9D10B180022DA7367610F
:1026A0008A5D2276DD7C9A7C597C1E7D2D0445EA6C
:1026B00002220A4342EA0662E261DD7D9A7D597D8B
:1026C0001E7E2D0445EA02220A4342EA0662226285
:1026D000DD7E9A7E597E1E7F2D0445EA02220A4342
:1026E00042EA06626262D97F9E7F5A7F93F8205049
:1026F000090441EA0623134343EA05632130A36238
:10270000F0BC70472DE9F041632984B003DD90F8F7
:10271000F874002F53D0136805460F4610461B6807
:1027200005F223219847C2B2C0F30721561885F855
:102730001E2247F30722F643FF234FF0FE0EFCB2A2
:1027400085F82222421C85F8206285F81F1285F840
:102750001C3285F81DE285F821420DDB00F22221B2
:10276000294405F22123002201E013F8014F994288
:102770002244FAD1D343DBB22A1800F10807B7F597
:10278000007F82F823321EDC002F05F5077616DD68
:102790000730DFF81081064405F21B2403E013F034
:1027A000A9FCB4420BD06A6814F8011F13681B68B7
:1027B00043450846F3D010469847B442F3D1384613
:1027C00004B0BDE8F081344A0192344C2B68039484
:1027D00003228DF808201B6831498B4255D1002314
:1027E000382185F8232204F1300E85F8241285F86B
:1027F000253285F8263285F8273205F50A762746F0
:102800000FCF774530607160B260F3603C4606F1EF
:102810001006F4D103CC00227160C2234FF0FF0EEA
:10282000FE273D240721306085F8203285F81CE220
:1028300085F81D7285F81E4285F81F2285F8222230
:1028400085F8211205F2212305F25F2001E013F83B
:10285000011F98420A44FAD1D243DFF8488085F834
:10286000602205F21B2405F5187603E013F042FC04
:10287000B4420ED06A6814F8011F13681B68434500
:102880000846F3D010469847F2E7284601AA0721E8
:1028900098474FF0FF3093E718190200081E020016
:1028A00005270000350B00002DE9F047DFF880A276
:1028B000DAF804008CB000F1004016F08FFC80467E
:1028C000DAF8080000F10040894616F087FC064659
:1028D0000F46DAF80C00924917F020F816F07EFC4B
:1028E00089A3D3E9002304460D4616F05BFF0028B8
:1028F00040F0FD8086A3D3E900232046294616F048
:1029000033FF40B12046294683A3D3E9002316F0C4
:1029100007FB04460D460022824B2046294616F04E
:10292000B1FC04460D4614F095F8CDE902012046AD
:10293000294614F0D9F80022CDE90401794B40462C
:10294000494616F09FFC04460D4614F083F8CDE985
:1029500006012046294614F0C7F80022CDE90801F7
:10296000704B3046394616F08DFC04460D4614F087
:1029700071F8CDE900012046294614F0B5F8DDE9EB
:10298000062306460F46DDE9020116F07BFCDDE971
:10299000082304460D46DDE9040116F073FC2246C7
:1029A000CDE90A012B46DDE9000116F06BFCDDE9FB
:1029B0000A23804689463046394616F063FC0246B3
:1029C0000B464046494616F0ABFA16F053FFDFF8C7
:1029D000648122462B46C8F81C003946304616F062
:1029E00051FCDDE90A2304460D46DDE9000116F03D
:1029F00049FC02460B462046294616F08FFA16F08F
:102A000039FFDDE90623C8F82000DDE9040116F0EE
:102A100039FCDDE9082304460D46DDE9020116F024
:102A200031FC2246CDE902012B463046394616F0EC
:102A300029FCDDE90223CDE90401DDE9000116F0FE
:102A400021FC02460B46DDE9040116F069FA16F096
:102A500011FF22462B46C8F82400DDE9000116F0DC
:102A600011FCDDE9022304460D463046394616F0D6
:102A700009FC02460B462046294616F04FFA16F08E
:102A8000F9FEDAF81C30DAF82020C8F8582003F1F3
:102A90000043C8F85430DAF82430C8F8280003F1AD
:102AA0000043C8F85C302049DAF8100017F040F80D
:102AB000DAF81430C8F888001B4903F1004017F019
:102AC00037F81949C8F88C00DAF8180017F030F810
:102AD000164BDAF82840DAF82C10DAF83020C8F86B
:102AE0009000DC6119625A620CB0BDE8F0872046A4
:102AF000294609A3D3E9002316F010FA04460D462F
:102B000009E700BFAFF3008000000060FB2109402F
:102B100000000060FB2109C000000060FB2119409B
:102B2000DB0FC93F0000E03F0AE81C41E89EFF1FA1
:102B3000B49EFF1F14A0FF1F2DE9F0434FF47A72DB
:102B400085B04FF4FA6303219648974DDFF8D89289
:102B5000DFF8D882954C964E03F01AFE40F2DC5115
:102B6000904803F073FE934803F0BAFA4FF42470D0
:102B700013F08EFD9049074606F042FE1823FB61D4
:102B800038466F600AF000FB036828601B699847AD
:102B90002B688A4AD3F88430A8601A6701270E226E
:102BA000104683F8A17083F8A27083F8A370002107
:102BB000C9F8002012F008FA0A2011F03BFF09F1D1
:102BC0000400642103F0E4FE0B2302211846C8F838
:102BD000003012F0F9F9236803930025039BC8F82D
:102BE000043044F6206088F8085012F0D3FA744894
:102BF00003F076FA3946304611F032FA4FF4FA73A0
:102C0000307470497380304611F086F96E4A2B4655
:102C1000C2F8E454C2F8E854C2F8F054C2F8EC54D4
:102C200002F27C4102E00133192B0AD051F8040F63
:102C30000028F8D103F59070644942F820106433FD
:102C40004B6063490023084602E00133192B0BD087
:102C500050F8045F002DF8D15E4802EB83057D3308
:102C6000C5F81C048360C2605B4B5C4D5D615848D5
:102C7000002302E00133192B0BD050F8046F002E13
:102C8000F8D1574802EB83067D33C6F81C048360F5
:102C9000C260544B4E485D61002302E00133192BA2
:102CA0000BD050F8046F002EF8D14F4802EB83068A
:102CB0007D33C6F81C048360C2604C4E4C4F4D4BB4
:102CC0004D48776133624D4F706200234048F76191
:102CD000337602E00133192B0BD050F8046F002E2D
:102CE000F8D1474802EB83067D33C6F81C048360A5
:102CF000C260444B36485D610125DD83002302E05C
:102D00000133192B0BD050F8045F002DF8D13E4849
:102D100002EB83057D33C5F81C048360C2602C4838
:102D2000002302E00133192B0BD050F8045F002D73
:102D3000F8D1364802EB83057D33C5F81C04836067
:102D4000C260334B33485860002302E00133192B33
:102D50000BD051F8040F0028F8D12F4902EB830063
:102D60007D33C0F81C148B60CA60236802930298FC
:102D700023680193019D294923680093284C294B1E
:102D8000009A086001210D201A60256012F01CF9DC
:102D900001210D2012F004F9642012F03DF905B074
:102DA000BDE8F083809EFF1F7498FF1F70A3FF1F74
:102DB000889EFF1F4C88FF1F441E02000AD7A33CB9
:102DC000B888FF1FA08601002099FF1F349FFF1FB6
:102DD000389DFF1F3898FF1F14A0FF1F501E0200D0
:102DE0002498FF1FE89EFF1F9498FF1F549EFF1F0B
:102DF0005C1E02009A99993E000040403333333FF5
:102E00005898FF1FC098FF1F8098FF1FA09EFF1FAC
:102E100008A0FF1F0088FF1FAC98FF1FA898FF1F86
:102E20004C98FF1F10A0FF1FEC9FFF1F1499FF1F5E
:102E30002DE9F04FB54CB64D20682A680368ADB057
:102E40009B690B920B9A01929847C8B12268B14BCB
:102E500050699469D169966C9C605860D46C106D0F
:102E6000D960916B1E615C61D66B146C9861D961FD
:102E7000906DD16D126E1E625C629862D9621A63A7
:102E8000A54C237A002B00F0FB812078A24C12F095
:102E90008DF8002800F05D85002323720023049341
:102EA0009E4B019A1B68D31AC82B00F209829C4CD6
:102EB00094F8F864002E00F0F9819A4B1868019B91
:102EC000181A16F0DDFD984916F0EEFF002840F0C4
:102ED000E783DFF87482019BD8F80000181A16F017
:102EE000CFFD924916F0E0FF002840F0CE83904BD2
:102EF0001868019B181A16F0C3FD8E4916F0D4FF0E
:102F0000002840F0E3812B681293129ED4F800351C
:102F10008349F31A42F6F822934284BF002381F8D2
:102F2000F834D4F8E4347E4A33B1D2F804359E4202
:102F300084BF0023C2F8E4347F4FDFF8E4A1A26924
:102F40002AB12B681693169B9B1B9A4221D360686B
:102F500003685B69BB4278D112F0E2FF002877DB9F
:102F6000D4F8F434D4F8E424DFF8B4E10344072AB5
:102F7000C4F8F43455D07AB9FF2800F03D812B68AD
:102F80001593159B41F288319B1B8B42D7D98EF844
:102F9000F8242DB0BDE8F08F012A00F0D980022A74
:102FA00000F03281032A00F03A81042A00F04181C6
:102FB000052A00F04E81062A00F05381082ABED16E
:102FC0005E4A1A4000239A42C4F8E434C1F23583C1
:102FD000FF2AB4D1D4F8EC34DFF84491002B01F08F
:102FE00061840A2B01F06283062B01F09A830B2B7C
:102FF00001F05183BC335AF8230000289FD00368A6
:103000004F4A1B68934241F0DA869AF81C300382DB
:103010009AF81D10426943EA012303820C3090475D
:103020008DE7DAF8F024DAF8E8340AEB0201013B24
:1030300001320877CAF8F024CAF8E834002B7FF48C
:103040007EAF0823C4F8E43479E79847002887DA8C
:1030500094F8F8343248002B9BD0D0F8FC3440F67A
:10306000C412F31A934294D9FF23FE21002280F860
:103070001C3280F81D12F72308270A2180F820321D
:1030800080F8232280F8242280F8252280F8262246
:1030900080F8272280F8282280F8292280F82A2226
:1030A00080F81F2280F8222280F81E7280F82112F8
:1030B00000F2212300F22A2001E013F8011F9842B8
:1030C0000A44FAD1DFF884801E4FD24384F82B22C1
:1030D00008F10F09FF2005E013F00CF8C1450BD0F3
:1030E00018F8010F626813681B68BB420146F3D0F1
:1030F00010469847C145F3D12B682293229BC4F810
:10310000FC64E3602DB0BDE8F08F00BF7498FF1F32
:1031100070A3FF1FB49EFF1F1499FF1F9C9EFF1FEB
:103120002099FF1FA898FF1F0000A0410000C8427F
:1031300010A0FF1F0000484389080000FF00008026
:1031400061080000350B00004C98FF1F3C9BFF1FDF
:10315000FE287AD09AF8F8240023CAF8E434002A2A
:103160007FF4EDAEFF23FE2108208AF81C328AF896
:103170001D12F7230A218AF820328AF823220EF240
:1031800021238AF824228AF825228AF826228AF81E
:1031900027228AF828228AF829228AF82A228AF8FD
:1031A0001F228AF822228AF81E028AF821120EF2C1
:1031B0002A2E01E013F8011F9E450A44FAD1DFF8D8
:1031C0002091DFF82081D24384F82B2209F10F0BE4
:1031D000FF2101E019F8011F626813681B6843456D
:1031E000084641F0E88512F085FFCB45F2D12B6807
:1031F0001493149BE360A2E6012206F11403CAF8BB
:10320000E424CAF804359AE600220323CAF8E80445
:10321000CAF8F404CAF8F024CAF8E4348FE6DAF8FD
:10322000E83403EB00200423CAF8E804CAF8E434C5
:1032300085E6284A1A40002AC0F2D086FF2A0CBF31
:1032400005230023C4F8E43479E60223CAF8E43401
:1032500075E60623CAF8EC04CAF8F404CAF8E434A4
:103260006DE6DAF8EC34DAF8E82403EB0023072102
:10327000CAF8EC34CAF8E414002A3FF4E2AE5EE681
:10328000207811F093FE002840F069832B680D939D
:103290000D9A6260012323722B680C930C9B9B1A7E
:1032A000642B7FF6FBAD01230493F9E540F2DC517A
:1032B000094803F0CBFA31460D2011F071FE22E6E9
:1032C00040F2DC51044803F0C1FAF0E5DFF80C905D
:1032D000C8460FE0FF000080809EFF1F509FFF1F29
:1032E0003C9BFF1F350B000011F0DAFFC1B2C44850
:1032F00004F0B4F811F0C4FF06460028F4D1C04F22
:1033000099F86C3022A83946002B00F0608604F052
:10331000B3F80DF1880CBCE80F0007F1700EAEE8B1
:103320000F00BCE80F00AEE80F009CE803004EF869
:10333000040B98F89130AEF80010002BDAD098F812
:103340009230002BD6D0386FDFF8CC9215F034FFD6
:10335000A9A3D3E9002315F095FF8246786F8B4629
:1033600015F02AFFA4A3D3E9002315F08BFFCDE9C4
:103370000201B7F97A0016F087FBA24916F0D8FBD4
:103380008046B7F9780016F07FFB0146404616F0FC
:10339000C7FA2968119180469B4911986269A1FB7F
:1033A00000318909994B4FF47A7707FB110720699F
:1033B00003FB072220AF0B18384621A92192209346
:1033C00003F0CEFA97E8030009F10C0787E8030041
:1033D0005946504616F04EFAC9F82000DDE90201C0
:1033E00016F048FAC9F82880C9F8240089F81C604A
:1033F000874B884AD3F80C809B6808931946D8F805
:10340000003002921B68934240F0BF83632904DDC1
:1034100098F8F834002B00F0BC8309F10C0045C883
:10342000D9F8083088F823321F0A190C1B0E4FEA0E
:10343000104C4FEA106E4FEA102A88F8247288F870
:103440002512170A110C88F82632130E88F8270265
:1034500088F829C288F82AE288F82B2288F82C728A
:1034600088F82D1288F82E32304688F828A217F0F6
:1034700047FF074631463E463B0E3A0C1036000ADF
:1034800088F82F7288F8300288F8312288F83232B2
:103490003A4606970796374608F2332008F2232665
:1034A000059611F01BF999F81C30F35532463A4451
:1034B000B9F81E305370B9F81E3006991B0A937084
:1034C000D9F8200001F11307C0F3C75203463E4468
:1034D000002A01F0AF8002F5607A4FEA0A1252B278
:1034E000CAF3071AC3F3C34141EA020C059900224B
:1034F000CA554FEA431EDF10DB1286F806C0727011
:10350000B27086F803E037717371002116F0AEFCDB
:1035100008B16AF07F0A86F807A00799D9F8240055
:1035200001F10B070599C0F3C7520346CE19002AD3
:1035300001F07D8002F5607A4FEA0A1252B2CAF3B6
:10354000071AC3F3C34141EA020C05990022CA5588
:103550004FEA431EDF10DB1286F806C07270B270AD
:1035600086F803E037717371002116F07FFC08B113
:103570006AF07F0A86F807A00799D9F8280001F1B8
:1035800013070599C0F3C7520346CE19002A01F06C
:103590004B8002F5607A4FEA0A1252B2CAF3071A58
:1035A000C3F3C34141EA020C05990022CA554FEA10
:1035B000431EDF10DB1286F806C07270B27086F808
:1035C00003E037717371002116F050FC08B16AF006
:1035D0007F0A069A059986F807A013464833DFF854
:1035E0003CA0CDF82480CB181F468E184FF0000B5E
:1035F000D0463CE0AFF30080000000A0F2D77A3E56
:10360000509FFF1F0AD7233CD34D621040420F004A
:103610005898FF1F05270000C098FF1FE898FF1F5C
:103620004FFA8EFECAF3071AC3F3C34C4EEA0C0ED0
:1036300086F831E04FEA431C4FEAE30EDB1200212B
:1036400086F82BB086F82CB086F82DB086F82EC000
:1036500086F82FE086F8303016F008FC08B16AF0E2
:103660007F0A86F832A00836B74200F0BD8458F8C9
:10367000040FC0F3C75101F5607A03464FEA0A1EF2
:103680000029CDD18A468E46CEE7B84E301D03F0D4
:103690009DF9002840F07881019BC8F8003026E4AD
:1036A000FFF702F92B680E930E9AB14BB14E606989
:1036B0002169B14F0296A3FB02E39B094FF47A768E
:1036C00006FB13221AAE07FB02020B4430461BA96D
:1036D0001B921A9303F044F9A84BA94AD3F80C9013
:1036E0009B6808931F46D9F8003096E803001B68D2
:1036F000A04E0C32B34282E8030040F02E83632FC9
:1037000004DD99F8F834002B00F02B839C4B9C4A85
:103710009B689B49D06812694E6989F823321F0A59
:10372000190C1B0E4FEA102C4FEA104E89F8247228
:1037300089F82512070E110A89F8263289F827021E
:10374000130C100E89F828C289F829E289F82A7228
:1037500089F82B2289F82C1289F82D3289F82E024B
:10376000304617F0CDFD07463B0E3A0C0790000A95
:10377000314689F82F7289F8300289F8312289F8A8
:1037800032323A4609F2332010F0A8FF7C4AD06961
:1037900009F2232107F11002C0F3C757034606922E
:1037A00005918E18002F00F0508707F560773A01D9
:1037B00052B2C7F30717C3F3C34141EA02080599A0
:1037C0008C46069900220CF801204FEA431ED910BE
:1037D000DB12317186F806807270B27086F803E0F1
:1037E0007371002116F042FB08B167F07F07644B4C
:1037F000F771186AC0F3C7570346002F00F02F87F0
:1038000007F560773A0152B2C7F30717C3F3C34114
:1038100011434FEA431E0022B173D910DB123173FA
:1038200032727272B27286F80BE07373002116F076
:103830001DFB08B167F07F07514BF773586AC0F35F
:10384000C7570346002F00F0078707F560773A0156
:1038500052B2C7F30717C3F3C34111434FEA431EE4
:103860000022B175D910DB12317532747274B274E2
:1038700086F813E07375002116F0F8FA08B167F0C6
:103880007F073F4BF775986AC0F3C7570346002F71
:1038900000F0EE8607F560773A0152B2C7F30717DA
:1038A000C3F3C34111434FEA431E0022B177D9103D
:1038B000DB12317732767276B27686F81BE0737758
:1038C000002116F0D3FA08B167F07F07079A059B2D
:1038D000F77702F1480A9E182A4A099637469A4411
:1038E0004FF0000B164626E04FFA8EFEC8F307187D
:1038F000C3F3C34C4EEA0C0E87F836E04FEA431C84
:103900004FEAE30EDB12002187F830B087F831B0C0
:1039100087F832B087F833C087F834E087F835305D
:1039200016F0A4FA08B168F07F0887F837800837E6
:10393000574500F0218456F8040FC0F3C75101F534
:10394000607803464FEA081E0029CDD188468E468E
:10395000CEE7237A002B3FF4A1AA62689CE4237A85
:10396000002B3FF49BAAFFF790BA00BFEC9FFF1F0C
:10397000D34D62100527000040420F003898FF1F0A
:1039800014A0FF1F3CA0FF1F3078DFF88493D24FB4
:1039900011F084F816F078F8D04916F0C9F8C9F893
:1039A0000400301D03F004F8D9F80400CC49CD4ED2
:1039B00016F072F92B681093109BCB49B862A1FBEB
:1039C000030189094FF47A7000FB113062692369A1
:1039D0000DF1780906FB0022CB1848461FA91F925B
:1039E0001E9302F0BDFFC14BDFF828E3DE68D3F879
:1039F00008A0336899E803001B6807F10C027345BF
:103A000082E8030040F04C86BAF1630F04DD96F8BB
:103A1000F834002B3FF440AEBA68FB683969D7F838
:103A2000149086F82322100A86F82402100C4FEA1C
:103A3000132E120E86F8250286F82732180C1B0E5C
:103A400086F8262286F829020A0A080C86F82A3205
:103A50000B0E86F828E286F82B1286F82C2286F8C0
:103A60002D0286F82E32484617F04AFC83464FEA6C
:103A70001B63000A4FEA1B42494686F8300286F86B
:103A8000312286F832325A4686F82FB206F23320B7
:103A900006F2232910F022FE4B465B443A7E1A744C
:103AA000FA695A74100A110C120E9874D9741A75A6
:103AB0003A6A5A75100A110C120E9875D9751A7651
:103AC0007A6A5A76100A110C120E9876D9761A77FD
:103AD000BA6A5A770BF121014FEA122E83F81EE0E1
:103AE000C8B2C1F307274FEA124E120E83F8202006
:103AF000C21983F81FE0D243FF2386F81E024FF05D
:103B0000FE0E5FFA8AF086F81F724AF3072A4F1CEE
:103B100086F8202286F81C3286F81DE286F82102FB
:103B200086F822A20DDB0BF24327374406F221234D
:103B3000002201E013F8010FBB420244FAD1D34343
:103B4000DBB272180831B1F5007F82F8233200F33E
:103B50005C86002906F507797FF79EAD0BF1280BEF
:103B6000634FD94406F21B2A04E012F0C3FAD14590
:103B70003FF492AD72681AF8011F13681B68BB42CC
:103B80000846F2D010469847F1E70899594A40464E
:103B900098475948037C002B40F02B85574E584BD3
:103BA0007360584B029AD3F80C909968D9F800309A
:103BB0001B68934240F06A85632903DD99F8F83465
:103BC000002B45D0736889F82332180A1A0C89F83B
:103BD00024021B0EFE20FF2789F82522042689F8DF
:103BE00026320022FB2389F81D02C8B241F30721C7
:103BF00089F8203289F8221289F81C7289F81E622D
:103C000089F81F2289F8210209F2212309F22621CD
:103C100001E013F8010F99420244FAD1D243344F24
:103C200089F8272209F21B2609F2272803E012F05F
:103C300061FA46450CD0D9F8042016F8011F136824
:103C40001B68BB420846F2D0104698474645F2D161
:103C5000049B2D4EDFF8C080002B40F064849DF85B
:103C600010303371294B9DF8102088F80020D3F8CC
:103C70000C809968D8F80030029A1B68934240F093
:103C80000085632903DD98F8F834002B57D032798A
:103C900088F8232241F30720CBB253FA80F3134470
:103CA000DB43FF26FE2288F8211288F82432012106
:103CB000002388F81C6288F822020D4F88F81D2224
:103CC00088F8202288F81E1288F81F3208F21B2676
:103CD00008F5097926E000BF549EFF1F0000A040B0
:103CE00000007A4440420F00D34D62109498FF1FA9
:103CF000350B0000C098FF1F889EFF1F00A0FF1F0C
:103D0000000080BF8098FF1F6C98FF1FA09EFF1FC0
:103D10005098FF1F05270000E89FFF1F12F0EAF9E7
:103D20004E450CD0D8F8042016F8011F13681B6804
:103D3000BB420846F2D0104698474E45F2D1CF4ECE
:103D4000CF4B019A31781A600D2011F029F93378A0
:103D500083F001033370FFF7D6B8CA4A0899484682
:103D600098472B680F930F9EC7496269C74BC84F8E
:103D7000A1FB060189094FF47A7000FB116003FB77
:103D8000002223691D921CAECB1830461DA91C933E
:103D900002F0E6FDBF4BD3F80C809B68059396E8D4
:103DA0000300D8F8003007F10C021B6882E803001A
:103DB000029A934240F00281059B632B04DD98F840
:103DC000F834002B00F0FE8007F10C0045C8BB68FA
:103DD00088F823324FEA132E190C1B0E4FEA104CB1
:103DE0004FEA102988F824E288F825124FEA106E6D
:103DF000110A88F8263288F82702130C100E88F86A
:103E000029C288F82AE288F82B2288F82C1288F830
:103E10002D3288F82E0288F82892304617F070FA72
:103E200001460B0E8E460A0C0290000A88F82F12EB
:103E300088F83002314688F8312288F832327246EA
:103E400008F23320764610F049FCF86906F11002BA
:103E50001146069208F2232BC0F3C75203460BEB20
:103E60000106002A00F0F68302F5607A4FEA0A1292
:103E700052B2CAF3071AC3F3C34141EA020C0699CE
:103E800000220BF801204FEA431ED910DB123171DA
:103E900086F806C07270B27086F803E07371002174
:103EA00015F0E4FF08B16AF07F0A86F807A0386AC7
:103EB000C0F3C7520346002A00F0CA8302F5607AB5
:103EC0004FEA0A1252B2CAF3071AC3F3C3411143AD
:103ED0004FEA431E0022B173D910DB1231733272E4
:103EE0007272B27286F80BE07373002115F0BEFF98
:103EF00008B16AF07F0A86F80FA0786AC0F3C75746
:103F00000346002F00F09F8307F560773A0152B215
:103F1000C7F30717C3F3C34111434FEA431E0022FF
:103F2000B175D910DB12317532747274B27486F8BF
:103F300013E07375002115F099FF08B167F07F0752
:103F4000029AF77502F1480ADA440BEB0206DFF831
:103F500050914FF0000B25E04FFA82FEC1F3071796
:103F6000C3F3C3424EEA020286F82E204FEA431EF4
:103F7000DA10DB12002186F828B086F829B086F81E
:103F80002AB086F82BE086F82C2086F82D3015F024
:103F90006DFF08B167F07F0786F82F700836B245CD
:103FA00000F0938059F8040FC0F3C75707F560710C
:103FB00003460A01002FCFD1BE46D1E73A46059904
:103FC00040469847344B019A1A60FEF782BFDFF8EB
:103FD000D490FF2389F81C30FFF70ABA013A62F047
:103FE000FF020132FFF72AB9079A059F99F850009E
:103FF000DDF82480134602F164016333CEB2C1F3CD
:104000000722F854B018089F88F81E62C043FF23A7
:10401000FE2688F8200288F81F22F8B24A1C47F3CF
:10402000072788F81C3288F81D6288F8210288F872
:1040300022720EDB069B03F29626464408F22123E9
:10404000002201E013F8010FB3420244FAD1D34336
:10405000DBB208EB01020831B1F5007F82F82332B0
:1040600000F36A83002908F507767FF792AD069B77
:104070000A4F7B331E4408F21B291AE0FC87FF1FFE
:1040800010A0FF1F14A0FF1FD34D621040420F006D
:10409000E89EFF1F2498FF1FA898FF1F350B000004
:1040A0000C9FFF1FC098FF1F12F024F8B1453FF48A
:1040B00070ADD8F8042019F8011F13681B68BB42C3
:1040C0000846F1D010469847F0E7069E06F16002D8
:1040D000D3B2C2F30722991888F81F22059A88F8EC
:1040E0001E32C94388F82012D1B242F30722FF23BF
:1040F000FE2088F8222216F1610288F81C3288F826
:104100001D0288F821120EDB029B03F2922040442C
:1041100008F22123002201E013F8011F98420A440B
:10412000FAD1D343DBB20698024608EB00016832AD
:10413000B2F5007F81F8833200F3A483002A08F5EA
:1041400007767FF73FAF029BC74F03F177094E44D5
:1041500008F21B2904E011F0CDFFB1453FF432AF66
:10416000D8F8042019F8011F13681B68BB420846E1
:10417000F1D010469847F0E7BC4B0699586D099E60
:1041800001F1680E0599C0F3C752034601EB0E0713
:10419000002A00F06B8202F560784FEA081252B2F2
:1041A000C8F30718C3F3C34141EA020B0599002283
:1041B00001F80E204FEA431C4FEAE30EDB1287F8AA
:1041C00006B07A70BA7087F803C087F804E07B7194
:1041D000002115F04BFE08B168F07F08A34B87F86B
:1041E0000780986DC0F3C7520346002A00F03C8256
:1041F00002F560784FEA081252B2C8F30718C3F309
:10420000C34111434FEA431E0022B973D910DB1298
:1042100039733A727A72BA7287F80BE07B730021B5
:1042200015F024FE08B168F07F08904B87F80F80E6
:10423000D86DC0F3C7520346002A00F0138202F57E
:1042400060784FEA081252B2C8F30718C3F3C341AB
:1042500011434FEA431E0022B975D910DB1239759C
:104260003A747A74BA7487F813E07B75002115F0FC
:10427000FDFD08B168F07F087D4A87F81780099630
:1042800037464FF0000B164625E04FFA8EFEC8F376
:104290000718C3F3C34C4EEA0C0E87F896E04FEABA
:1042A000431C4FEAE30EDB12002187F890B087F839
:1042B00091B087F892B087F893C087F894E087F8B8
:1042C000953015F0D3FD08B168F07F0887F8978026
:1042D000083757450DD056F8040FC0F3C75101F504
:1042E000607803464FEA081E0029CED188468E46E4
:1042F000CFE75E4B0699D3F88800099E01F1C80EFE
:104300000599C0F3C752034601EB0E07002A00F0DF
:10431000B48102F560784FEA081252B2C8F3071868
:10432000C3F3C34141EA020B0599002201F80E20B4
:104330004FEA431C4FEAE30EDB1287F806B07A70AF
:10434000BA7087F803C087F804E07B71002115F08C
:104350008DFD08B168F07F08444B87F80780D3F8DB
:104360008C00C0F3C7520346002A00F0848102F596
:1043700060784FEA081252B2C8F30718C3F3C3417A
:1043800011434FEA431E0022B973D910DB1239736F
:104390003A727A72BA7287F80BE07B73002115F0DB
:1043A00065FD08B168F07F08304B87F80F80D3F8BF
:1043B0009000C0F3C7520346002A00F0608102F566
:1043C00060784FEA081252B2C8F30718C3F3C3412A
:1043D00011434FEA431E0022B975D910DB1239751B
:1043E0003A747A74BA7487F813E07B75002115F07B
:1043F0003DFD08B168F07F0887F81780DFF874B0DA
:104400004FF0000824E04FFA82FEC1F30717C3F310
:10441000C3424EEA020286F8F6204FEA431EDA1043
:10442000DB12002186F8F08086F8F18086F8F280B1
:1044300086F8F3E086F8F42086F8F53015F016FDDE
:1044400008B167F07F0786F8F7700836B24513D0D9
:104450005BF8040FC0F3C75707F5607103460A0104
:10446000002FD0D1BE46D2E7350B000014A0FF1FAD
:1044700070A0FF1FA4A0FF1F069E06F59472D3B282
:10448000C2F30722991889F81F22089A89F81E3268
:10449000C943FF2389F82012FE20D1B216F5957F7B
:1044A00042F3072289F81C3289F81D0289F821128B
:1044B00089F822220EDD079B03F25A30484409F2A4
:1044C0002123002201E013F8011F83420A44FAD19C
:1044D000D343DBB2069809EB000100F59872B2F500
:1044E000007F81F84B3300F39B81002A09F50776A2
:1044F0007FF737AC079BD24F03F23F131E4409F2FC
:104500001B2804E011F0F6FD46453FF42AACD9F82B
:10451000042018F8011F13681B68BB420846F1D03D
:1045200010469847F0E70123C648337140F2DC514A
:1045300002F08CF998F80070002F7FF493ABC24B17
:10454000C24AD868996803681B689847DFF824C393
:10455000DFF824E384F82572BCE80F00AEE80F0012
:10456000DCF800202EF8022B7346120C132003F8FF
:1045700019294FF0030CFF214FF0FE0984F8267231
:1045800084F827724FF0180A84F81F7284F8227298
:104590003A4684F82402E727072084F823C284F8E7
:1045A0001C1284F81D9284F81EA284F8207284F8EC
:1045B000210201E013F8010F9E450244FAD1DFF811
:1045C000BCA29F4FD24384F83B220AF11F09FF216E
:1045D00006E011F08FFDCA453FF444AB1AF8011F05
:1045E000626813681B68BB420846F2D010469847C1
:1045F000F1E70FF067FB15F047FA954915F098FAC7
:10460000944915F08DF915F059FC4FF6FF7380B2FF
:1046100098423FF4C3AA15F033FA8F498F4E15F034
:104620003BFB7060FFF7BDBA9246FEF7B9BF9246FA
:10463000FEF787BF9246FEF755BF013A62F0FF02D0
:104640000132FEF7C5BC3A4664E43A46FFF7B3B818
:1046500092463AE492460EE43A46FFF7FCB83A46F0
:10466000FFF7D4B89046F1E59046C8E5904699E545
:104670003A46FFF715B9904680E6904650E69046D8
:10468000A4E64046764A9847FFF759BB4846734A26
:104690009847FFF7DDBA00238AF8F834FEF74FBCDD
:1046A0003A46514630469847FEF7F6BF2B681793B7
:1046B000179BDAF80C20296819916A49DAF820006A
:1046C000DFF8BCC1DDF864809B1AA1FB031E4FEA32
:1046D0009E1E4FF47A7184446348DAF81C2001FB73
:1046E0001E3300FB03CC5F4BA3FB083B4FEA9B1B35
:1046F000013A01FB1B81724400FB11C3CBEB0202A8
:1047000009F1140109F11000CAF81430CAF8102098
:1047100002F026F92B681893189BCAF80035FEF7AB
:104720000EBC09F11C0109F20C50FCF707FA012339
:104730008AF80835FEF703BC03228DF88C20D8F8E0
:1047400000304A494A48249122901B6802998B42C2
:1047500060D10023382188F8232288F8241288F8B1
:10476000253288F8263288F82732249B08F50A7209
:1047700003F130011F685E689868D3F80CE0C2F856
:104780000CE010338B4217605660906002F110020B
:10479000F0D119685B68536011603D200023C2218D
:1047A000FF27FE26072288F81E0288F8201288F8C4
:1047B0001C7288F81D6288F81F3288F8223288F847
:1047C000212208F2212108F25F2001E011F8012FD7
:1047D00088421344FAD1DB43194F88F8603208F25B
:1047E0001B2908F5187604E011F084FCB1453FF46C
:1047F000D0A9D8F8042019F8011F13681B68BB4220
:104800000846F1D010469847F0E73046FDF7C0FA69
:10481000FEF742BF404622AA07219847FFF7B9B9E1
:1048200003238DF88C30D9F8003011490F4A2291BA
:10483000249248461B6822AA07219847FFF791BA9D
:10484000350B0000809EFF1FAC98FF1F08A0FF1FC4
:104850009A99793F6666A64000007A4400A0FF1F3F
:104860006C98FF1FD34D621040420F00081E0200DB
:10487000181902006C1E0200489BFF1F3C9BFF1F83
:1048800000CA9A3B03238DF88C30D8F800309B493E
:104890009B4A2291249240461B6822AA07219847EE
:1048A000FFF790BB974F239322AA0A2148462493EF
:1048B0002297FDF727FF2B681393139BC9F80C3041
:1048C00009F27C4309F5836701934D4657F8043F8D
:1048D000002B00F02F8158689A6801680492D3F881
:1048E00000B08B6898473B68824658680368DB686D
:1048F00098473B68049AD3F81080B8F1630F81465B
:1049000004DD94F8F834002B00F01481C2F307237F
:1049100084F8232284F82432584616F0F1FC03462A
:104920004FEA136E020A000C594684F8253284F8C7
:10493000262284F827021A4684F828E27248049353
:104940000FF0CCFE504616F0DBFC049B024603F24F
:10495000292020440633002122FA01FE08312029B3
:1049600000F801EBF8D1694804335146184402EBD2
:10497000030A0FF0B3FE484616F0C2FC0AF22323E6
:104980008346234400222BFA02F10832202A03F83E
:10499000011BF8D15D4B0AF1040A494603EB0A00FA
:1049A0005A460FF09BFE0BEB0A0E0EF1040C04EBC3
:1049B0000E015FFA8CF9CCF307200022022309EBE9
:1049C000000B81F8243281F8232281F8252281F816
:1049D00026226FEA0B0B5FFA88F1FF234FF0FE0AE5
:1049E00048F30728BCF1FF3F84F820B284F81E92F8
:1049F00084F81F0284F81C3284F81DA284F8211266
:104A000084F822820BDB0EF22620414B284401E081
:104A100013F8011F83420A44FAD1D343DBB204EBFB
:104A20000C020CF1080CBCF5007F82F823321ADC72
:104A3000BCF1000F7EDD0EF2272EDFF8D880DFF804
:104A4000D8A005EB0E0903E011F054FBC84571D066
:104A5000626818F8011F13681B6853450846F3D0B5
:104A600010469847F2E7DFF898C0DFF8B0E0BCE8FE
:104A70000F00AEE80F00BCE80F00AEE80F00BCE886
:104A80000F00AEE80F009CE8030000234FF003087E
:104A90004FF0380CFF2285F8238285F824C24FF0AE
:104AA000FE084FF03D0C85F8253285F8263285F852
:104AB00027328EE80300C22085F81C220722AEF1BF
:104AC000370185F81F3285F822320EF1070E85F87E
:104AD0001D8285F81EC285F8200285F8212201E09A
:104AE00011F8012F8E451344FAD1DFF83480DB43EF
:104AF00084F8603208F14409FF2115E0181902001A
:104B0000081E0200E8180200499BFF1F439BFF1F7D
:104B1000419BFF1F3B9BFF1F350B0000489BFF1F66
:104B20003C9BFF1F18F8011F606803681B689847CB
:104B3000C845F7D1019B9F427FF4C8AEDFF8A4B20D
:104B400004961E4656F8040F002800F01D8190E8D8
:104B500008049D499A68D0F808908A4200F02181A3
:104B60009047804630680368DA6898498A4200F0C6
:104B70001E8190470746306803685B68944A9342F9
:104B800040F012818569632D04DD94F8F834002B20
:104B900000F0FA80CAF3072384F823A284F82432B1
:104BA000484616F0ADFB82464FEA1A63020A000C33
:104BB000494684F8283284F8262284F8270252468F
:104BC00084F825A283480FF089FD404616F098FB33
:104BD00002460AF2292020440AF10603002122FAA3
:104BE00001FE0831202900F801EBF8D1DFF8F89137
:104BF0000433414609EB030002EB03080FF06EFD9E
:104C0000384616F07DFB08F2232282462244002318
:104C10002AFA03F10833202B02F8011BF8D108F11E
:104C20000408394609EB08000AEB080752460FF062
:104C300055FD07F1040E5FFA8EF8CEF3072CE31949
:104C400008EB0C000022C043022183F8241283F8F1
:104C5000232283F8252283F82622FF21FE2384F8CD
:104C60002002BEF1FF3FE8B245F3072584F81D326C
:104C700084F81E8284F81FC284F81C1284F8210272
:104C800084F82252544BC0F2948007F22621194432
:104C900003F2212301E013F8010F99420244FAD1F3
:104CA000D343DBB204EB0E020EF1080EBEF5007F1B
:104CB00082F82332484D19DCBEF1000F64DD07F2A3
:104CC00027272F44DFF8248105F21B2503E011F08C
:104CD00011FAAF4258D0626815F8011F13681B68BB
:104CE00043450846F3D010469847F2E7DFF800E165
:104CF000BEE80F0005F50A770FC7BEE80F000FC723
:104D0000BEE80F000FC79EE8030000234FF0030C1E
:104D10004FF0380EFF2285F823C285F824E24FF0C9
:104D2000FE0C4FF03D0E85F8253285F8263285F8C9
:104D3000273287E80300C22085F81C220722A7F14A
:104D4000370185F81F3285F82232073785F81DC2F2
:104D500085F81EE285F8200285F8212201E011F88D
:104D6000012F8F421344FAD11C4DDB4384F860328B
:104D700005F14407FF2101E015F8011F6068036891
:104D80001B689847BD42F7D1B3457FF4DBAE049E64
:104D9000C4F8FC640123C4F8006584F8F834FEF715
:104DA000F8B8DFF85080DFE698470546EBE60C4F91
:104DB000E3E60B4676E710469847FEF716BA09F188
:104DC0001C019847FEF7BBB8790800008108000075
:104DD00075080000499BFF1F2099FF1F3C9BFF1F88
:104DE000B01D0200009EFF1F439BFF1F350B0000FC
:104DF000081E0200A01D02002DE9F04F8DB0D34A1D
:104E0000D34B06920022044600F5836500F27C46EF
:104E1000ADF81C200B92089309930A9355F8043FB0
:104E2000002B00F0D28058681F6801689A680897C4
:104E30008B68ADF81C2098472B6809905868036868
:104E4000DB689847236829680A904FF400721B6852
:104E5000D1F810800B92BF4A9342824640F0BD8148
:104E6000B8F1630F04DD94F8F834002B00F0AD8046
:104E7000BDF81C30DDF8209084F823321B0A84F83A
:104E80002432484616F03CFA07463B0E3A0C000A1C
:104E9000494684F8283284F8257284F8260284F87A
:104EA000272204F229203A460FF018FCDDF824B03E
:104EB000584616F025FA04F22329791D02460637D2
:104EC0004944002322FA03F00833202B01F8010F94
:104ED000F8D10437594609EB070017440FF0FEFBE1
:104EE000504616F00DFA09EB0702834600232BFA11
:104EF00003F10833202B02F8011BF8D10437514687
:104F000009EB07005A460FF0E9FB0BEB070E0EF119
:104F100004075FFA87FAC7F3072C09EB0E010AEBC7
:104F20000C000022C0434FF0020B09F80E20FF23B3
:104F30008A70CA7081F801B04FF0FE095FFA88F1FB
:104F400084F8200248F30728781C84F81EA284F80D
:104F50001FC284F81C3284F81D9284F8211284F850
:104F60002282C0F226820EF22620204404F221235F
:104F700001E013F8011F98420A44FAD1D243D2B299
:104F8000E11907F10803B3F5007F81F8232200F34C
:104F90004181002B04F5077717DD0EF10B0EDFF8CA
:104FA000CC91774404F21B2803E011F0A3F84745A5
:104FB0000BD0626818F8011F13681B684B45084640
:104FC000F3D0104698474745F3D1AE427FF426AF61
:104FD00004F59C6956F8040F002800F0F58003687A
:104FE0008268416808929A68ADF81C105A498A4252
:104FF00040F00B81594A0992DA6859498A4240F0D7
:10500000FF80584A21680A924FF400725B680D686D
:105010000B92554A934240F0F080D0F818804D4FE3
:10502000BD4240F0E280B8F1630F04DD94F8F8343B
:10503000002B00F0C980BDF81C30089D84F8233295
:105040001B0A84F82432284616F05AF982464FEAA1
:105050001A634FEA1A42000A294684F8283284F873
:1050600025A284F8260284F8272204F22920524639
:105070000FF034FB09990191084616F041F904F24A
:1050800023250AF10502019983460AF1060A2A44FA
:1050900000232BFA03F00833202B02F8010FF8D17C
:1050A0000AF1040A5A4605EB0A000FF017FB0A99A9
:1050B0000191084616F024F9D3440199824605EB84
:1050C0000B0200232AFA03F00833202B02F8010B0D
:1050D000F8D10BF1040B05EB0B0052460FF0FEFA72
:1050E0000AEB0B020B9BAB54111D15445FFA81FCBC
:1050F000C1F3072E4FEA132B4FEA134A0CEB0E00B5
:105100001B0E85F801B085F802A0EB70C0435FFA72
:1051100088F54FF0FF0B4FF0FE0A48F307284B1CB1
:1051200084F8200284F81EC284F81FE284F81CB2BE
:1051300084F81DA284F8215284F8228221DB02F235
:10514000262EA64404F22123002013E000190200B9
:10515000345102000527000079080000A01D02005C
:1051600081080000B01D020075080000350B00002A
:1051700013F8015F73452844FAD16FEA000B5FFA18
:105180008BFB63180831B1F5007F83F823B200F37D
:10519000AD80002904F5077716DD0B32DFF8388281
:1051A000174404F21B2503E010F0A4FFAF420BD01C
:1051B000626815F8011F13681B6843450846F3D061
:1051C00010469847AF42F3D1B1457FF403AF0123B6
:1051D00084F8F8340DB0BDE8F08F414606AA2046A9
:1051E0009847AE427FF41AAEF2E6414606AA204640
:1051F000A847B1457FF4EEAEE9E7984780460EE751
:105200009047024630680368FCE6904702463068E3
:105210000368F0E66D49039103226D492368059107
:105220008DF810201B686B498B4240F0C980684F95
:1052300084F823220023382207F1300884F824223E
:1052400084F8253284F8263284F8273204F50A7E61
:10525000BC46BCE80F00C445CEF80000CEF80410F0
:10526000CEF80820CEF80C3067460EF1100EEFD1C4
:1052700003CF0022CEF80000CEF804103D20C22358
:105280004FF0FF0CFE27072184F81E0284F820321D
:1052900084F81CC284F81D7284F81F2284F822222C
:1052A00084F8211204F2212304F25F2001E013F8B4
:1052B000011F98420A44FAD1D243DFF81C9184F8C6
:1052C000602204F21B2704F5187804E010F012FFA6
:1052D00047453FF47AAE626817F8011F13681B68F0
:1052E0004B450846F2D010469847F1E7374A0392FB
:1052F000374D2368059503228DF810201B68BB42AB
:1053000059D10023382184F8232205F1300C84F888
:10531000241284F8253284F8263284F8273204F5E2
:105320000A77AE46BEE80F00E64538607960BA609D
:10533000FB60754607F11007F3D103CD00223860FA
:1053400079603D20C2234FF0FF0EFE25072184F82F
:105350001E0284F8203284F81CE284F81D5284F87E
:105360001F2284F8222284F8211204F2212304F25D
:105370005F2001E013F8011F98420A44FAD1D2439A
:10538000DFF8548084F8602204F21B2504F51877B6
:1053900004E010F0AFFEBD423FF416AF626815F8AE
:1053A000011F13681B6843450846F2D01046984712
:1053B000F1E71A46E4E503AA07212046984703E7E8
:1053C00003AA072120469847FFE500BF18190200ED
:1053D000081E020005270000350B00002DE9F04FE4
:1053E000C54E93B033680693069DD0F8003542F65B
:1053F000F822EB1A934284BF002380F8F834D0F8E7
:10540000E434044633B1D0F80435AB423CBF00234A
:10541000C0F8E434B94FDFF8F8B2A26932B13368AA
:105420000793079B5B1B9A42C0F02E81606803685C
:105430005B69BB4270D110F073FD00286FDBD4F8BC
:10544000F434D4F8E4240344072AC4F8F43451D0E3
:1054500082B9FF2873D033680893089B41F28831E2
:105460005B1B8B42D9D984F8F8246FF0010013B08C
:10547000BDE8F08F012A6AD0022A00F0C980032A11
:1054800000F0D180042A00F0D880052A00F0E580E1
:10549000062A00F0EA80082ABFD1994A1A40002360
:1054A0009A42C4F8E434C0F26D81FF2AB5D1D4F831
:1054B000EC34002B00F0A3820A2B00F06982062B4B
:1054C00000F069810B2B00F06281BC3354F823009B
:1054D0000028A2D003688B4A1B68934240F08B825D
:1054E000237F0382617F426943EA012303820C30F8
:1054F000904792E7D4F8F034E2180133C4F8F0345E
:105500001077D4F8E834013BC4F8E834002B84D198
:105510000823C4F8E43480E7984700288FDA94F829
:10552000F8040028A3D0D4F8FC3440F6C412EB1AD7
:10553000934200F2AE80002013B0BDE8F08F01224C
:1055400005F11403C4F8E424C4F8043565E7FE2823
:105550007FD094F8F8240023C4F8E434002A7FF4C0
:105560005CAF694923680F911B68684910928B42B0
:10557000119240F00281FF210820F7234FF0FE0E28
:1055800084F81C120A2184F81E0284F8203284F860
:10559000232284F8242284F8252284F8262284F801
:1055A000272284F8282284F8292284F82A2284F8E1
:1055B0001F2284F8222284F81DE284F8211204F2CA
:1055C000212304F22A2001E013F8011F98420A4423
:1055D000FAD1D243DFF83C9184F82B2204F21B2845
:1055E00004F22B2A03E010F085FDC2450BD062685F
:1055F00018F8011F13681B684B450846F3D0104686
:105600009847C245F3D133680993099BE36004E7E7
:1056100000220323C4F8E804C4F8F404C4F8F02416
:10562000C4F8E434F9E6D4F8E83403EB00200423AA
:10563000C4F8E804C4F8E434EFE6314A1A40002A1A
:10564000C0F28880FF2A0CBF05230023C4F8E4348D
:10565000E3E60223C4F8E434DFE60623C4F8EC04EE
:10566000C4F8F404C4F8E434D7E6D4F8EC34D4F83D
:10567000E82403EB00230721C4F8EC34C4F8E41455
:10568000002A3FF445AFC8E66FF0010013B0BDE853
:10569000F08F1D4A23680F921B681C4900228B4221
:1056A000109211925BD1FF210820F723FE2784F886
:1056B0001C120A2184F81E0284F8203284F8232266
:1056C00084F8242284F8252284F8262284F82722CC
:1056D00084F8282284F8292284F82A2284F81F22B8
:1056E00084F8222284F81D7284F8211204F2212306
:1056F00004F22A2012E000BF70A3FF1F89080000F7
:10570000FF00008061080000E81802000527000083
:10571000D34D6210350B000013F8011F98420A4464
:10572000FAD1D243DFF83C8384F82B2204F21B2702
:1057300004F22B2903E010F0DDFCB94513D06268B8
:1057400017F8011F13681B6843450846F3D010463D
:105750009847F2E7013A62F0FF02013272E70FAABE
:105760000A212046984733680B930B9BC4F8FC54DE
:105770000020E36013B0BDE8F08F0FAA0A21204695
:10578000984740E7013A62F0FF0201328DE60023BC
:1057900084F8F83441E6D4F81C90D4F810359945D3
:1057A00004F11C0807D94FEA8901D4F8180515F04F
:1057B00057F9C4F81805C4F81095B9F1000F00F0B6
:1057C000398104F2145C424604214FF0000E9379B3
:1057D00092F8059010791B0443EA092392F8079088
:1057E000034343EA0963C4F81435D4F81835DCF8E8
:1057F000000043F82E00D4F810350EF1010E734569
:10580000084602F1040201F10401E0D8039100F11D
:105810000B0100F1090200F10803029100F10C01F3
:105820000192994600F1050E00F1060C00F1070AFD
:1058300000F10A02049118F80C00039918F80EE020
:1058400018F801C018F80AA0D4F81C15000440EAA2
:105850000E2040EA0C0C4CEA0A6A8A450BD94FEA42
:105860008A01D4F824050592039315F0F9F8059AF6
:10587000039BC4F82405C4F81CA5BAF1000F00F07E
:10588000D68004F5A46E08EB09020021937892F803
:1058900001C010781B0443EA0C2392F803C00343B1
:1058A00043EA0C63C4F82035D4F82435DEF8000050
:1058B00043F82100D4F81C3501318B42484602F1EF
:1058C000040209F10409E1D8421DC11D4B460192B1
:1058D0000291821D00F1080918F80200019A18F8D7
:1058E000033018F80210029A000418F802A0D4F845
:1058F000282540EA01210B4343EA0A6A924507D969
:105900004FEA8A01D4F8300515F0AAF8C4F830053A
:10591000C4F828A5BAF1000F36D000218E4604F253
:105920002C5000231A4608EB090A1AF801CB0CFA8E
:1059300003FC0833202B42EA0C02F6D109F1040CD7
:10594000624494450BD209F103034344E14609F153
:10595000010913F801AF03F801AC9145F7D308EB47
:1059600002030CF1FF3C03F801ECC444D4F83035D9
:10597000C4F82CC5D0F800C043F821C0D4F82835AD
:1059800001318B429146CCD8012384F8083544E597
:1059900033680C930C9BE16832682F480E92591AB9
:1059A000236A0E9AD4F81CE0ABFB01C94FEA99199F
:1059B0004FF47A7C1844294B0CFB191103FB0100AE
:1059C000ABFB02184FEA98180EF1FF3E0CFB1822B1
:1059D000CE44214603FB1203C8EB0E02226104F100
:1059E000100041F8143F00F0BBFF33680D930D9B8E
:1059F000C4F8003511E504F11C0198470DE5226853
:105A000017490F91109311930A21136820460FAA8A
:105A1000984733680A930A9BE3602046FFF7ECF946
:105A2000C4F8FC54C4F800554FF0FF301FE5DDF812
:105A3000109051E70C2209210823049201910B22B6
:105A40000421029299460A224FF0070A4FF0060CF1
:105A50004FF0050E0391EEE600CA9A3B40420F005C
:105A6000E8180200350B00002DE9F8430FF094F818
:105A7000B548B64DB64F00F067FEB64BB6490024A8
:105A8000002665225C709C7028468C601A705E60EF
:105A90009E60DE601E615E619E61DE611E625E620E
:105AA0009E62DE621E6300F0E5FF05F185006C6713
:105AB0002C67A5F87840A5F87A40A5F87C40A5F8B1
:105AC0007E40A5F88040A5F8824085F8844001F02A
:105AD0004FFD85F88C4085F88D4085F88E4085F81F
