:1000000000800020BD01000005F90000BDF80000DF
:10001000BDF80000BDF80000BDF80000BDF800000C
:10002000BDF80000BDF80000BDF8000005F90000B3
:1000300005F90000BDF80000C90E0100CD0F010058
:1000400005F9000005F9000005F9000005F90000B8
:1000500005F9000005F9000005F9000005F90000A8
:1000600005F9000005F9000005F9000005F9000098
:1000700005F9000005F9000005F9000005F9000088
:1000800005F9000005F9000005F9000005F9000078
:1000900005F9000005F9000005F9000005F9000068
:1000A000D5F20000E1F2000005F9000005F90000BA
:1000B00005F9000005F9000005F9000005F9000048
:1000C00005F9000005F9000005F9000005F9000038
:1000D00005F9000005F9000005F9000005F9000028
:1000E00005F9000005F9000005F9000005F9000018
:1000F00005F90000D113010005F9000019FF000007
:1001000005F90000FD14010005F9000005F90000E3
:1001100005F9000005F9000005F9000005F90000E7
:1001200005F9000005F9000005F9000005F90000D7
:1001300005F9000005F9000005F9000005F90000C7
:1001400005F9000005F9000005F9000005F90000B7
:1001500005F9000005F9000005F9000005F90000A7
:100160001DE400009501010005F9000005F90000FB
:1001700005F9000005F9000005F9000005F9000087
:1001800005F9000005F9000005F9000005F9000077
:1001900005F9000005F9000005F9000005F9000067
:1001A00005F9000005F9000005F9000005F9000057
:1001B00005F9000005F9000005F90000564B4CF266
:1001C000205210B51A804DF628121A8000BF00BFC9
:1001D0000FF09CFB514B4FF010621A60504A9A602E
:1001E000504ADA60504A136813F4807304D14F49BF
:1001F0000B604FF4A85313604D4B1A78110703D5C9
:100200001A7842F008021A704A4B4B492A221A7097
:100210004A4A4B4B8B4204D252F8040F43F8040B6A
:10022000F8E7484B484900228B4202D243F8042B9E
:10023000FAE74649464A002352F8230041F82300D2
:1002400001336F2BF8D1434B434A802103F8011B44
:100250009342FBD1414B3D4A1A60414B8A221A70AE
:10026000A3F5805324225A70A0221A709A7992071B
:10027000FCD59A79D406FCD43A4A937903F00C035E
:10028000082B384BF9D103221A7140225A719A79FE
:100290009006FCD5334A9179324B4906FBD5324A58
:1002A000324911600221516020221A709A7902F0BD
:1002B0000C020C2AFAD12E4B2E4A1A602E4B2F4AD2
:1002C0001A6000225A60072243F8042C2C4AC3F813
:1002D0000C2D62B60FF0F6FC144B1B68DA0705D53F
:1002E00028480FF053FC284B284A1A60284B1B78EB
:1002F0005B0609D5244C254B22689A4204D121483B
:100300000FF044FC0023236014F096FD0FF004FB73
:1003100010F064FEFEE700BF0E2005403080044070
:10032000823F04000100002B10D0034014D0034092
:1003300002D0074000E00740F897FF1F300302009B
:100340002087FF1FF897FF1F60A2FF1F0082FF1F7B
:100350000000000000E400E05FE400E008ED00E0E1
:100360000050064000400640448004400000030165
:1003700004800440C010050014E000E0FF76010096
:1003800000002020FE6AAE5A1CE00340A5C3945A28
:1003900000F00740FFFFFFFFFFFFFFFFFFFFFFFF32
:1003A000FFFFFFFFFFFFFFFFFFFFFFFFFFFFFFFF5D
:1003B000FFFFFFFFFFFFFFFFFFFFFFFFFFFFFFFF4D
:1003C000FFFFFFFFFFFFFFFFFFFFFFFFFFFFFFFF3D
:1003D000FFFFFFFFFFFFFFFFFFFFFFFFFFFFFFFF2D
:1003E000FFFFFFFFFFFFFFFFFFFFFFFFFFFFFFFF1D
:1003F000FFFFFFFFFFFFFFFFFFFFFFFFFFFFFFFF0D
:10040000FFFFFFFFFFFFFFFFFFFFFFFFDEF9FFFF23
:1004100010B5054C237833B9044B13B10448AFF33E
:1004200000800123237010BDF897FF1F000000001B
:100430002C030200084B10B51BB108490848AFF364
:1004400000800848036803B910BD074B002BFBD0A0
:10045000BDE81040184700BF00000000FC97FF1FD8
:100460002C030200F897FF1F00000000F8B5584C5D
:1004700040F6B83120460EF0B9FA204655494FF4FF
:10048000E1320EF08DFA204601210EF063FA60B1E0
:10049000606C5149036811225B68984720460A2125
:1004A0000EF0D4F920460EF079FA012200214848D6
:1004B0004A4F4B4E4B4D4C4C0EF060FB4FF4967137
:1004C0004A480EF07FF94FF47A7149480EF07AF9F4
:1004D000322148480EF076F94FF4FA634FF47A72FD
:1004E000142145480DF028FF40F2DC5142480DF040
:1004F00081FF424B15221A700A200FF0A3F8102337
:10050000184600213B600FF067FB0A200FF09AF8B5
:10051000381D64210EF056F90F2318460021336070
:100520000FF05AFB0A200FF08DF8301D64210EF0F9
:1005300049F90E23184600212B600FF04DFB0A20CD
:100540000FF080F8281D64210EF03CF92C4A0C2392
:100550001846022113600FF03FFB2A480EF092FB71
:100560004FF4247010F042FD2749054603F014FEB5
:100570001823EB612846656007F0D2FA0368206013
:100580001B69984723682149D3F88430204AA0602A
:100590000124196783F8A14083F8A24083F8A3409F
:1005A000204614700FF040FB20460FF03DFB44F650
:1005B00020600FF0F7FB20460FF036FB21460D20A0
:1005C0000FF00AFB21461348BDE8F8400EF0AEB824
:1005D000149FFF1F988DFF1F9CC40100F89AFF1FF6
:1005E000409AFF1F2C9AFF1FEC9AFF1F309BFF1FA2
:1005F0001C9BFF1F0C9BFF1F249AFF1F189AFF1FB5
:10060000509CFF1FD08BFF1FB0C401000AD7A33C32
:100610002C9BFF1F549CFF1FF0B5494E337883B0CD
:10062000032B58D8DFE803F05965480210F080FA30
:10063000431C50D0B768347B424DC0B20021CAB2CF
:10064000082312F0010F03F1FF3318BF624013F0CB
:10065000FF034FEA5202F4D10131B1F5807F05F872
:10066000012FECD1002F68D0374C19461A46615C37
:1006700001324B40D2B256FA83F397425B7B11466C
:10068000F5D898420FD130490A780023642A337094
:100690007360B36041D06A2A05D12C4B0A681B787D
:1006A0000192002B43D028484FF40072002103B080
:1006B000BDE8F04014F084BF10F03AFA421C2AD092
:1006C00072682149531C88547360B1681C4A99426E
:1006D00001DC0323137003B0F0BD10F065FA0028AD
:1006E000F9DD10F025FAC828F5D10123337003B0E5
:1006F000F0BD10F059FA002809DD10F019FAB060C9
:1007000001300F4BE7D002221A7003B0F0BD4FF05A
:10071000FF33B360DFE77368D7E702210C480EF0C0
:1007200005F80C490C4A01230B701370BBE7BDF8A8
:1007300006100A480DF05EFEB5E73B46A1E700BF94
:10074000409BFF1F4C9BFF1F1498FF1F149AFF1F15
:10075000549CFF1F159AFF1F749CFF1F249AFF1FB4
:10076000F0B583B0224800AF0EF04AF888B1214BB3
:100770001B7873B10223C822194638467B703A7041
:1007800010F03CFA02286D4606D01948AD460EF02E
:1007900029F80C37BD46F0BD174E344664230021BE
:1007A00014F80C0F3B717971CAB2082312F0010FD3
:1007B00003F1FF3318BF424013F0FF034FEA520228
:1007C000F4D10131B1F5807F04F8012FECD17B79B0
:1007D00096F87120534033440221381D5C7B10F0A1
:1007E0000DFA0228D1D1204610F08CFACDE700BFD7
:1007F000309BFF1F159AFF1F409BFF1F08B50E4837
:100800000DF0FEFF48B10D4B1A783AB100221A7074
:100810000948BDE808400DF0E5BF08BD084B094890
:100820001A7001210DF082FF074B034801221A7054
:10083000BDE808400DF0D6BF1C9BFF1F749CFF1F36
:10084000159AFF1F549CFF1FFC87FF1FFFFFFFFF30
:100850002DE9F043BE4EA7B0306800AF0268002318
:1008600000246821BB66FB66926987F865403B6798
:100870007B67BB67FB67C7F88030C7F88430C7F871
:100880008830C7F88C30C7F89030C7F8943087F8B4
:100890006410904750B33368D8699C69996BDA6BE0
:1008A0003867986DD3F840C0D3F848E0DD6CFC663B
:1008B000C7F880101C6DD96DC7F88420C7F88C006C
:1008C0001A6EA4485B69FC67C7F888C0C7F874E073
:1008D000BD67C7F89010C7F89420BB6601240DF0DF
:1008E0008FFF48B99C37BD46BDE8F0830446994860
:1008F0000DF086FF0028F5D0974D281D0DF080FFE4
:10090000002840F0BF81954D281D0DF079FF00288B
:1009100040F0A281924D281D0DF072FF002840F09A
:100920003381904B93F80080B8F1000F00F04881BC
:10093000DFF8509299F80030C3B133681A7922B9C0
:10094000D3F8803093F8253083B9C82205230221DB
:1009500007F108003A727B7210F050F90228E8465D
:1009600000F095830023C54689F80030002C40F044
:10097000D88000220023DFF8F091C7E90E23C7E9F1
:100980001023692100230022BB64C84687F8312068
:1009900087F85820FB643B657B6587F8301005E0DD
:1009A0000FF086FAC1B2704801F078F90FF070FAD2
:1009B0000028F5D16C4E99F86C3007F108003146EB
:1009C000002B74D007F1080501F076F90FCD06F180
:1009D00070040FC40FCD0FC495E8030044F8040B56
:1009E00098F891302180002BE0D098F89230002BBD
:1009F000DCD0306F13F0E8F953A3D3E9002313F0F0
:100A000049FAC7E90E01706F13F0DEF94EA3D3E97E
:100A1000002313F03FFAC7E91001B6F97A0013F08A
:100A20003BFE524913F08CFE0446B6F9780013F0F1
:100A300033FE0146204613F07BFDB864B6F97E0014
:100A400013F02AFE4A4913F07BFE0446B6F97C00F7
:100A500013F022FE0146204613F06AFDF864B6F951
:100A6000820013F019FE414913F06AFE0446B6F9FC
:100A7000800013F011FE0146204613F059FD386541
:100A800096F8840013F004FE96F88C407865C8222E
:100A9000302307F10800022187F858403A727B7230
:100AA00010F0ACF802286E4600F03A82B546314BA1
:100AB00018780EF0FBFDC822042304460221381DDD
:100AC0003A717B7110F09AF802286E4600F0158199
:100AD000294B2A4C1878B5460FF070F84FF4FA718C
:100AE000061C0546204618BF01260DF0C1FE204613
:100AF00000210DF02FFF002840F0EA801F4805215B
:100B00000DF0A4FE1D480DF01BFF002D40F0CF801E
:100B10001B4B1D700F480DF065FE9C37BD46BDE8B0
:100B2000F083C8223423022107F1300087F83020F7
:100B300087F8313010F062F802286E4600F03282F9
:100B4000B54616E7AFF30080000000A0F2D77A3E6A
:100B5000EC9AFF1F0C9BFF1FF89AFF1F409AFF1F84
:100B60002C9AFF1F2C9BFF1F549AFF1F0AD7233C70
:100B70006F12833A189AFF1F509CFF1F149FFF1F8C
:100B8000149AFF1FFC87FF1F28780EF08FFD814607
:100B9000281D0DF027FEC8220423022107F10800BA
:100BA0003A727B7210F02AF80228E84600F0688159
:100BB000C546D44B93F80080B8F1000F7FF4B8AE6F
:100BC000C8220523022107F108003A727B7210F057
:100BD00015F802286E46B3D1CB4D87F831802C46EC
:100BE0004FF06C0E3222682314F80C0F87F8348013
:100BF000414687F830E087F8322087F83330CAB2B0
:100C0000082312F0010F03F1FF3318BF424013F025
:100C1000FF034FEA5202F4D10131B1F5807F04F8AD
:100C2000012FECD107F130001C46024607F13401D8
:100C30006C2301E012F8013F63402B4491425C7B3E
:100C4000F8D105210FF0DAFF05287FF479AF2046AF
:100C500010F058F8B5468CE628780EF027FD81464E
:100C6000281D0DF0BFFDC8220423022107F1080052
:100C70003A727B720FF0C2FF0228E84600F0C08093
:100C8000C54647E628780EF011FD8146281D0DF077
:100C9000A9FDC8220423022107F108003A727B72E1
:100CA0000FF0ACFF0228E8466BD0C5462BE6C82201
:100CB0000323381D02213A717B710FF09FFF022838
:100CC0006C4600F0B181914B0122A5461A7021E7D4
:100CD000204601210DF0DEFD606C8D490368012284
:100CE0005B6898473146606C10F0FEF920460DF0C5
:100CF00017FE20460DF052FE00E76723A0B2002445
:100D00003B727C7213F0C8FC82497F4D13F018FDD2
:100D1000814913F00BFC814913F012FD13F0D6FE4C
:100D2000AE4678811EF80C0F2146CAB20823D407BC
:100D300003F1FF3348BF424013F0FF034FEA520272
:100D4000F5D10131B1F5807F0EF8012FEDD195F885
:100D50007400797ABB7AFC7A484028440421427BAB
:100D60005A402A4407F10800537B63401D446C7BC2
:100D70000FF044FF04287FF4ABAE20460FF0C2FF13
:100D8000A6E6614D87F83100AC4609EB8909662378
:100D90001CF80CEFA7F8329087F830300021CAB267
:100DA0000823D00703F1FF3348BF8EEA020213F095
:100DB000FF034FEA5202F4D10131B1F5807F0CF804
:100DC000012FECD195F8730097F8311097F8322085
:100DD00097F83330484028440421407B42402A445D
:100DE00007F13000527B53401D446D7B0FF006FF2E
:100DF00004287FF45AAF28460FF084FFC54682E5E9
:100E0000414DAC4609EB8909662201231CF80CEF21
:100E1000A7F8329087F8302087F831300021CAB225
:100E20000823D00703F1FF3348BF8EEA020213F014
:100E3000FF034FEA5202F4D10131B1F5807F0CF883
:100E4000012FECD195F8730097F8311097F8322004
:100E500097F83330484028440421407B42402A44DC
:100E600007F13000527B53401D446D7B0FF0C6FEEE
:100E700004287FF405AF28460FF044FFC54649E536
:100E8000214DAC4609EB8909662203231CF80CEFBF
:100E9000A7F8329087F8302087F831300021CAB2A5
:100EA0000823D00703F1FF3348BF8EEA020213F094
:100EB000FF034FEA5202F4D10131B1F5807F0CF803
:100EC000012FECD195F8733097F8310097F832C0C4
:100ED00097F833E0584028440421427B8CEA020210
:100EE0002A4407F13000537B8EEA03031D446D7BD7
:100EF0000FF084FE04287FF45BAE28460FF002FF5B
:100F0000C54656E62C9BFF1F409BFF1F149AFF1FF0
:100F1000BCC40100B1F4293AF4FDD43C00007A4489
:100F20008CB0EE466D4607F1300C07F16008644660
:100F30000FCC444528606960AA60EB60A44605F1C7
:100F40001005F4D1714D2C46002014F80C1FC2B2CC
:100F5000082312F0010F03F1FF3318BF4A4013F0CA
:100F6000FF034FEA5202F4D10130B0F5807F04F85C
:100F7000012FECD11C460EF1FF320EF12F0112F8B9
:100F8000013F63402B448A425C7BF8D1704630219C
:100F90000FF034FE30287FF489AD20460FF0B2FE0A
:100FA000B54684E58EB0EE466C4607F1640C07F159
:100FB000940865460FCD454520606160A260E360FE
:100FC000AC4604F11004F4D1504DDCF80000206070
:100FD0002C46002014F80C1FC2B2082312F0010F97
:100FE00003F1FF3318BF4A4013F0FF034FEA5202E8
:100FF000F4D10130B0F5807F04F8012FECD11C460C
:101000000EF1FF320EF1330112F8013F63402B4421
:101010008A425C7BF8D1704634210FF0EFFD342812
:101020003FF415AEB546A4E4384D2E466B233B7213
:101030000021012316F80C0F7972BB72CAB2082383
:1010400012F0010F03F1FF3318BF424013F0FF030A
:101050004FEA5202F4D10131B1F5807F06F8012F39
:10106000ECD17B7A95F87820B87A5A402A4403214B
:10107000537B43401D4407F108006D7B0FF0BEFD1C
:1010800003287FF420AE28460FF03CFE1BE61F4DE0
:101090002E466C23002187F830303422682316F85E
:1010A0000C0F87F8311087F8341087F8322087F852
:1010B0003330CAB2082312F0010F03F1FF3318BF17
:1010C000424013F0FF034FEA5202F4D10131B1F56F
:1010D000807F06F8012FECD107F130001E46024652
:1010E00007F134016C2301E012F8013F73402B44F7
:1010F0008A425E7BF8D105210FF080FD05287FF440
:1011000031AC30460FF0FEFD2CE400BF409BFF1FCA
:1011100010B50E4C0E480DF02FFBFFF77DFAFFF7D0
:101120006DFBFFF71DFB237833B940F2DC51094812
:10113000BDE810400DF05EB9FFF78AFB2378002B65
:10114000F3D0054B1B78002BEFD110BD159AFF1F74
:10115000549CFF1F249AFF1F149AFF1F38B50EF0EE
:1011600023FB2748274D0DF029FB27480DF026FBD0
:1011700026480DF023FB0D2125480DF0CDFA254B17
:101180002548912200241A731C705C609C600DF04D
:10119000AFF822480DF012FB21480DF00FFB21485B
:1011A0000DF00CFB204B28469C6000F083F805F105
:1011B00085006C672C67A5F87840A5F87A40A5F8FB
:1011C0007C40A5F87E40A5F88040A5F8824085F8CF
:1011D000844000F02BF885F88C4085F88E4085F827
:1011E0008F4085F8904085F8914085F8924085F8C9
:1011F000934085F8944085F8954085F88D4038BD3A
:10120000309BFF1F549AFF1F1C9BFF1F0C9BFF1F4F
:10121000549CFF1F409BFF1F249AFF1FFC9AFF1F37
:10122000449AFF1F309AFF1FEC9AFF1F00230122F0
:101230000721C17043708370037083710271427122
:10124000704700BF312921D041291FD0302915D046
:101250004E2913D0562911D032291BD0442919D038
:1012600033291FD0342921D0352917D0362901D070
:10127000452909D1012380F82D3002E0002380F8B0
:101280002D30012380F82E3000207047032380F892
:101290002D30F6E7042380F82D30F2E7052380F89F
:1012A0002D30EEE7072380F82D30EAE7062380F89B
:1012B0002D30E6E72DE9F0410446002500F1250731
:1012C00038466561256125836583A583E58325848B
:1012D000658484F8245004F12E06FFF7A7FF04F17B
:1012E000360884F82C5084F82D502A46334603F8EB
:1012F000012B43454FF00005F9D1A5646564A4F8BE
:101300004C50A4F84E50A4F85050A4F85250A4F8F1
:101310005450A4F8565084F8585004F15900FFF77F
:1013200085FF84F8605084F861502B4604F1620216
:1013300004F16A0102F8013B91424FF00005F9D136
:101340006560A560E5606561256125836583A5838A
:10135000E5832584658484F824503846FFF766FFCA
:1013600084F82C5084F82D5006F8015B46454FF068
:101370000003F9D184F841302046BDE8F08100BF78
:1013800030B490F86C20034652B1002280F86D20F2
:1013900090F86C200121013A80F83F1080F86C2011
:1013A00093F86E2093F82E10940069B1A11803EB06
:1013B000C10191F8620000287DD193F82D00A11899
:1013C00003EBC10181F8610093F82F1071B1A118EE
:1013D00003EBC10193F8290081F85D0093F82A001E
:1013E00081F85E0093F82B0081F85F0093F83010CD
:1013F00091B1A11803EBC10193F8270081F85B00BC
:1014000093F8260081F85A0093F8250081F85900D6
:1014100093F82C0081F8600093F8311041B103F18A
:101420001001A51803C903EBC505443585E8030081
:1014300093F8321021B1A11803EBC1019869C86477
:1014400093F8341021B1A11803EBC101186A486563
:1014500093F8331021B1A11803EBC101D8690865D5
:1014600093F83510F9B9224403EBC202623203F15A
:101470002E0003F1360510F8014B12F8011B8542CE
:1014800041EA040102F8011CF5D193F8402042B171
:10149000002283F86E2093F86C2012B9012283F8A1
:1014A0006C2030BC7047A11803EBC10193F82400F5
:1014B00081F85800D7E791F8611093F82D00814228
:1014C00082D27CE7017870B409B30139C9B2114EF8
:1014D00056F82140A45C9C4211D015D80131C9B204
:1014E000082911D00B4E03E0E9B20DD808290BD022
:1014F00056F82140A45C9C4201F10105F4D1013170
:10150000017070BC01207047002070BC7047024C15
:10151000E0E700BFE8C4010008C501002C290BD09A
:1015200090F83A20012A05D9023A0B46D2B2054971
:10153000FFF7C8BF012070470378002B0CBF0020C5
:1015400002207047C0C4010090F83A30082B0ED832
:10155000DFE803F005171F272F370D0F3F002C2959
:1015600005D0303901EB8101490080F827100120B6
:101570007047303901EB8101490080F82C100120BF
:10158000704790F82730303B194480F8271001202D
:101590007047303901EB8101490080F826100120A5
:1015A000704790F82630303B194480F8261001200F
:1015B0007047303901EB8101490080F82510012086
:1015C000704790F82530303B194480F825100120F1
:1015D000704790F82C30303B1944012380F82C10D0
:1015E00080F830300120704790F83A30052B0CD845
:1015F000DFE803F003182028300D2C2905D03039FE
:1016000001EB8101490080F829100120704790F812
:101610002B30303B1944012380F82B1080F82F30F9
:101620000120704790F82930303B194480F8291088
:1016300001207047303901EB8101490080F82A1000
:101640000120704790F82A30303B194480F82A1066
:1016500001207047303901EB8101490080F82B10DF
:101660000120704770B490F83A40E4B92D2A0CBFBD
:10167000012600264FF001050C804C8080F83B408D
:1016800080F83C6080F83D500AD02C2A47D02E2AA2
:101690003FD00B8803EB830302EB4302303A0A800E
:1016A000002070BC70472C2A14D02E2A31D090F81C
:1016B0003B40002CEDD0651CA34280F83B50EFD39B
:1016C0004B8803EB830302EB4302303A00204A804D
:1016D00070BC704790F83B2090F83C40FAB1B1F9EB
:1016E000022072B92CB14A880B8852425B424A8070
:1016F0000B80012070BC70474A8802EB82025200C6
:101700004A8090F83B20551C934280F83B50F3D21E
:10171000E8E7012380F83B3070BC002070470122CD
:1017200080F83B20DBE700BFF0B490F83A302BB9EB
:1017300001240B6080F83B3080F83D402E2A1AD0FF
:101740002C2A15D090F83B3053B10133DBB2062B75
:1017500080F83B3064D9072B40D00020F0BC7047A4
:101760000868303A42EA00120A601846F0BC704736
:1017700090F83B3003BB012380F83B304C788E78E7
:101780002509EB0004F00F0403EB45032344DBB20F
:101790000EBB0C7827097E0004F00F0506EBC7048A
:1017A0002C44E4B23C2515FB03432E2A0B60D4D015
:1017B0002C2AC7D190F83B30042B1FD0052B39D0F1
:1017C000062B06D041D8032B39D0022B3FD0012B5A
:1017D00043D00B6816E06433DBB2DAE70B68214CC8
:1017E00058000130A4FB0040382A03EB500314D802
:1017F000332A13D901330B600020B7E70A6864234A
:1018000003FB02F35A0017480132A0FB020203EB6C
:10181000520301200B60F0BC704702330B609CE761
:101820000B68303A03EB830302EB430300200B60A9
:10183000F0BC70470B6803EB83035B00E2E70A68C8
:101840004FF47A7303FB02F3DCE701208EE70A68AA
:1018500042F2107303FB02F3D4E70A68024B03FB66
:1018600002F3CFE7ABAAAAAAA08601002C2908B5EB
:101870000BD090F83E300BB9012008BD0A4600F1AC
:101880001401FFF751FF012008BD90F83A30002BFA
:10189000EFD180F83E30012008BD00BF38B590F888
:1018A0003930013B0446082B0DD8DFE803F013174D
:1018B0001F052E3243540F0090F83E501DB190F892
:1018C0003A30002B61D00125284638BDBDE83840AC
:1018D000FFF78ABEBDE83840FFF736BE90F83A30D1
:1018E000002BF0D1FFF7AEFC0125EDE790F83A3080
:1018F000002B41D090F83E50002DE4D00A462046FF
:1019000004F11001FFF710FFDEE7BDE83840FFF7F4
:10191000ADBF90F83E50002DD5D090F83A30002B56
:10192000D1D10123572980F83130CCD143695B42B2
:101930004361C9E70A46032300F11C01FFF792FE49
:1019400005460028BFD094F83A30003318BF012371
:1019500084F83330B8E70A46022300F12001FFF78C
:1019600081FE05460028AED094F83A30003318BF07
:10197000012384F83430A7E7B1F12C0518BF012505
:1019800080F83E50002D9ED0B8E753299BD10369C3
:101990005B42036198E700BF38B590F83930013BEE
:1019A0000446082B0BD8DFE803F01D21303E42052A
:1019B0000D0A530090F83A300BB9FFF743FC0125AC
:1019C000284638BD90F83A30002280F83C20002BA1
:1019D0004FD12C29F3D0303980F82410012584F818
:1019E0003550EDE7BDE83840FFF7AEBD90F83A302E
:1019F000002B4AD090F83E50002DE0D00A462046F9
:101A000004F11001FFF790FEDAE790F83E50002D48
:101A1000D5D090F83A30002BD1D15329CFD10369DA
:101A20005B420361CCE7BDE83840FFF71FBF90F889
:101A30003E50002DC3D090F83A30002BBFD1012387
:101A4000572980F83130BAD143695B424361B7E727
:101A50000A46022300F11801FFF704FE054600289C
:101A6000ADD094F83A30003318BF012384F83230F7
:101A7000A6E72C29B2D090F82430303903EB830349
:101A800001EB430180F82410A8E7B1F12C0518BF41
:101A9000012580F83E50002D91D0AFE70378012B4F
:101AA00005D0062B01D1FFF7F9BE01207047FFF7E3
:101AB00073BF00BF90F83D3010B5044653B190F8A5
:101AC0003A300022013380F83A3080F83D202C2152
:101AD000FFF7E4FF23786268A3F10603B3FA83F308
:101AE00001325B090021626084F8403084F84110C3
:101AF00010BD00BF38B5C468242904F101040346B1
:101B0000C4600DD090F84130022B0D46044619D028
:101B1000012B2ED0032B3ED04BBB0370184638BD93
:101B200090F8402012B1002280F8402000220120CD
:101B300083F8382083F83A201A7083F83D2083F820
:101B4000410038BD2A295CD0A1F120035E2B75D954
:101B500000F12E0300F13601002203F8012B8B4225
:101B60004FF00000F9D1207084F8410038BD012009
:101B700038BD90F8383081EA030280F83820FFF74A
:101B8000CDFC012874D0022843D00023237084F8B0
:101B90004130012038BD41F02002A2F16103052B44
:101BA00090F83A3094BF573A303AD2B2F3B990F83D
:101BB00038100123B2EB111F80F83A3014BF1D46D4
:101BC00000251846002DD3D0A3680133A36004F18B
:101BD000360504F12E03002103F8011BAB424FF040
:101BE0000002F9D1227084F8412038BD90F83830D5
:101BF00003F00F03934214BF012500253ED00120BE
:101C0000E0E70023032280F83A3080F841200120E9
:101C100038BD04F12E0304F13600002103F8011B46
:101C200083424FF00002F9D10123022184F83A20C7
:101C300084F83930184684F8411038BD90F83830AF
:101C40004B4080F83830FFF729FF40B904F12E03EC
:101C500004F1360203F8010B9342FBD195E72C2DDA
:101C600010D094F83A30013384F83A30012038BD6E
:101C700094F83A30013384F83A3038BDFFF71AFF50
:101C800002209FE794F839300022013384F839307C
:101C900084F83A2084F83D20012038BD38B5054647
:101CA000FFF728FF0228044601D0204638BD284609
:101CB000FFF766FB204638BD2DE9F84F00250E469C
:101CC000044645600560058145818581C5810582A1
:101CD000458205751530FFF7A9FA96F86C3025771F
:101CE0006577A577E57784F8205084F8215084F84B
:101CF000225084F8235084F8245084F8255013B9D6
:101D00002046BDE8F88F96F86D504FEA850909EB3B
:101D1000050E06EBCE0E0EF1400E013B0EF1040C4B
:101D200086F86C3067460EF1240BA0463868796857
:101D3000BA68FB68C246AAE80F0010375F45D04674
:101D4000F4D14D443868CAF80000ED0006EB0509EF
:101D5000BB88AAF8043000274846CCF804705930F4
:101D6000CEF80470ACF80870ACF80A70ACF80C70DF
:101D7000ACF80E70ACF81070ACF8127089F85870AE
:101D8000FFF754FA05F15802324402F10A0389F8C8
:101D9000607089F861703946123203F8011B9A426B
:101DA0004FF00000F9D186F86D002046BDE8F88FAD
:101DB0002DE9F04FDFF800918BB0D9F8004007947F
:101DC000BDF8506004900591DDF81CA00192002A36
:101DD0006ED01F461F2A4FEA40034FF00008C8BFCD
:101DE0002022DBB2334D0392029344464FF0010BA5
:101DF0009DF8083005992F4885F83B3085F85EB08E
:101E000085F85DB00CF02AFF01212A480DF0CAF8D0
:101E1000019B0499274885F85EB0C8EB03021F2A8E
:101E20009DF8083085F83B30D4BFD2B22022012380
:101E300085F85DB00DF040F995F8392095F8383007
:101E400093420AD11BE0FF220A7095F8392095F8D9
:101E5000383001349A4264B211D039193EB1D9F800
:101E6000000008900898CAEB0000B04207D29342E5
:101E7000E9D2EA180133127E85F83830E4E7039B93
:101E80009844019B5FFA88F89845B1D366B1D9F8B8
:101E900000300993099BCAEB030AB24504D3019BA6
:101EA0009C42B8BF4FF0FF3420460BB0BDE8F08F26
:101EB000019CEBE7D08BFF1F689FFF1FF8B5114E09
:101EC00047001546304601221C4686F83B7086F8CE
:101ED0005E2086F85D200CF0C1FE55B1013D54FA3C
:101EE00085F5013C14F8011F06480CF0B7FEAC4222
:101EF000F8D1012103480DF055F8B0FA80F04009FF
:101F0000F8BD00BFD08BFF1F00B583B002AB03F854
:101F1000012D0122FFF7D2FF03B05DF804FB00BFE3
:101F200000207047704700BF704700BF704700BF78
:101F300010B5B02104460FF05BF8204610BD00BF7D
:101F4000224B10B5044640F8043B04F0D9FF04F1DD
:101F5000100004F0D5FF04F11C0004F0D1FF04F1DF
:101F6000280005F087F804F1380004F0C9FF04F1F7
:101F7000440005F07FF804F1540004F0C1FF04F1BF
:101F8000600005F077F804F1740005F073F804F1CF
:101F9000840005F06FF804F1940004F0B1FF002311
:101FA00000224FF07E500A4984F8A0300123E066F9
:101FB000216784F8A53084F8A13084F8A23084F831
:101FC000A33022666266A266204610BD18C50100D5
:101FD0000AD7A33C2DE9F04F95B0064668461F4648
:101FE0000C46154605F046F804A805F043F896F8A7
:101FF000A23006F13809002B3DD02046494604F0B6
:10200000D7FF96F8A3301BB196F8A430002B57D118
:10201000F36D336406F1280A5046494605F0E8F9A5
:10202000444F06F1240B00254FF0FF385BF8044FB6
:1020300024F000442046394612F03EFD08B1274600
:10204000A8460135042DF1D106EB88080021D8F807
:102050002840204612F012FDA8B92046002112F0B7
:102060002BFD28B1D8F84400002112F007FD88B9F3
:1020700015B0BDE8F08F484606F1540104F046FF64
:1020800000233364BDE70021D8F8440012F014FDAA
:102090000028E2D006F128000FC800F1004501F148
:1020A000004402F1004203F1004349465046B56244
:1020B000F4623263736305F015F915B0BDE8F08F73
:1020C000494604A805F094F92A686968019200233A
:1020D0006A4608A800930291AB68039304A905F02F
:1020E00093F804A90CA805F01BFA0CAA08A910A8DB
:1020F00005F08AF810A9684604F0C2FF019811F0B3
:1021000075FE04460D46029811F070FE22462B46DD
:102110000FF0E6FB0546384601F1004411F066FE7B
:1021200002460B462846214611F000FD12F0AAF99E
:1021300030646FE700007AC40120704710B5034B8C
:1021400003600446FFF7F2FE204610BD34C50100CF
:1021500010B5064B03600446FFF7E8FE20464FF437
:1021600038710EF045FF204610BD00BF34C5010098
:1021700070B5012384B0044680F8A53000F1540501
:1021800001A804F0BDFE01A9284604F0BFFE2946BF
:1021900004F1440005F02CF901A804F0B1FE01A9F6
:1021A00004F1B00004F0B2FE01A804F0A9FE01A9F8
:1021B00004F1100004F0AAFE01A804F0A1FE01A998
:1021C00004F11C0004F0A2FE04F1380601A804F09A
:1021D00097FE01A9304604F099FE0025314604F12E
:1021E000280005F005F904F52870294605F0CCF91A
:1021F000294604F5F07005F0C7F90A4A0A4BC4F8FD
:10220000E021C4F8F421C4F80822C4F81C22C4F860
:10221000A032C4F8B432C4F8C832C4F8DC3204B016
:1022200070BD00BF6F12833A6F12033A10B50446B7
:10223000FFF786FE2046194B40F8B03B04F060FEE5
:1022400004F1C00004F016FF04F1D00004F012FF06
:1022500004F1E00005F076F904F5907005F072F9EC
:1022600004F5B07005F06EF904F5D07005F06AF968
:1022700004F5F07005F066F904F5087005F062F9F0
:1022800004F5187005F05EF904F5287005F05AF9A8
:102290002046FFF76DFF204610BD00BF34C501008A
:1022A0002DE9F041A4B0044604A805F04BF96846B6
:1022B00004F0E0FED4F8B0004FF07C5112F040FA88
:1022C0004FF07C510746D4F8B40012F039FA4FF0C1
:1022D0007C510546D4F8B80012F032FA04F50876BD
:1022E00005F1004307F1004200F10041C4F8283233
:1022F000C4F83C32C4F82422C4F85822C4F830721E
:10230000C4F83802C4F84052C4F84C72C4F8500201
:10231000C4F82C12C4F84412C4F85452314604F5DF
:10232000187814A805F0BEFA04F1C00514A94046B7
:1023300005F014F92A46314614A805F013FA14A939
:10234000684604F09DFED4F8BC10684604F044FFD3
:1023500004F5B0776946284604F09EFE04F5D07572
:102360003A46314614A805F091F914A9284605F01B
:10237000F5F84246394614A805F088F914A904A8CE
:1023800005F0ECF804A9284605F008F904F5907664
:1023900004F5F072294614A805F04EF914A9304648
:1023A00005F0DCF83046D4F8BC1005F02FF924B065
:1023B000BDE8F0812DE9F043B5B00446684604F06D
:1023C00059FE04A805F0BEF814A805F0BBF894F86F
:1023D000A3301BB994F8A230002B52D024AD04F1E5
:1023E000C008284604F12801424604F1D00904F04F
:1023F00017FF2946484604F043FE04F5907604F59D
:1024000028723146284605F017F9294604A805F038
:10241000A5F804A9284605F027FB294614A805F0CD
:102420009DF804F1E00714AA3146284605F02EF97C
:102430002946384605F092F84A463946284605F0BE
:1024400091F92946684604F01BFE6946404604F0AF
:1024500023FE04F5B074404604F0F6FE204605F075
:102460000FFA3946204605F0B5F83246214628468F
:1024700005F00CF92946204605F070F835B0BDE8A6
:10248000F08324AD284604F1D00904F0F3FD294679
:10249000484604F0F5FD04F1C008AEE72DE9F04729
:1024A00090F8A13084B004460D469246002B5BD0D4
:1024B0003031B03004F02AFD04F1100805F1400677
:1024C0003146404604F11C0905F1500704F01EFD99
:1024D0004846394604F01AFD94F8A53095F84C208A
:1024E00084F8A420002B48D1D5E90089D4E92A0139
:1024F000B8EB000069EB010112F0DCF83D4912F085
:10250000D3F9C4E92A89C4F8BC00002112F0C0FA4A
:1025100038BB3A463146DAF874302046FFF75AFDA8
:102520002046FFF7BDFE04F1C008204604F1540721
:10253000FFF740FF04F144064046394604F0D2FE5E
:102540004146304604F09CFD012339462B722B7620
:1025500005F10C0004F0DAFC314605F11C0004F032
:102560008FFD04B0BDE8F08701A804F0C9FC01A903
:1025700004F1B00004F0CAFC9EE7D5E90067DAF880
:1025800074304A4641462046C4E92A67FFF722FDD7
:10259000002104F5087004F0F7FF002104F5B07085
:1025A00004F0F2FF4FF07C52234604F14001C3F8DF
:1025B0006021C3F86421C3F86821C3F86C2110338B
:1025C0008B42F4D104F1C00904F138084846414671
:1025D00004F1440604F00CFF04F154074946304668
:1025E00004F04EFD4146384604F090FC002384F888
:1025F000A530A9E7002474490DF0D6B80220704731
:1026000010B5034B03600446FFF790FC204610BD55
:1026100050C5010010B5054B03600446FFF786FC6A
:102620002046E8210EF0E4FC204610BD50C5010014
:1026300030B5012385B080F8A530044600F154057B
:1026400001A804F05DFC01A9284604F05FFC2946BE
:1026500004F1440004F0CCFE01A804F051FC01A9EF
:1026600004F1B00004F052FC01A804F049FC01A9F7
:1026700004F1100004F04AFC01A804F041FC01A997
:1026800004F11C0004F042FC04F1380501A804F038
:1026900037FC01A9284604F039FC294604F128003A
:1026A00004F0A6FE0023C4F8E03005B030BD00BF42
:1026B0002DE9F04F044683B0D4F8CC30D0F8B00008
:1026C00000934FF07C5112F03BF84FF07C510746DD
:1026D000D4F8B400D4F8C480D4F8C860D4F8C0A04A
:1026E00012F02EF84FF07C518146D4F8B80012F069
:1026F00027F84146834607F1004012F021F8494689
:102700000546304612F01CF80146284611F00EFF2F
:1027100059460546009812F013F801462846D4F8A9
:10272000BC5011F003FF294612F00AF8514611F08F
:10273000FFFE3946C4F8C000504612F001F8594671
:102740000190304611F0FCFF019A0146104611F04D
:10275000EFFE49460190009811F0F2FF019A014600
:10276000104611F0E3FE294611F0EAFF414611F050
:10277000DFFE4946C4F8C400504611F0E1FF594657
:102780000190404611F0DCFF019A0146104611F01D
:10279000CDFE39460190009811F0D2FF019A014612
:1027A000104611F0C5FE294611F0CAFF314611F05E
:1027B000BFFE5946C4F8C800504611F0C1FF494653
:1027C0008246404611F0BCFF0146504611F0B0FE73
:1027D00039468046304611F0B3FF0146404611F0BD
:1027E000A5FE294611F0ACFF009911F0A1FEC4F836
:1027F000CC0004F1C00003B0BDE8F04F04F024BDEC
:1028000010B50446FFF79CFB2046094B40F8B03B4F
:1028100004F076FB04F1C00004F02CFC04F1D000BD
:1028200004F028FC2046FFF703FF204610BD00BF40
:1028300050C501002DE9704390F8A33088B01BB952
:1028400090F8A230002B63D000F1C0050446294661
:10285000684604F065FE04F1740604F12802694636
:1028600004A804F0D1FC04A9304604F009FC304669
:1028700004F0EAFC606F11F0B9FA0EF081FF11F07C
:1028800001FE216F11F05CFF11F0B0FA804689461D
:102890000EF032FF11F0F6FD4946064640460EF0B6
:1028A000E1FEE26FD4F88030C4F898208946A16F29
:1028B000C4F89C308046C4F8941004F1940004F0ED
:1028C00041FB4946404611F0DDFD3146C4F8840025
:1028D000D4F8940011F034FF3146C4F88800D4F8DD
:1028E000980011F02DFF3146C4F88C00D4F89C00FC
:1028F00011F026FF04F18406C4F89000304604F07D
:10290000A3FC3146284604F0D9FB284604F09CFC81
:1029100008B0BDE8708300BF2DE9F047D0F8E03083
:102920000D4690F8A110013384B004469246C0F8D9
:10293000E03000295CD005F13001B03004F0E6FA57
:1029400004F1100605F140084146304604F11C0729
:1029500005F1500904F0DAFA3846494604F0D6FA8F
:1029600094F8A53095F84C2084F8A420002B48D189
:10297000D5E90067D4E92A01301A67EB010111F0AB
:1029800099FE334911F090FFC4E92A67C4F8BC00EE
:10299000002112F07DF840BBDAF874304A46414617
:1029A0002046FFF717FB94F8A130002B4CD12046AE
:1029B00004F1C00804F15407FFF73CFF04F144069A
:1029C0004046394604F08EFC4146304604F058FB40
:1029D000012339462B722B7605F10C0004F096FA90
:1029E000314605F11C0004F04BFB04B0BDE8F08754
:1029F00001A804F085FA01A904F1B00004F086FAF8
:102A00009EE7D5E90089DAF874303A463146C4E9E0
:102A10002A89204604F1C00904F13808FFF7DAFAE0
:102A200004F144064846414604F0E2FC04F1540730
:102A30004946304604F024FB4146384604F066FA25
:102A4000002384F8A530C3E72046FFF731FEAEE748
:102A5000002474490CF0A8BE704700BF10B51021C7
:102A600004460EF0C5FA204610BD00BF0249034AD5
:102A70000160C260704700BF6CC5010001100138E1
:102A800070B504790CB1012070BD05460E480BF0FD
:102A9000E1FD0121E8790DF09FF8AE680B490C4883
:102AA00002E0172A08D0144631F8023F90FBF3F3F6
:102AB0009E4204F10102F4D3064B53F8243043F054
:102AC0006053EB60012070BD988BFF1F96F80100EA
:102AD000006CDC02C8F8010001480BF0F9BD00BF32
:102AE000988BFF1FF0B505460846297983B0174635
:102AF0001C4661B10A23114600932246089BFFF74A
:102B000057F9001BB0FA80F0400903B0F0BD384E11
:102B1000EA68F37A1BB372B6F37AD807194609D577
:102B2000DFF8E8E0F068DEF800100140B161CEF8AF
:102B300000101946980709D5DFF8D4E03069DEF8AF
:102B40000030F17A0340F361CEF800304B0705D531
:102B5000284973690868034033620B6062B63368C2
:102B6000D968914207D0244818602449DA6042F0BD
:102B70008040186119600021E8790DF019F831687A
:102B800047F080074FF00043CB624F63CB6A002BC6
:102B9000FCDA8B6B84B1089A4FF0004710190024BF
:102BA000CF624C63CB6A002BFCDA8B6B02F8013BE3
:102BB000824201D03168F3E70121E8790CF0F8FF97
:102BC000F37A0B491A4683B1D80703D50C4A8969B1
:102BD00011601A46990703D50A4BF169F27A196018
:102BE000530702D5084B326A1A60012003B0F0BDCA
:102BF000988BFF1F88E100E001403F0000003F800C
:102C000000E100E004E100E008E100E080E100E034
:102C100084E100E0F8B505460846297917461C46C8
:102C200051B11A463946069BFFF748F90446002879
:102C30006DD001242046F8BD3A4EEA68F37A1BB302
:102C400072B6F37AD807194609D5DFF8FCE0F068C8
:102C5000DEF800100140B161CEF800101946980767
:102C600009D5DFF8E8E03069DEF80030F17A03409A
:102C7000F361CEF800304B0705D52B49736908681E
:102C8000034033620B6062B63368D968914207D063
:102C9000264818602649DA6042F0804018611960C1
:102CA0000021E8790CF084FF31684FF00043CB62DB
:102CB0004F63C86A0028FCDA8B6B6CB10698021966
:102CC0004FF0004410F8013BCC624B63CB6A002B01
:102CD000FCDA82428B6BF5D10121E8790CF068FFB8
:102CE000F37A10491A46002BA3D0D80703D5114A0E
:102CF000896911601A46990703D50F4BF169F27A79
:102D00001960530795D50D4B326A1A6091E7079BFE
:102D10001B78002B8ED0079A09490A480EF096F9C5
:102D200088E700BF988BFF1F88E100E001403F006B
:102D300000003F8000E100E004E100E008E100E085
:102D400074C50100988DFF1F80E100E084E100E080
:102D5000F8B505460846297917461E4681B11A4638
:102D60003946FFF7D1F8044600286BD1069B1B7843
:102D7000002B68D0069A354935480EF067F962E0B5
:102D8000344CEB68E27A1AB372B6E27AD007114695
:102D900009D5DFF8DCE0E068DEF800100140A16151
:102DA000CEF800101146900709D5DFF8C8E0206979
:102DB000DEF80020E17A0240E261CEF800204A0706
:102DC00005D5254962690868024022620A6062B638
:102DD0002168CA689A4207D020480860204ACB6020
:102DE00043F0804008610A600021E8790CF0E0FEC1
:102DF00021684FF00043CB624F63C86A0028FCDAB9
:102E00004FF000438A6BCB624E63CB6A002BFCDA37
:102E10008B6BE87901210CF0CBFEE37A0D491A4661
:102E200083B1D80703D50F4A896911601A469907FB
:102E300003D50D4BE169E27A1960530702D50B4BBC
:102E4000226A1A6001242046F8BD00BF74C5010043
:102E5000988DFF1F988BFF1F88E100E001403F0025
:102E600000003F8000E100E004E100E008E100E054
:102E700080E100E084E100E008460CF0D5BE00BF30
:102E80000CF092BC10B5064B0360044600F51B70B5
:102E900009F01AFE2046FFF7DFFD204610BD00BFF7
:102EA000D8DF010010B5084B0360044600F51B7025
:102EB00009F00AFE2046FFF7CFFD20464FF42471AB
:102EC0000EF096F8204610BDD8DF010038B5044654
:102ED00008460D4612F0F4FF2368024629465B6857
:102EE00020469847054620460EF098F8284438BDFD
:102EF0002DE9F04F4FF0010885B080F804800446BA
:102F00008B4691469A46FFF7BBFD002800F0AA8049
:102F1000BF4E01960DF10E070097434675226821BA
:102F20002046FFF7DFFD054638B19DF80E30712BC6
:102F300000F0BE80682B00F0C4800196009701234A
:102F4000752269212046FFF7CDFD054638B19DF871
:102F50000E30712B00F0BD80682B00F0C7800F226F
:102F60000196009701236A212046FFF7BBFDA84A7E
:102F7000054638B19DF80E30D72B00F01C81D42BBC
:102F800000F0C9800F220196009701236B21204693
:102F9000FFF7A8FD9E4A054638B19DF80E30D72BA5
:102FA00000F03C81D42B00F0D980019600970123DA
:102FB0000F226A212046FFF795FD054620B19DF8B6
:102FC0000E30D42B00F09D800196009701230F2234
:102FD0006B212046FFF786FD054620B19DF80E3097
:102FE000D42B00F0E680019600970123002268218F
:102FF0002046FFF777FD054620B19DF80E300F2BD8
:1030000000F03981019600970123002269212046B2
:10301000FFF768FD054620B19DF80E300F2B00F03C
:103020003481019600970123002228212046FFF7D2
:1030300059FD054620B19DF80E30A02B00F02781E8
:10304000019600970123002229212046FFF74AFD1F
:10305000054620B19DF80E30A02B00F022812046BD
:10306000FFF73AFD002609232671A671E371204679
:10307000FFF706FD98B1664B01930DF10E03009327
:103080007522012368212046FFF72CFD054618B163
:103090009DF80E30712B2BD02046FFF71DFD5D49AA
:1030A0005D480DF0D3FF0025284605B0BDE8F08F40
:1030B00006226823CBF800208AF8003089F80080C7
:1030C000F2E70222CBF800208AF8003089F800806D
:1030D000EAE70621692201232846CBF800108AF886
:1030E000002089F8003005B0BDE8F08F0221F1E73B
:1030F00006226823CBF800208AF8003089F80060A7
:10310000D2E704216A220123CBF800108AF80020BC
:1031100089F80030C8E70DF10F080192CDF8008062
:1031200001230F221E212046FFF7DCFC18B19DF879
:103130000F30492B10D00196CDF8008001230F22CB
:103140001D212046FFF7CEFC00283FF41BAF9DF861
:103150000F30492B7FF416AF0521D3E70DF10F088F
:103160000192CDF8008001230F221D212046FFF798
:10317000B9FC18B19DF80F30492B10D00196CDF84D
:10318000008001230F221E212046FFF7ABFC002800
:103190003FF40BAF9DF80F30492B7FF406AF0521AC
:1031A0006B220123CBF800108AF8002089F8003048
:1031B0007AE70421F4E70DF10F080192CDF80080C1
:1031C00001230F221E212046FFF78CFC18B19DF829
:1031D0000F30492B6FD00196CDF8008001230F22CC
:1031E0001D212046FFF77EFC18B19DF80F30492BBA
:1031F00061D00196CDF800800123272219212046B5
:10320000FFF770FC054600283FF4BCAE072179E7C4
:10321000ECF901008CC50100988DFF1F0DF10F081E
:103220000192CDF8008001230F221D212046FFF7D7
:1032300059FC18B19DF80F30492B3ED00196CDF8BE
:10324000008001230F221E212046FFF74BFC18B1FE
:103250009DF80F30492B30D00196CDF80080012326
:10326000272219212046FFF73DFC054600283FF4A0
:103270009CAE072194E7082168220123CBF80010B7
:103280008AF8002089F800300EE7082122E709219A
:1032900028220123CBF800108AF8002089F800309A
:1032A00002E7092129220123CBF800108AF8002027
:1032B00089F80030F8E6032124E7032170E700BF16
:1032C000F0B40922494BC271192432225021282717
:1032D00000254FF07E568360C0F8A4200023012211
:1032E000C0F8A840C0F8B81002240421C0F8BC708F
:1032F0001027446145658565C56545668566C56673
:1033000045670665032506660667C0F8B0700526A2
:10331000036103768371C361036280F8243080F80F
:10332000253080F8403080F8783080F89430027191
:103330004271C0F8AC10C0F8B470C0F8C870C0F8E2
:10334000CC700727C0F8C050C0F8C450C0F8D040B7
:10335000C0F8E450C0F8E850C0F80841C0F8144183
:10336000C0F82841C0F8E060C0F80C61C0F8D42073
:10337000C0F8D810C0F8DC20C0F8EC10C0F8F0306D
:10338000C0F8F430C0F8F820C0F8FC10C0F80021F4
:10339000C0F80411C0F81021C0F81821C0F81C11A1
:1033A000C0F82021C0F82411C0F83021C0F8343111
:1033B000C0F83821C0F83C11C0F84021C0F82C6199
:1033C000C0F84461C0F84851C0F84C51C0F85C41A5
:1033D000C0F86051C0F86441C0F85871C0F850118D
:1033E000C0F85431C0F86821F0BC704720A1070034
:1033F000C1EBC10170B58D000024284694701646BB
:103400000CF01AFAFC2801D0204670BD681C0CF0A4
:1034100013FA1528F8D13446AD1B1C3628190CF0C8
:103420000BFA04F8010BB442F8D1012070BD00BFC3
:103430000CF0BAB92DE9F041ADF5187D074600F55D
:10344000B672012366A89E4909F078FC98AA9DF8F7
:103450009C0112F8BC3D689987F8700287F87832B1
:10346000C7F8741207F51B7607F2792307F2862056
:1034700012F8011F03F8011B8342F9D16D9BC7F8B5
:103480008832304609F030FB804666A809F01CFB04
:10349000B8F1000F49D00DF10705002406E00D2812
:1034A00014D00A2812D00134C82C39D0304609F083
:1034B00095FAC0B2FF2805F8010FF0D1304609F0A7
:1034C00005FB40460DF5187DBDE8F08102AD0023F7
:1034D0002B552B78232BDED013F0DF0FDBD034AA53
:1034E00066AB7849284612F0E5FA02287CD1764985
:1034F00034A812F079FB10B3744934A812F074FBAD
:10350000002862D0724934A812F06EFBE0B971490C
:1035100066A812F069FBB0FA80F040093871BAE78A
:1035200002AD002385F8C730D3E73B683846DB6837
:103530009847804640460DF5187DBDE8F08166A8A5
:1035400011F070FC3861A6E7634934A812F04CFB17
:1035500000283FD0614934A812F046FB00283ED035
:103560005F4934A812F040FB002848D05D4934A8D8
:1035700012F03AFB002847D05B4934A812F034FB24
:10358000002800F09780594934A812F02DFB00283C
:1035900000F08B80564934A812F026FB00287FD01B
:1035A000544934A812F020FB002873D0524934A8A3
:1035B00012F01AFB68BB474966A812F015FBB0FA77
:1035C00080F0400987F8250065E766A811F02AFC1D
:1035D000786160E766A811F025FC78715BE766A862
:1035E00011F020FCB87156E72A46444944480DF0D2
:1035F0002DFD304609F06AFA4FF0000861E766A831
:1036000011F010FCF87146E766A811F00BFCB860E9
:1036100041E73C4934A812F0E7FA002800F0888519
:10362000394934A812F0E0FA002800F078853749CB
:1036300034A812F0D9FA002800F06885344934A87B
:1036400012F0D2FA002800F05885324934A812F05E
:10365000CBFA002800F048852F4934A812F0C4FAAC
:10366000002800F038852D4934A812F0BDFA002852
:1036700000F0B9802A4934A812F0B6FA002851D1D6
:10368000144966A812F0B0FAB0FA80F0400987F841
:10369000400000E766A811F0C5FB87F82400FAE6B1
:1036A00066A811F0BFFB3862F5E666A811F0BAFB18
:1036B000F861F0E666A811F0B5FB3876EBE600BFDE
:1036C000789CFF1FC0C50100ECC50100F4C50100D6
:1036D00000C601000CC6010014C601001CC6010092
:1036E00024C6010030C601003CC601004CC60100E2
:1036F0005CC601006CC6010080C60100CCC501009B
:10370000988DFF1F90C60100A4C60100B4C6010039
:10371000C4C60100D4C60100E4C60100F4C601001D
:103720000CC70100594934A812F05EFA002800F0D5
:10373000C984574934A812F057FA002800F0B98418
:10374000544934A812F050FA002800F0A9845249D4
:1037500034A812F049FA002800F099844F4934A89F
:1037600012F042FA002800F089844D4934A812F082
:103770003BFA002800F079844A4934A812F034FA60
:10378000002800F06984484934A812F02DFA002876
:1037900000F05984454934A812F026FA002800F0B8
:1037A0004984434934A812F01FFA002800F03984F4
:1037B000404934A812F018FA00285ED03E4934A8D7
:1037C00012F012FA002850D03C4934A812F00CFA3A
:1037D00088B93B4966A812F007FAB0FA80F04009B0
:1037E00087F8780057E601AA364966A812F062F910
:1037F000019B7B674FE6344934A812F0F5F90028A5
:1038000000F00684314934A812F0EEF9002800F0E7
:10381000F5832F4934A812F0E7F9002800F0E4837B
:103820002C4934A812F0E0F9002800F0D3832A498B
:1038300034A812F0D9F9002800F03B82274934A8B7
:1038400012F0D2F9002800F02A82254934A812F09B
:10385000CBF9002846D11A4966A812F0C5F9B0FA8A
:1038600080F0400987F8940015E601AA154966A87A
:1038700012F020F9019B3B670DE601AA114966A8E9
:1038800012F018F9019BFB6605E600BF28C701008E
:103890003CC7010050C7010064C7010078C70100A0
:1038A0008CC70100A0C70100B4C70100C8C7010050
:1038B000DCC70100F0C7010004C8010018C80100FE
:1038C0000CC60100A0C6010028C8010038C80100CC
:1038D00048C8010058C8010068C8010078C8010044
:1038E00088C80100B14934A812F07EF9002800F020
:1038F0005C83AF4934A812F077F9002800F04B83BD
:10390000AC4934A812F070F9002800F03A83AA49B3
:1039100034A812F069F9002800F02C83A74934A8D4
:1039200012F062F9002800F01E83A54934A812F0B5
:103930005BF9002800F01083A24934A812F054F972
:10394000002800F00283A04934A812F04DF90028A5
:1039500000F0F4829D4934A812F046F9002800F0E6
:10396000E6829B4934A812F03FF9002800F0D88283
:10397000984934A812F038F9002800F0CA82964914
:1039800034A812F031F9002800F0BC82934934A821
:1039900012F02AF9002800F0AE82914934A812F002
:1039A00023F9002800F0A0828E4934A812F01CF9F7
:1039B000002800F092828C4934A812F015F90028F2
:1039C00000F08482894934A812F00EF9002800F032
:1039D0007682874934A812F007F9002800F068823F
:1039E000844934A812F000F9002800F05A82824974
:1039F00034A812F0F9F8002800F04C827F4934A86E
:103A000012F0F2F8002800F03E827D4934A812F04E
:103A1000EBF8002800F030827A4934A812F0E4F87C
:103A2000002800F02282784934A812F0DDF800283E
:103A300000F01482754934A812F0D6F8002800F07E
:103A40000682734934A812F0CFF8002800F0F881FC
:103A5000704934A812F0C8F8002800F0EA816E49D5
:103A600034A812F0C1F8002800F0DC816B4934A8BA
:103A700012F0BAF8002800F0CE81694934A812F09B
:103A8000B3F8002800F0C081664934A812F0ACF801
:103A9000002800F0B281644934A812F0A5F800288B
:103AA00000F0A481614934A812F09EF8002800F0CB
:103AB00096815F4934A812F097F8002800F08881B9
:103AC0005C4934A812F090F8002800F07A815A4935
:103AD00034A812F089F8002800F06C81574934A806
:103AE00012F082F8002800F05E81554934A812F0E7
:103AF0007BF8002800F05081524934A812F074F885
:103B0000002800F04281504934A812F06DF80028D6
:103B100000F034814D4934A812F066F8002800F016
:103B200026814B4934A812F05FF8002800F0188174
:103B3000484934A812F058F8002800F00A81464994
:103B400034A812F051F8002800F0FC80434934A852
:103B500012F04AF8002800F0EE80414934A812F033
:103B600043F8002800F0E0803E4934A812F03CF809
:103B7000002800F0D2803C4934A812F035F8002823
:103B800000F0C480394934A812F02EF8002800F063
:103B9000B680374934A812F027F8002800F0A88032
:103BA000344934A812F020F866E000BF98C801003C
:103BB000A4C80100B0C80100BCC80100D8C80100F9
:103BC000F4C8010008C9010018C9010028C9010092
:103BD00044C9010060C9010070C9010080C9010029
:103BE00090C90100A0C90100BCC90100D0C90100F1
:103BF000E4C90100F8C9010014CA010028CA010083
:103C00003CCA010058CA010070CA01008CCA0100F8
:103C1000A0CA0100B4CA0100C8CA0100E4CA010078
:103C2000FCCA01001CCB010034CB010050CB0100C9
:103C300068CB010080CB010094CB0100B4CB010024
:103C4000CCCB0100ECCB010004CC01001CCC01006A
:103C50002CCC01003CCC01004CCC010064CC010018
:103C600074CC010084CC0100A0CC0100B4CC0100D4
:103C7000CCCC0100DCCC0100002832D0D04934A8E3
:103C800011F0B2FF30B334A8CE4911F0ADFFD0B976
:103C900066A811F0C7F8C7F86801FFF7FCBB01AAD6
:103CA000C94966A811F006FF019BC7F89030FFF7DD
:103CB000F2BB01AAC44966A811F0FCFE019BC7F83B
:103CC0008C30FFF7E8BB2A46C049C1480DF0BEF969
:103CD000FFF7E1BB66A811F0A5F8C7F86401FFF78C
:103CE000DABB66A811F09EF8C7F86001FFF7D3BBF6
:103CF00066A811F097F8C7F85C01FFF7CCBB66A87F
:103D000011F090F8C7F85801FFF7C5BB66A811F08D
:103D100089F8C7F85401FFF7BEBB66A811F082F816
:103D2000C7F85001FFF7B7BB66A811F07BF8C7F8DA
:103D30004C01FFF7B0BB66A811F074F8C7F8480152
:103D4000FFF7A9BB66A811F06DF8C7F84401FFF7AB
:103D5000A2BB66A811F066F8C7F83801FFF79BBB55
:103D600066A811F05FF8C7F83C01FFF794BB66A89E
:103D700011F058F8C7F84001FFF78DBB66A811F0A5
:103D800051F8C7F83401FFF786BB66A811F04AF86E
:103D9000C7F83001FFF77FBB66A811F043F8C7F8FA
:103DA0002C01FFF778BB66A811F03CF8C7F8280192
:103DB000FFF771BB66A811F035F8C7F82401FFF7CB
:103DC0006ABB66A811F02EF8C7F81801FFF763BBAD
:103DD00066A811F027F8C7F81C01FFF75CBB66A8BE
:103DE00011F020F8C7F82001FFF755BB66A811F0C5
:103DF00019F8C7F81401FFF74EBB66A811F012F8C6
:103E0000C7F81001FFF747BB66A811F00BF8C7F819
:103E10000C01FFF740BB66A811F004F8C7F80801D1
:103E2000FFF739BB66A810F0FDFFC7F80401FFF7E4
:103E300032BB66A810F0F6FFC7F8F800FFF72BBBFF
:103E400066A810F0EFFFC7F8FC00FFF724BB66A8D8
:103E500010F0E8FFC7F80001FFF71DBB66A810F0DF
:103E6000E1FFC7F8F400FFF716BB66A810F0DAFF11
:103E7000C7F8F000FFF70FBB66A810F0D3FFC7F834
:103E8000EC00FFF708BB66A810F0CCFFC7F8E8000D
:103E9000FFF701BB66A810F0C5FFC7F8E400FFF705
:103EA000FABA66A810F0BEFFC7F8E000FFF7F3BA51
:103EB00066A810F0B7FFC7F8D400FFF7ECBA66A801
:103EC00010F0B0FFC7F8D800FFF7E5BA66A810F009
:103ED000A9FFC7F8DC00FFF7DEBA66A810F0A2FF62
:103EE000C7F8D000FFF7D7BA66A810F09BFFC7F855
:103EF000CC00FFF7D0BA66A810F094FFC7F8C8004E
:103F0000FFF7C9BA66A810F08DFFC7F8C400FFF725
:103F1000C2BA66A810F086FFC7F8C000FFF7BBBAA8
:103F200066A810F07FFFC7F8BC00FFF7B4BA66A818
:103F300010F078FFC7F8B800FFF7ADBA66A810F028
:103F400071FFC7F8B400FFF7A6BA66A810F06AFFC1
:103F5000C7F8B000FFF79FBA66A810F063FFC7F874
:103F6000AC00FFF798BA66A810F05CFFC7F8A8008D
:103F7000FFF791BA66A810F055FFC7F8A400FFF745
:103F80008ABA01AA104966A811F094FD019BC7F8EE
:103F9000A030FFF780BA01AA0B4966A811F08AFD8C
:103FA000019BC7F89C30FFF776BA01AA064966A8BC
:103FB00011F080FD019BC7F89830FFF76CBA00BF85
:103FC000F4CC010004CD0100A0C6010014CD010015
:103FD000988DFF1F01AA5B4966A811F06BFD019B3C
:103FE000C7F88830FFF757BA01AA564966A811F0FA
:103FF00061FD019BC7F88430FFF74DBA01AA514912
:1040000066A811F057FD019BC7F88030FFF743BA4F
:1040100001AA4C4966A811F04DFD019BFB67FFF713
:104020003ABA01AA474966A811F044FD019BBB6654
:10403000FFF731BA01AA434966A811F03BFD019B85
:104040007B66FFF728BA01AA3E4966A811F032FD47
:10405000019B3B66FFF71FBA01AA3A4966A811F017
:1040600029FD019BFB65FFF716BA01AA354966A831
:1040700011F020FD019BBB65FFF70DBA01AA314984
:1040800066A811F017FD019B7B65FFF704BA01AA32
:104090002C4966A811F00EFD019B3B65FFF7FBB9AB
:1040A00001AA284966A811F005FD019BFB64FFF7F2
:1040B000F2B901AA234966A811F0FCFC019BBB647C
:1040C000FFF7E9B901AA1F4966A811F0F3FC019BAB
:1040D0007B64FFF7E0B901AA1A4966A811F0EAFC6F
:1040E000019BFB63FFF7D7B901AA164966A811F037
:1040F000E1FC019BBB63FFF7CEB901AA114966A899
:1041000011F0D8FC019B7B63FFF7C5B901AA0D49EB
:1041100066A811F0CFFC019B3B63FFF7BCB901AA75
:10412000084966A811F0C6FC019BFB62FFF7B3B912
:1041300001AA044966A811F0BDFC019BBB62FFF710
:10414000AAB900BFA0C60100F0B589B00446FFF7C8
:10415000B7F890F88C1261B980F8251001AAFFF722
:1041600047F918B19DF80630012B06D0012009B09F
:10417000F0BDFFF75FF909B0F0BD029F039E049DFB
:1041800005980699079A84F82530A762E6622563A8
:104190006063A163E263E9E770B504460D46FEF78C
:1041A00065FC2046284B40F8283B02F0A9FE04F1AC
:1041B000340002F0A5FE04F1440002F0A1FE04F177
:1041C0007C0002F09DFE04F1880002F099FE04F1EB
:1041D000980002F095FE04F51B7008F067FC284675
:1041E00011F06EFEC82801D82B782BBB1749184850
:1041F0000CF02CFF174B07CB04F5B6751E78C4F8EE
:104200006C012E736960AA6001210A200BF0E4FCA6
:104210000A21114808F0F4FC38B1012384F88C32EB
:104220002046FFF791FF204670BD84F88C0220469F
:10423000FFF78AFF204670BD2A46084904F5B6708C
:1042400011F012FCE0E700BFD8DF01003CCD010017
:10425000988DFF1F6CCD0100789CFF1F7CCD010065
:1042600070B500F51B74084616460D4611F028FE81
:1042700029460246204608F09FFB204601220649B7
:1042800008F09AFB314620460CF02EFF2046BDE890
:1042900070400CF0C3BE00BF88CD010070B500F5C2
:1042A0001B7482B0084616460D4611F009FE2946D9
:1042B0000246204608F080FB01222046094908F00A
:1042C0007BFB30460FF092FD022502460B4600951F
:1042D00020460CF011FF204602B0BDE870400CF003
:1042E0009DBE00BF88CD010070B500F51B74084667
:1042F00016460D4611F0E4FD29460246204608F018
:104300005BFB204601220C4908F056FB4EB92046C3
:1043100005220A4908F050FB2046BDE870400CF029
:104320007DBE20460422064908F046FB2046BDE833
:1043300070400CF073BE00BF88CD01008CCD010031
:104340000CC60100F0B590F88C3289B005463BBB35
:1043500090F82530066B446BD0F828E0C76AEA6B0A
:10436000806B8DF80230FC21152303960494CDF860
:1043700004E06D460297059006928DF800108DF8C6
:1043800001306C460DF11B0601E014F8011F601BA3
:104390000BF06CFAB442F8D10126304609B0F0BDFA
:1043A00000F5B6742146D74808F03CFD2246684621
:1043B0001323D44908F0C2FC08AA029B12F8140D7A
:1043C0009DF8041085F87802C5F8743285F87012EB
:1043D00005F51B7405F2792305F2862012F8011FFA
:1043E00003F8011B9842F9D1079BC5F88832204693
:1043F00008F07AFB0646684608F066FB002E02F0DD
:10440000E7840222C049204608F0D6FABF49204678
:10441000FEF75CFD0222BC49204608F0CDFABC49FB
:104420002046FEF753FD0222B749204608F0C4FAA1
:10443000B8492046FEF74AFD20460CF0EFFD022267
:10444000B149204608F0B8FAB3492046FEF73EFDD0
:104450000222AD49204608F0AFFA0022AC492046BE
:1044600008F0AAFA20460CF0D9FD20460CF0D6FD43
:104470000222A549204608F09FFA0B22A7492046B0
:1044800008F09AFA20460CF0C9FD02229E49204607
:1044900008F092FA1322A249204608F08DFA20462D
:1044A0000CF0BCFD02229849204608F085FA38221B
:1044B0009C49204608F080FA20460CF0AFFD02220D
:1044C0009149204608F078FA19229749204608F0C9
:1044D00073FA20460CF0A2FD02228B49204608F018
:1044E0006BFA1B229149204608F066FA20460CF030
:1044F00095FD02228449204608F05EFA1D228C496F
:10450000204608F059FA20460CF088FD02227E4928
:10451000204608F051FA11228649204608F04CFA4C
:1045200020460CF07BFD02227749204608F044FA31
:1045300019228149204608F03FFA20460CF06EFD12
:1045400002227149204608F037FA1E227B49204694
:1045500008F032FA20460CF061FD2A6978492846B5
:10456000FFF77EFE20460CF059FD022266492046E8
:1045700008F022FA00226649204608F01DFA20467B
:104580000CF04CFD02226049204608F015FA132277
:104590006C49204608F010FA20460CF03FFD02223C
:1045A0005949204608F008FA3B226749204608F09E
:1045B00003FA20460CF032FD02225349204608F04F
:1045C000FBF913226149204608F0F6F920460CF069
:1045D00025FD02224C49204608F0EEF90A225C49EA
:1045E000204608F0E9F920460CF018FD6A6959499F
:1045F0002846FFF735FE20460CF010FD0222424906
:10460000204608F0D9F942492046FEF75FFC022215
:104610003D49204608F0D0F94F492046FEF756FCA8
:104620002A794E492846FFF75FFE20460CF0F6FC3B
:1046300002223549204608F0BFF935492046FEF7E9
:1046400045FC02223049204608F0B6F9444920468C
:10465000FEF73CFC6A7943492846FFF701FE2046F5
:104660000CF0DCFC02222849204608F0A5F9284974
:104670002046FEF72BFC02222349204608F09CF935
:1046800039492046FEF722FCAA7938492846FFF727
:10469000E7FD20460CF0C2FC02221B49204608F030
:1046A0008BF91B492046FEF711FC022216492046D1
:1046B00008F082F92E492046FEF708FCEA792D49D8
:1046C0002846FFF7CDFD20460CF0A8FC02220E493B
:1046D000204608F071F90E492046FEF7F7FB02224A
:1046E0000949204608F068F923492046FEF7EEFB09
:1046F000AA6822492846FFF7B3FD20460CF08EFC3D
:104700003EE000BF789CFF1F84CD0100BCCD0100BE
:10471000ECF9010004CE01001CCE010030CE0100F6
:104720003CCE010050CE01008CCE0100A8CE01008D
:10473000C4CE0100E4CE0100F8CE010014CF010088
:10474000ECC5010034CF010048CF010084CF010047
:1047500098CF0100F4C50100A4CF010000C60100FC
:10476000D0CF010014C60100ECCF01001CC601002F
:1047700008D0010024C6010028D0010030C6010085
:104780000222CB49204608F017F9CA492046FEF715
:104790009DFB0222C649204608F00EF9C649204674
:1047A000FEF794FB2A7EC5492846FFF759FD2046AF
:1047B0000CF034FC0222BE49204608F0FDF8BD4949
:1047C0002046FEF783FB0222B949204608F0F4F8A0
:1047D000BB492046FEF77AFBEA69BA492846FFF74B
:1047E0003FFD20460CF01AFC0222B149204608F099
:1047F000E3F8B5492046FEF769FB0222AC492046A2
:1048000008F0DAF8B1492046FEF760FB0222A84919
:10481000204608F0D1F8AE492046FEF757FB0222A9
:10482000A349204608F0C8F8AA492046FEF74EFBE7
:1048300002229F49204608F0BFF8A7492046FEF70C
:1048400045FB02229A49204608F0B6F8A3492046C3
:10485000FEF73CFB02229649204608F0ADF8A0493D
:104860002046FEF733FB2A6A9E492846FFF7F8FCEC
:1048700020460CF0D3FB02228D49204608F09CF81C
:104880008C492046FEF722FB02228949204608F087
:1048900093F895492046FEF719FB95F82420934993
:1048A0002846FFF7DDFC20460CF0B8FB02228049C9
:1048B000204608F081F88E492046FEF707FB0222C9
:1048C0007B49204608F078F87A492046FEF7FEFA40
:1048D00020460CF0A3FB02227549204608F06CF834
:1048E00084492046FEF7F2FA95F8252082492846A9
:1048F000FFF7FAFCAA6A81492846FFF7CFFCEA6A6B
:104900007F492846FFF7CAFC2A6B7E492846FFF7F5
:10491000C5FC6A6B7C492846FFF7C0FCAA6B7B4943
:104920002846FFF7BBFCEA6B79492846FFF7B6FC3F
:1049300020460CF073FB02225D49204608F03CF84B
:104940006B492046FEF7C2FA02225949204608F078
:1049500033F858492046FEF7B9FA20460CF05EFBC2
:1049600002225349204608F027F86A492046FEF7FC
:10497000ADFA02224E49204608F01EF8664920464C
:10498000FEF7A4FA6A6F65492846FFF787FC2046C0
:104990000CF044FB02224649204608F00DF8544929
:1049A0002046FEF793FA02224149204608F004F817
:1049B00040492046FEF78AFA20460CF02FFB0222DF
:1049C0003B49204607F0F8FF55492046FEF77EFA9E
:1049D00095F8402053492846FFF786FC6A6C5249F7
:1049E0002846FFF75BFCAA6C50492846FFF756FCA7
:1049F000EA6C4F492846FFF751FC2A6D4D4928467D
:104A0000FFF74CFC6A6D4C492846FFF747FCAA6D3E
:104A10004A492846FFF742FCEA6D49492846FFF714
:104A20003DFC2A6E47492846FFF738FC6A6E464926
:104A30002846FFF733FCAA6E44492846FFF72EFCB0
:104A4000EA6E43492846FFF729FC2A6F4149284668
:104A5000FFF724FC20460CF0E1FA0222144920461C
:104A600007F0AAFF22492046FEF730FA0222104939
:104A7000204607F0A1FF0F492046FEF727FA2046FF
:104A80000CF0CCFA02220A49204607F095FF324981
:104A90002046FEF71BFA95F8782030492846FFF7A4
:104AA00023FCEA6F2E492846FFF7F8FB5AE000BFC7
:104AB00084CD0100ECF9010038D001003CC60100B2
:104AC00078D001004CC60100A4D001003CCE01000A
:104AD000BCD00100E4D00100F4D0010004D10100F9
:104AE00014D101005CC6010024D101006CC6010094
:104AF000BCCD01006CD1010080C6010090C6010050
:104B0000A4C60100B4C60100C4C60100D4C6010099
:104B1000E4C6010080D101009CD10100F4C601006F
:104B2000E8D101000CC7010028C701003CC7010003
:104B300050C7010064C7010078C701008CC701009D
:104B4000A0C70100B4C70100C8C70100DCC701004D
:104B5000F0C7010004C8010008D2010018C8010014
:104B600028C80100D5F88020D4492846FFF796FBD5
:104B7000D5F88420D2492846FFF790FBD5F8882045
:104B8000D0492846FFF78AFBD5F88C20CE49284625
:104B9000FFF784FBD5F89020CC492846FFF77EFB31
:104BA00020460CF03BFA0222C949204607F004FFD8
:104BB000C8492046FEF78AF90222C549204607F077
:104BC000FBFEC5492046FEF781F920460CF026FA87
:104BD0000222BF49204607F0EFFEC0492046FEF7FB
:104BE00075F995F89420BE492846FFF77DFBD5F866
:104BF0009820BC492846FFF751FBD5F89C20BA49BC
:104C00002846FFF74BFBD5F8A020B8492846FFF708
:104C100045FB20460CF002FA0222AD49204607F07F
:104C2000CBFEAC492046FEF751F90222A8492046A6
:104C300007F0C2FEA8492046FEF748F90222A4491F
:104C4000204607F0B9FEAA492046FEF73FF90222A6
:104C50009F49204607F0B0FE9F492046FEF736F9EF
:104C600020460CF0DBF902229949204607F0A4FE09
:104C7000A0492046FEF72AF9D5F8A4209E492846E7
:104C8000FFF7EEFA20460CF0C9F9022290492046BF
:104C900007F092FE90492046FEF718F902228C494F
:104CA000204607F089FE95492046FEF70FF9D5F812
:104CB000A82093492846FFF7D3FA20460CF0AEF916
:104CC00002228349204607F077FE83492046FEF7FB
:104CD000FDF802227E49204607F06EFE89492046F3
:104CE000FEF7F4F802227A49204607F065FE86496D
:104CF0002046FEF7EBF802227549204607F05CFEDD
:104D000082492046FEF7E2F802227149204607F068
:104D100053FE7F492046FEF7D9F802226C4920460F
:104D200007F04AFE7B492046FEF7D0F80222684988
:104D3000204607F041FE78492046FEF7C7F80222D8
:104D40006349204607F038FE74492046FEF7BEF856
:104D500002225F49204607F02FFE71492046FEF7E8
:104D6000B5F8D5F8AC206F492846FFF779FA204608
:104D70000CF054F902225649204607F01DFE564910
:104D80002046FEF7A3F802225149204607F014FE00
:104D900065492046FEF79AF802224D49204607F061
:104DA0000BFE62492046FEF791F802224849204650
:104DB00007F002FE5E492046FEF788F802224449C9
:104DC000204607F0F9FD5B492046FEF77FF80222F6
:104DD0003F49204607F0F0FD57492046FEF776F898
:104DE000D5F8B02055492846FFF73AFA20460CF08E
:104DF00015F902223649204607F0DEFD36492046E5
:104E0000FEF764F802223249204607F0D5FD4C49EE
:104E10002046FEF75BF802222D49204607F0CCFD24
:104E200048492046FEF752F802222949204607F059
:104E3000C3FD45492046FEF749F802222449204691
:104E400007F0BAFD41492046FEF740F8022220490A
:104E5000204607F0B1FD3E492046FEF737F8D5F869
:104E6000B4203C492846FFF7FBF920460CF0D6F861
:104E700002221749204607F09FFD16492046FEF7FB
:104E800025F802221249204607F096FD12492046D5
:104E9000FEF71CF802220E49204607F08DFD2E4930
:104EA0002046FEF713F802220949204607F084FD48
:104EB00009492046FEF70AF850E000BF38C8010053
:104EC00048C8010058C8010068C8010078C801003E
:104ED00084CD0100BCCD0100ECF901001CD2010021
:104EE00088C8010098C80100A4C80100B0C801002A
:104EF00034D2010048D20100BCC8010074D20100C4
:104F0000D8C80100A4D20100C4D20100E4D201003B
:104F100004D3010024D3010044D3010064D3010071
:104F200084D30100F4C80100A0D30100BCD3010068
:104F3000E0D3010004D4010028D4010008C9010015
:104F40004CD4010068D4010078D4010088D4010059
:104F500098D4010018C90100A8D4010020460CF023
:104F60005DF80222D249204607F026FDD1492046AD
:104F7000FDF7ACFFD5F8B820CF492846FFF770F908
:104F800020460CF04BF80222C949204607F014FDD8
:104F9000CA492046FDF79AFF0222C549204607F07C
:104FA0000BFDC7492046FDF791FFD5F8BC20C54948
:104FB0002846FFF755F920460CF030F80222BC498C
:104FC000204607F0F9FCBD492046FDF77FFF02228D
:104FD000B749204607F0F0FCBB492046FDF776FFB5
:104FE0000222B349204607F0E7FCB8492046FDF706
:104FF0006DFF0222AE49204607F0DEFCB449204690
:10500000FDF764FF0222AA49204607F0D5FCB1490A
:105010002046FDF75BFF0222A549204607F0CCFCA5
:10502000AD492046FDF752FF0222A149204607F074
:10503000C3FCAA492046FDF749FF02229C492046AD
:1050400007F0BAFCA6492046FDF740FF0222984926
:10505000204607F0B1FCA3492046FDF737FF0222A6
:105060009349204607F0A8FC9F492046FDF72EFFF4
:1050700002228F49204607F09FFC9C492046FDF7FD
:1050800025FFD5F8C0209A492846FFF7E9F82046C1
:105090000BF0C4FF02228649204607F08DFC8749A9
:1050A0002046FDF713FF02228149204607F084FCC9
:1050B00090492046FDF70AFF02227D49204607F06D
:1050C0007BFC8D492046FDF701FF022278492046EE
:1050D00007F072FC89492046FDF7F8FE0222744968
:1050E000204607F069FC86492046FDF7EFFE0222C4
:1050F0006F49204607F060FC82492046FDF7E6FE36
:1051000002226B49204607F057FC7F492046FDF7F5
:10511000DDFE02226649204607F04EFC7B49204610
:10512000FDF7D4FE02226249204607F045FC78498B
:105130002046FDF7CBFE02225D49204607F03CFCED
:1051400074492046FDF7C2FED5F8C42072492846AE
:10515000FFF786F820460BF061FF022254492046F3
:1051600007F02AFC55492046FDF7B0FE02225049BF
:10517000204607F021FC69492046FDF7A7FE0222E0
:105180004B49204607F018FC65492046FDF79EFE76
:1051900002224749204607F00FFC62492046FDF7EE
:1051A00095FE02224249204607F006FC5E49204651
:1051B000FDF78CFE02223E49204607F0FDFB5B49CD
:1051C0002046FDF783FED5F8C82059492846FFF749
:1051D00047F820460BF022FF02223549204607F00F
:1051E000EBFB36492046FDF771FE0222304920468E
:1051F00007F0E2FB4F492046FDF768FE02222C49EA
:10520000204607F0D9FB4C492046FDF75FFE0222FD
:105210002749204607F0D0FB48492046FDF756FEB7
:1052200002222349204607F0C7FB45492046FDF7E7
:105230004DFE02221E49204607F0BEFB4149204692
:10524000FDF744FED5F8CC203F492846FFF708F883
:1052500020460BF0E3FE02221549204607F0ACFB86
:105260003A492046FDF732FE02221149204607F056
:10527000A3FB12492046FDF729FE02220C492046D5
:1052800007F09AFB32492046FDF720FE20460BF03E
:10529000C5FE02220649204607F08EFB074920463C
:1052A000FDF714FE02220249204607F085FB51E07B
:1052B00084CD0100BCD4010028C90100ECF9010033
:1052C00074D2010044C9010000D5010018D50100C5
:1052D00038D5010058D5010078D5010094D50100DA
:1052E000B0D50100CCD50100E8D5010008D60100F9
:1052F00060C9010024D6010040D6010060D601003B
:1053000080D60100A0D60100BCD60100DCD6010089
:10531000FCD601001CD7010070C90100A0D3010018
:10532000BCD30100E0D3010004D4010028D4010063
:1053300080C901004CD4010068D4010078D4010078
:1053400088D4010098D4010090C90100BCCD0100AF
:1053500038D70100D2492046FDF7B8FD0222D149D5
:10536000204607F029FBD0492046FDF7AFFD022279
:10537000CC49204607F020FBCC492046FDF7A6FD8E
:105380000222C849204607F017FBC9492046FDF70D
:105390009DFD0222C349204607F00EFBC549204669
:1053A000FDF794FD0222BF49204607F005FBC249E4
:1053B0002046FDF78BFD0222BA49204607F0FCFA91
:1053C000BE492046FDF782FD0222B649204607F07D
:1053D000F3FABB492046FDF779FDD5F8D020B9494D
:1053E0002846FEF73DFF20460BF018FE0222AD498D
:1053F000204607F0E1FAB4492046FDF767FD022296
:10540000A849204607F0D8FA1822B049204607F0EC
:10541000D3FA20460BF002FE0222A249204607F0F2
:10542000CBFAAB492046FDF751FD02229D492046AB
:1054300007F0C2FAA7492046FDF748FD0222994924
:10544000204607F0B9FAA4492046FDF73FFDD5F8FC
:10545000DC20A2492846FEF703FF20460BF0DEFDC4
:1054600002229049204607F0A7FA97492046FDF707
:105470002DFD02228B49204607F09EFA98492046CE
:10548000FDF724FD02228749204607F095FA954949
:105490002046FDF71BFDD5F8D82093492846FEF796
:1054A000DFFE20460BF0BAFD02227E49204607F0BF
:1054B00083FA85492046FDF709FD022279492046F5
:1054C00007F07AFA89492046FDF700FD0222754966
:1054D000204607F071FA86492046FDF7F7FCD5F81B
:1054E000D42084492846FEF7BBFE20460BF096FDEB
:1054F00002226C49204607F05FFA7F492046FDF7FB
:10550000E5FC02226749204607F056FA7B4920460F
:10551000FDF7DCFC02226349204607F04DFA78498A
:105520002046FDF7D3FC02225E49204607F044FAEC
:1055300074492046FDF7CAFC02225A49204607F06A
:105540003BFA71492046FDF7C1FC0222554920462D
:1055500007F032FA6D492046FDF7B8FC02225149A6
:10556000204607F029FA6A492046FDF7AFFC0222DF
:105570004C49204607F020FA66492046FDF7A6FC74
:1055800002224849204607F017FA63492046FDF7F2
:105590009DFC02224349204607F00EFA5F4920464F
:1055A000FDF794FC02223F49204607F005FA5C49CA
:1055B0002046FDF78BFCD5F8E0205A492846FEF737
:1055C0004FFE20460BF02AFD02223649204607F006
:1055D000F3F93D492046FDF779FC02223149204686
:1055E00007F0EAF950492046FDF770FC02222D49E8
:1055F000204607F0E1F94D492046FDF767FC0222FD
:105600002849204607F0D8F949492046FDF75EFCB5
:1056100002222449204607F0CFF946492046FDF7EB
:1056200055FC02221F49204607F0C6F94249204690
:10563000FDF74CFC02221B49204607F0BDF93F490B
:105640002046FDF743FCD5F8E4203D492846FEF707
:1056500007FE20460BF0E2FC02221249204607F02A
:10566000ABF919492046FDF731FC02220D492046CD
:1056700007F0A2F933492046FDF728FC0222094928
:10568000204607F099F930492046FDF71FFC022219
:105690000449204607F090F92C49204658E000BF05
:1056A00054D7010084CD010068D7010078D70100EC
:1056B00084D7010090D70100A0D70100B0D7010026
:1056C000C0D70100A0C90100ECF90100A0D301007E
:1056D000D0D70100F0D7010010D80100BCC90100EB
:1056E00030D801004CD80100D0C901007CD801009D
:1056F00090D80100E4C90100C0D80100D8D8010049
:10570000E8D80100F8D8010008D9010014D9010037
:1057100020D9010030D9010040D9010050D9010041
:1057200060D90100F8C901004CD4010070D9010012
:1057300080D9010090D90100A0D90100B0D90100A1
:1057400014CA010024D60100C0D90100CCD901003F
:10575000FDF7BCFB0222D549204607F02DF9D449BC
:105760002046FDF7B3FB0222D049204607F024F97A
:10577000D0492046FDF7AAFBD5F8E820CE492846B7
:10578000FEF76EFD20460BF049FC0222C749204679
:1057900007F012F9C9492046FDF798FB0222C349D8
:1057A000204607F009F9C6492046FDF78FFB022283
:1057B000BE49204607F000F9C2492046FDF786FBA6
:1057C0000222BA49204607F0F7F8BF492046FDF704
:1057D0007DFB0222B549204607F0EEF8BB49204682
:1057E000FDF774FB0222B149204607F0E5F8B849FD
:1057F0002046FDF76BFB0222AC49204607F0DCF89F
:10580000B4492046FDF762FB0222A849204607F072
:10581000D3F8B1492046FDF759FBD5F8EC20AF4944
:105820002846FEF71DFD20460BF0F8FB02229F499B
:10583000204607F0C1F8A1492046FDF747FB0222A8
:105840009A49204607F0B8F8A5492046FDF73EFBE7
:1058500002229649204607F0AFF8A2492046FDF7FC
:1058600035FB02229149204607F0A6F89E492046C2
:10587000FDF72CFB02228D49204607F09DF89B493D
:105880002046FDF723FB02228849204607F094F8C2
:1058900097492046FDF71AFBD5F8F0209549284690
:1058A000FEF7DEFC20460BF0B9FB02227F492046C2
:1058B00007F082F890492046FDF708FB02227B4959
:1058C000204607F079F87D492046FDF7FFFA0222CD
:1058D0007649204607F070F888492046FDF7F6FA29
:1058E00002227249204607F067F874492046FDF706
:1058F000EDFA20460BF092FB02226C49204607F09D
:105900005BF87F492046FDF7E1FA0222674920460D
:1059100007F052F87B492046FDF7D8FA0222634986
:10592000204607F049F878492046FDF7CFFA0222D1
:105930005E49204607F040F874492046FDF7C6FA54
:1059400002225A49204607F037F871492046FDF7F0
:10595000BDFAD5F8F4206F492846FEF781FC2046B1
:105960000BF05CFB02225149204607F025F8534911
:105970002046FDF7ABFA02224C49204607F01CF8FE
:1059800065492046FDF7A2FA02224849204607F061
:1059900013F81D226149204607F00EF820460BF04F
:1059A0003DFB02224149204607F006F81D225C49D2
:1059B000204607F001F820460BF030FB02223B495D
:1059C000204606F0F9FF1E225649204606F0F4FF55
:1059D00020460BF023FBD5F8002153492846FEF75B
:1059E0003FFC20460BF01AFB02223049204606F00D
:1059F000E3FF00223149204606F0DEFF20460BF08F
:105A00000DFB02222949204606F0D6FF18224749FD
:105A1000204606F0D1FF20460BF000FB022223496E
:105A2000204606F0C9FF2D224149204606F0C4FF5A
:105A300020460BF0F3FAD5F8FC203E492846FEF745
:105A40000FFC20460BF0EAFA02221849204606F025
:105A5000B3FF00221949204606F0AEFF20460BF0A6
:105A6000DDFA02221149204606F0A6FF1122324932
:105A7000204606F0A1FF20460BF0D0FA02220B4987
:105A8000204606F099FF2D222C49204606F094FF6F
:105A900020460BF0C3FAD5F8F82029492846FEF72E
:105AA000DFFB20460BF0BAFA02224BE084CD010066
:105AB000D8D90100E4D9010028CA0100ECF901009D
:105AC000F0D9010008DA010018DA010028DA010033
:105AD00038DA010044DA010050DA01003CCA010062
