:1000000000800020BD010000C91F0100811F010008
:10001000811F0100811F0100811F0100811F01005C
:10002000811F0100811F0100811F0100C91F010004
:10003000C91F0100811F0100493301004D34010037
:10004000C91F0100C91F0100C91F0100C91F01000C
:10005000C91F0100C91F0100C91F0100C91F0100FC
:10006000C91F0100C91F0100C91F0100C91F0100EC
:10007000C91F0100C91F0100C91F0100C91F0100DC
:10008000C91F0100C91F0100C91F0100C91F0100CC
:10009000C91F0100C91F0100C91F0100C91F0100BC
:1000A0003518000041180000C91F0100C91F0100D8
:1000B000C91F0100C91F0100C91F0100C91F01009C
:1000C000C91F0100C91F0100C91F0100C91F01008C
:1000D000C91F0100C91F0100C91F0100C91F01007C
:1000E000C91F0100C91F0100C91F0100C91F01006C
:1000F000C91F0100AD390100C91F01000141010004
:10010000C91F01002D420100C91F0100C91F0100C4
:10011000C91F0100C91F0100C91F0100C91F01003B
:10012000C91F0100C91F0100C91F0100C91F01002B
:10013000C91F0100C91F0100C91F0100C91F01001B
:10014000C91F0100C91F0100C91F0100C91F01000B
:10015000C91F0100C91F0100C91F0100C91F0100FB
:100160005517010015260100C91F0100C91F010014
:10017000C91F0100C91F0100C91F0100C91F0100DB
:10018000C91F0100C91F0100C91F0100C91F0100CB
:10019000C91F0100C91F0100C91F0100C91F0100BB
:1001A000C91F0100C91F0100C91F0100C91F0100AB
:1001B000C91F0100C91F0100C91F0100564B4CF2A5
:1001C000205210B51A804DF628121A8000BF00BFC9
:1001D00011F0FEFE514B4FF010621A60504A9A60C7
:1001E000504ADA60504A136813F4807304D14F49BF
:1001F0000B604FF4A85313604D4B1A78110703D5C9
:100200001A7842F008021A704A4B4B492A221A7097
:100210004A4A4B4B8B4204D252F8040F43F8040B6A
:10022000F8E7484B484900228B4202D243F8042B9E
:10023000FAE74649464A002352F8230041F82300D2
:1002400001336F2BF8D1434B434A802103F8011B44
:100250009342FBD1414B3D4A1A60414B8A221A70AE
:10026000A3F5805324225A70A0221A709A7992071B
:10027000FCD59A79D406FCD43A4A937903F00C035E
:10028000082B384BF9D103221A7140225A719A79FE
:100290009006FCD5334A9179324B4906FBD5324A58
:1002A000324911600221516020221A709A7902F0BD
:1002B0000C020C2AFAD12E4B2E4A1A602E4B2F4AD2
:1002C0001A6000225A60072243F8042C2C4AC3F813
:1002D0000C2D62B612F076F8144B1B68DA0705D5C0
:1002E000284811F0D3FF284B284A1A60284B1B7866
:1002F0005B0609D5244C254B22689A4204D121483B
:1003000011F0C4FF0023236017F0E4FD11F066FE36
:1003100013F0A6FAFEE700BF0E200540308004402F
:10032000823F04000100002B10D0034014D0034092
:1003300002D0074000E00740C09AFF1F244002009F
:100340002087FF1FC09AFF1F70A5FF1F0082FF1F9D
:100350000000000000E400E05FE400E008ED00E0E1
:100360000050064000400640448004400000030165
:1003700004800440C010050014E000E0FF76010096
:1003800000002020133A675A1CE00340A5C3945A8A
:1003900000F00740FFFFFFFFFFFFFFFFFFFFFFFF32
:1003A000FFFFFFFFFFFFFFFFFFFFFFFFFFFFFFFF5D
:1003B000FFFFFFFFFFFFFFFFFFFFFFFFFFFFFFFF4D
:1003C000FFFFFFFFFFFFFFFFFFFFFFFFFFFFFFFF3D
:1003D000FFFFFFFFFFFFFFFFFFFFFFFFFFFFFFFF2D
:1003E000FFFFFFFFFFFFFFFFFFFFFFFFFFFFFFFF1D
:1003F000FFFFFFFFFFFFFFFFFFFFFFFFFFFFFFFF0D
:10040000FFFFFFFFFFFFFFFFFFFFFFFFDEF9FFFF23
:1004100010B5054C237833B9044B13B10448AFF33E
:1004200000800123237010BDC09AFF1F0000000050
:1004300020400200084B10B51BB108490848AFF333
:1004400000800848036803B910BD074B002BFBD0A0
:10045000BDE81040184700BF00000000C49AFF1F0D
:1004600020400200C09AFF1F0000000010B54FF4AA
:10047000EC710446006813F0FDF9204610BD00BF82
:10048000F0B54FF4967195B05048514E514D524CC5
:10049000524F00F011FE4FF47A71514800F00CFEFB
:1004A0003221504800F008FE4FF4FA634FF47A729C
:1004B0003046032111F0DCF8304640F2DC5111F0F7
:1004C00035F90E2045F8040B002111F005FF0A2034
:1004D00011F01AFC2846642100F0EEFD424A434D1B
:1004E0000B2318460221136011F0F6FE404800F07D
:1004F00079FE4FF4247013F0BBF93E49064603F031
:10050000E9FB3046666007F0A9F8036820601B69C4
:10051000984723683849D3F88430384AA0600124CA
:10052000196783F8A14083F8A24083F8A3402046CE
:10053000147011F0F9FE4FF4EC7013F099F94FF4C8
:10054000EC720646002118F089F806F5B473311DE7
:10055000C6F86411C6F870312921304600223E6089
:100560000DF07AFC264A387103462046137011F0CC
:10057000DBFE6846234910F0F1FF50226946284609
:1005800011F016FA28464FF4165111F021F82846BA
:100590001D4911F027F828461C4911F023F8284678
:1005A0001B4911F01FF81B4B1B680093009B2B6528
:1005B000204611F0B9FE21460D2011F08DFE214696
:1005C000154800F02DFD15B0F0BD00BF8C9DFF1F3C
:1005D000E09CFF1FF09CFF1F5C9DFF1FE89CFF1F1E
:1005E000789DFF1F689DFF1FAC9EFF1F089DFF1F8A
:1005F0000088FF1F18FB01000AD7A33C889DFF1F3E
:10060000059DFF1F4C90FF1F24FB010058FB0100BC
:100610006CFB010078A2FF1FB09EFF1FF0B5494E92
:10062000337883B0032B58D8DFE803F059654802CC
:1006300012F0BEFC431C50D0B768347B424DC0B2B0
:100640000021CAB2082312F0010F03F1FF3318BFD3
:10065000624013F0FF034FEA5202F4D10131B1F5C9
:10066000807F05F8012FECD1002F68D0374C194658
:100670001A46615C01324B40D2B256FA83F397427C
:100680005B7B1146F5D898420FD130490A78002398
:10069000642A33707360B36041D06A2A05D12C4B51
:1006A0000A681B780192002B43D028484FF400724F
:1006B000002103B0BDE8F04017F0D0BF12F078FC85
:1006C000421C2AD072682149531C88547360B16857
:1006D0001C4A994201DC0323137003B0F0BD12F0F1
:1006E000A3FC0028F9DD12F063FCC828F5D1012332
:1006F000337003B0F0BD12F097FC002809DD12F052
:1007000057FCB06001300F4BE7D002221A7003B0E3
:10071000F0BD4FF0FF33B360DFE77368D7E7022126
:100720000C4800F07DFC0C490C4A01230B7013703F
:10073000BBE7BDF806100A4810F0F8FFB5E73B46E6
:10074000A1E700BF9C9DFF1FA89DFF1FDC9AFF1F14
:10075000DC9CFF1FB09EFF1FDD9CFF1F049DFF1F41
:10076000E09CFF1FF0B583B0224800AF00F0C2FC50
:1007700088B1214B1B7873B10223C8221946384631
:100780007B703A7012F07AFC02286D4606D0194848
:10079000AD4600F0A1FC0C37BD46F0BD174E344607
:1007A0006423002114F80C0F3B717971CAB208233D
:1007B00012F0010F03F1FF3318BF424013F0FF03A3
:1007C0004FEA5202F4D10131B1F5807F04F8012FD4
:1007D000ECD17B7996F87120534033440221381DC7
:1007E0005C7B12F04BFC0228D1D1204612F0CAFCEF
:1007F000CDE700BF8C9DFF1FDD9CFF1F9C9DFF1F51
:1008000008B50D4800F076FC48B10C4B1A783AB1A7
:1008100000221A700848BDE8084000F05DBC08BD21
:10082000074B08481A70012100F0FAFB0248BDE8A6
:10083000084000F051BC00BF789DFF1F049DFF1FC2
:10084000DD9CFF1FB09EFF1F2DE9F043984C9DB02B
:10085000206800AF02680023002568213B647B64A8
:10086000926987F83D50BB64FB643B657B65BB6563
:10087000FB653B667B66BB66FB6687F83C10904772
:1008800028B323689869D9699A6B7864986D9E6CCF
:10089000D3F83CC0D3F840E0DD6C1C6DB964BA6598
:1008A000D96D1A6E78665B698248FE64C7F85CC0D1
:1008B000C7F860E03D657C65B966FA663B64012671
:1008C00000F018FC48B97437BD46BDE8F083064611
:1008D000784800F00FFC0028F5D0774C201D00F080
:1008E00009FC002840F0F880744B1C7807F11408CC
:1008F000002C00F00C81AEB9714B1C78002C00F07C
:100900001881704B1A79E2B94046C82205230221AA
:100910003A757B7512F0B2FB0228E84600F0AF8210
:10092000C54628E0C8223423022107F118003A7690
:100930007B7612F0A3FB02286E4600F05B82B54680
:10094000DAE707F118061868314600220DF01AFCA4
:10095000B7F820904FF6FF739945D5D0C8220423ED
:10096000404602213A757B7512F088FB02286C46DE
:1009700000F04381A546544C002300226921204603
:10098000FA617B7687F8303087F8313087F832307B
:1009900087F8333087F8343087F8353087F83630C9
:1009A00087F8373087F8383087F8393087F83A30A9
:1009B0003A627A62BA62FA62397610F085FD2046B0
:1009C00010F022FE002840F0FC80404B226D196898
:1009D000796179693C488A4203D91A683A613A696F
:1009E00002651B68FB60FB6838499B1AB3F57A7F88
:1009F0004BD90B68BB6094F83B20BB682365324B36
:100A0000002A42D0D96993F83800D3F818C093F877
:100A100039E05E6A1D785C789A78396287F8300030
:100A20001979587993F80380C7F81CC087F831E02A
:100A3000D3F828C0D3F82CE0FE6287F8325093F840
:100A40003C6093F83D5087F8334087F834202423E6
:100A5000C82287F8361087F8370001240221381D94
:100A6000C7F824C0C7F828E087F838603A7187F8DB
:100A7000358087F8395087F83A407B7112F0FEFADA
:100A800002286E4600F02D81B546114B187811F002
:100A900015FC0446002800F09F800E4B00221A70BF
:100AA000044800F019FB7437BD46BDE8F08300BF71
:100AB0005C9DFF1F689DFF1FF09CFF1F889DFF1F0F
:100AC000059DFF1FE89CFF1F089DFF1F78A2FF1FC9
:100AD000AC9EFF1FDC9CFF1F207811F049F907F145
:100AE00014088146201D00F0F7FAC822042340466E
:100AF00002213A757B7512F0C1FA02286C4600F0AB
:100B0000B480A546B74B1C78002C7FF4F4AEC82205
:100B10000523022140463A757B7512F0AFFA022890
:100B2000E94600F02281CD46AF4B1C78002C7FF4C3
:100B3000E8AE4046C822052302213A757B7512F0C3
:100B40009DFA0228E8467FF4EBAEA84D7C762E464F
:100B50004FF06C0E3222672316F80C0F3C772146BB
:100B600087F818E0BA76FB76CAB20823D40703F1F7
:100B7000FF3348BF424013F0FF034FEA5202F5D162
:100B80000131B1F5807F06F8012FEDD107F118068C
:100B90001C46324607F11C016C2301E012F8013FAC
:100BA00063402B4491425C7BF8D13046052112F022
:100BB00065FA05287FF4B4AE204612F0E3FAC54684
:100BC000D9E6204610F026FD0146204610F0D2F866
:100BD00000287FF4FAAE58E7C822032302213846E2
:100BE0003A707B7012F04AFA02286E4600F0768165
:100BF0007F4B0122B5461A7052E77C4DA7F81A9038
:100C0000AE46672300211EF80C0F3B767976CAB2F8
:100C1000082312F0010F03F1FF3318BF424013F015
:100C2000FF034FEA5202F4D10131B1F5807F0EF893
:100C3000012FECD195F87420797EBB7E97F81BE0EC
:100C40005140294430464A7B5A402A440421537B70
:100C50008EEA03031D446D7B12F010FA04287FF422
:100C600089AE284612F08EFA84E6604DAC4609EB58
:100C70008909662300211CF80CEFA7F81A903B762F
:100C80007976CAB20823D00703F1FF3348BF8EEA52
:100C9000020213F0FF034FEA5202F4D10131B1F521
:100CA000807F0CF8012FECD195F87310787E97F8BF
:100CB0001AE0FB7E484028440421427B8EEA02026F
:100CC0002A4407F11800527B53401D446D7B12F0FB
:100CD000D5F904287FF415AF284612F053FAA5463B
:100CE00010E78AB0EE466C4607F1180C07F1380899
:100CF00065460FCD454520606160A260E360AC466B
:100D000004F11004F4D1394DDCF8000020602C46C9
:100D1000002014F80C1FC2B2082312F0010F03F1D7
:100D2000FF3318BF4A4013F0FF034FEA5202F4D1D9
:100D30000130B0F5807F04F8012FECD11C460EF194
:100D4000FF320EF1230112F8013F63402B448A4227
:100D50005C7BF8D17046242112F090F924287FF4AE
:100D600093AE204612F00EFA8EE6204D7C762E468B
:100D70004FF06C0E3222682316F80C0F3C77214698
:100D800087F818E0BA76FB76CAB20823D40703F1D5
:100D9000FF3348BF424013F0FF034FEA5202F5D140
:100DA0000131B1F5807F06F8012FEDD107F118066A
:100DB0001C46324607F11C016C2301E012F8013F8A
:100DC00063402B4491425C7BF8D13046052112F000
:100DD00055F905287FF4A7AE204612F0D3F9CD4689
:100DE000A2E600BF889DFF1F059DFF1F9C9DFF1F62
:100DF000DC9CFF1F8EB0EE466C4607F13C0C07F101
:100E00006C0965460FCD4D4520606160A260E360CE
:100E1000AC4604F11004F4D1494DDCF80000206028
:100E20002C46002014F80C1FC2B2082312F0010F48
:100E300003F1FF3318BF4A4013F0FF034FEA520299
:100E4000F4D10130B0F5807F04F8012FECD11C46BD
:100E50000EF1FF320EF1330112F8013F63402B44D3
:100E60008A425C7BF8D17046342112F007F93428AD
:100E70007FF465AD204612F085F9B5463CE5304D6E
:100E80002C466C2300213B763322672314F80C0F89
:100E900079763977BA76FB76CAB20823D60703F19A
:100EA000FF3348BF424013F0FF034FEA5202F5D12F
:100EB0000131B1F5807F04F8012FEDD107F118065B
:100EC0001C46324607F11C016C2301E012F8013F79
:100ED00063402B4491425C7BF8D166E6184D7C71EF
:100EE000AE466B233B711EF80C0F01232146BB71EC
:100EF000CAB20823D40703F1FF3348BF424013F0BE
:100F0000FF034FEA5202F5D10131B1F5807F0EF8AF
:100F1000012FEDD17B7995F87820B8795A402A4491
:100F20000321537B43401D44381D6C7B12F0A6F80F
:100F300003287FF45DAE204612F024F958E600BF86
:100F40009C9DFF1F10B50E4C0E4800F08FF8FFF768
:100F500065FBFFF755FCFFF705FC237833B940F23A
:100F6000DC510948BDE8104010F0E0BBFFF76CFC15
:100F70002378002BF3D0054B1B78002BEFD110BD4D
:100F8000DD9CFF1FB09EFF1FE09CFF1FDC9CFF1F2E
:100F900010B510F06BFF124800F08AF8114800F00D
:100FA00087F8114800F084F80D21104800F02EF861
:100FB0000F4B1048912200241A731C705C609C60D7
:100FC00010F032FB0C4800F073F80C4B0C481C710D
:100FD00084600C4A0C491846BDE8104016F05CBF0E
:100FE0008C9DFF1F789DFF1F689DFF1FB09EFF1FF8
:100FF0009C9DFF1FE09CFF1FF49CFF1FE89CFF1FB0
:101000005C9DFF1FFC87FF1F6D04000038B5044680
:101010000D4600F04DF800232582A383204638BDFD
:10102000827F8A420FD038B505460C46A97700F07A
:101030007DF8012C09D00DD3022C05D1084B6B6132
:101040000C23AB6138BD704738BD064B6B61042380
:10105000AB6138BD044B6B610423AB6138BD00BF8D
:1010600084FB01009CFB01007CFB0100818B8269F9
:10107000914202D300228283704710B5044600F0EB
:1010800039F870B1A38B6269D9070BD432F8131009
:1010900001B10121207C11F00BF9A38B0133A38353
:1010A00010BD10BD204632F8131000F005F8F4E72B
:1010B00000220273704700BF037B4BB9054B816070
:1010C00082B01B680193019B03600123037302B08C
:1010D000704700BF78A2FF1F054B82B01B680193C9
:1010E000037B019A02600BB90123037302B07047BE
:1010F00078A2FF1F0346007BA0B110B40A4A1C6807
:101100001268996883B00192019A5A60121B8A4250
:1011100004D300221A7303B010BC7047002003B040
:1011200010BC70470120704778A2FF1F0023037393
:10113000704700BF0020704790F8392090F83800C1
:10114000101A704790F8383090F839209A4205D933
:101150005A1C034480F83820187E70474FF0FF3047
:10116000704700BF90F8383090F839209A4286BF17
:101170001B18187E4FF0FF30704700BF704700BF4C
:1011800038B50546B0F85E0090B195F85D3014466C
:10119000C3F1210294420CD805F13B0018442246C9
:1011A00010F006FC95F85D30234485F85D3020464C
:1011B00038BD012014462871EEE700BFB0F85E305C
:1011C0006BB190F85D30202B07D8C218013380F83E
:1011D0005D30012082F83B1070470123037100202D
:1011E000704700BF0023426980F8383080F83930FA
:1011F00080F85C3080F85D3080F85E3080F85F30D9
:1012000006CA30B40D68046943662A4383660A60DF
:10121000A370426990F861301649146813441D7A2E
:101220005B7B01EBC5051B026D6803F4E06343F0D3
:1012300064032B6090F8623013449D7CDB7D01EBEE
:10124000C5011B02496803F4E06343F064030B60CB
:1012500021685368194205D0036927225A7003692F
:1012600004229A71036920225A71036980229A70BC
:1012700030BC70475837020010B50269D378DBB232
:10128000D90604463DD510215806D17038D503F053
:10129000040303F0FF02002B51D03D49626E00238E
:1012A0000B7084F85D30002A5BD0904794F85D3075
:1012B000002B56D02369D0229A70236994F83B20E2
:1012C0001A712369012284F85C200222DA7010BDB1
:1012D000304B84F860009C424AD02F4B9C4252D045
:1012E00094F8391013791F29DBB207D82848007801
:1012F00020B16018013184F8391003760223D370CD
:1013000010BD5906C3D4917801F0100101F0FF001F
:101310000029DDD013F001031ED194F85C1094F87D
:101320005D00884281BF4B1C091984F85C3091F83C
:101330003B3013712369D0229A702269DEE723695A
:1013400084F83920C0229A702369114A1979012141
:1013500011700222DA7010BDC023937022691379D4
:10136000CCE70122002384F85D2084F83B30A1E71C
:10137000626994F86130094913440322187A10F025
:10138000C5FE2269ACE7626994F861300449F3E76D
:10139000D09EFF1F0088FF1F6C88FF1F01140000F4
:1013A0000D1400000369DB7803F0200373B190F89B
:1013B00060300133DBB2012B80F860301AD942690A
:1013C00090F861301344187A10F01CBF70B5426970
:1013D00003F0FF0590F8613013440446187A10F0CA
:1013E00011FFA36E5BB184F8385094F83900BDE862
:1013F0007040184790F85F30002BE0D0704770BD08
:101400000148FFF7CFBF00BF0088FF1F0148FFF76B
:10141000C9BF00BF6C88FF1F2DE9F047374FDFF8C9
:10142000E0903B68026982B006460093DDF80080D8
:101430000021A025D3789B065BD53B680193019BD7
:10144000C8EB03030F2BF5D949B1102BF2D00020C4
:101450009070336980229A7002B0BDE8F08772699B
:1014600096F8613013440521187A10F035FF72693F
:1014700096F861301344012193F812A0504610F001
:101480002BFF09240021504610F012FF2B46013B90
:10149000FDD10121504610F00BFF2B46013BFDD141
:1014A000013CEFD1706996F8611001444FF4A072CD
:1014B0000C7A4B7B09EBC4011B02496803F4E0631F
:1014C00043F064030B6096F862300344997CDB7D43
:1014D00009EBC1011B02496803F4E06343F06403B4
:1014E0000B60013AFDD13269D3789B064FF00101C0
:1014F000A3D4012002B0BDE8F08700BF78A2FF1F8F
:1015000058370200F0B503691222DA700269937845
:1015100003F0200385B004460D46002B5ED0B423B3
:1015200093703C4922690B680093009E05E00B68AC
:101530000193019B9B1B042B42D8D37803F020031B
:1015400003F0FF00002BF2D094F85D30002B31D077
:101550004FF0000E4FF0020C04EB0E0393F83B30FB
:1015600013710B680393039F206907E09B060DD559
:101570000B680293029BDB1B052B28D8C378DBB2D8
:1015800003F0020202F0FF06002AEFD080F803C049
:101590002669F378DBB2DF0632462DD49F062BD5C1
:1015A000DB0731D40EF1010E94F85D305FFA8EFE48
:1015B0007345D1D800201DBB002384F85E3004E0C1
:1015C0009070236980229A70042005B0F0BD867067
:1015D0002369802204209A7005B0F0BD03F0FF0655
:1015E000FFF71AFF10B9042005B0F0BD236984F895
:1015F0005F60B0229A7094E78023B3700420DAE72A
:1016000026698023B370D7E7BEF1000F0CBF02201C
:101610000320F6E778A2FF1F2DE9F04106690025B7
:10162000122780F8385080F83950F770D0F810C081
:101630009CF802E00EF0200E88B00446884615465D
:101640001E46BEF1000F49D0B4238CF80230784B0F
:1016500021691A680092DDF800E006E01A6801923C
:101660000198CEEB0000042830D8C87800F02000A4
:1016700000F0FF070028F1D04FEA480242F00102D3
:10168000D2B20A711A680292DDF808E0206906E019
:101690001A6803920399CEEB010105292AD8C17873
:1016A00001F0020101F0FF070029F1D04FF0020C18
:1016B00080F803C02269D17811F0110722D12DBB27
:1016C000002E0CBFA0238023937003E08F7023694A
:1016D00080229A70384608B0BDE8F0810EF0FF070E
:1016E000FFF79AFE0028F5D0236984F85F70B022D6
:1016F0009A70ACE787702369802238469A7008B0E8
:10170000BDE8F081802393700027E3E7012D75D0B9
:10171000A021917021690A79BE4667464FF0A80C56
:101720001A680492049805E01A680592059A121A3C
:10173000052A4AD8CA7802F0020202F0FF08002AFD
:10174000F2D0CF702169CA78D2B212F0100F0846D9
:101750005AD1920658D5013DEDB2012D49D0BEF1C6
:101760001F0F3BD90A79012DDAD11A680692069D1E
:1017700005E01A680792079A521B052A46D8C278D4
:1017800002F0020202F0FF01002AF2D00223C3702D
:101790002269D378DBB2D9063AD49B0634D5B0237C
:1017A000BEF11F0F93703FD8226904EB0E0312792C
:1017B0001A760EF1010E5FFA8EFE16B123698022B1
:1017C0009A7084F839E0774684E781F802802369CB
:1017D00080229A70774684F839E07BE704EB0E02AA
:1017E00091F8048082F818800EF1010E5FFA8EFEE7
:1017F000B9E781F802C021690846B0E7A8219170D5
:101800002069BE460279B0E7774663E78170DEE77C
:101810001021A023D170013BFDD12269937803F000
:10182000F7037746937055E723691B79C5E700BF37
:1018300078A2FF1F0148FFF71FBD00BF0088FF1FF0
:101840000148FFF719BD00BF6C88FF1F10B4047F6B
:101850004160022CC26002D010BC11F013BD83683D
:1018600010BC1847F0B4464B464A186BDC6A017945
:101870001170454922790A709A6A00790870002A25
:1018800046D05968C9688A423ED82168CC8B240466
:1018900002F1FF3065D4C0F30E00C883C88B80B25C
:1018A000C882196B0968C88B000452D4C2F30E00B9
:1018B000C883C88B002480B212F1FF32C88218BFDF
:1018C00001229C62D96A2E4809680D6800F124043F
:1018D000A54236D00068C46814F0804F0C680D68CB
:1018E00015BF248824780235013544F000440D608A
:1018F0004463196B254B09791970214912B1CA6AE1
:1019000012791A70F0BC7047521A9A620122D9E714
:10191000586B196805681E4C0A63CC62CC682D6848
:101920001C4E24F080440327B542CC6083F8257018
:101930001FD1037F4260022BC2601ED0F0BC11F0A9
:10194000A1BC016890F82400CC6840F000404863D6
:10195000CFE7CC8BC2F3080004F47E442043C88355
:10196000A7E7CC8BC0F3080004F47E442043C8836F
:1019700094E72B461146F0BC18478368F0BC184723
:10198000D888FF1F1F8000401C8000401B80004043
:1019900000000FFF4D18000090E80C00F0B41C6828
:1019A00059682568164F174E29432160164D17496F
:1019B0001760D66015611160417A154A5C180A31CA
:1019C00094F8244053F8215002EBC40149680D609B
:1019D000017A5C1803EB8101247ECD6902EBC4011E
:1019E00049680D60817A581803EB810390F8300044
:1019F000596B02EBC002F0BC53681960704700BF1E
:101A000001401F00011000380110007800001F8005
:101A10005837020070B4417A44680E4B05680E4E88
:101A20002144002291F8241003EBC10149680A60A7
:101A3000017A2144097E03EBC10149680A60817A79
:101A4000214491F8301003EBC1035B681A602E60EB
:101A500070BC70475837020001401F0000207047DB
:101A6000704700BF704700BF704700BF10B5B0217E
:101A7000044611F0FFFE204610BD00BF224B10B5FA
:101A8000044640F8043B04F0D9FF04F1100004F0D0
:101A9000D5FF04F11C0004F0D1FF04F1280005F08B
:101AA00087F804F1380004F0C9FF04F1440005F0A0
:101AB0007FF804F1540004F0C1FF04F1600005F068
:101AC00077F804F1740005F073F804F1840005F070
:101AD0006FF804F1940004F0B1FF002300224FF0EE
:101AE0007E500A4984F8A0300123E066216784F81B
:101AF000A53084F8A13084F8A23084F8A33022669F
:101B00006266A266204610BD14FD01000AD7A33C00
:101B10002DE9F04F95B0064668461F460C4615461F
:101B200005F046F804A805F043F896F8A23006F14F
:101B30003809002B3DD02046494604F0D7FF96F8DF
:101B4000A3301BB196F8A430002B57D1F36D33644A
:101B500006F1280A5046494605F0E8F9444F06F1D7
:101B6000240B00254FF0FF385BF8044F24F00044AD
:101B70002046394615F0B4FF08B12746A84601357E
:101B8000042DF1D106EB88080021D8F82840204622
:101B900015F088FFA8B92046002115F0A1FF28B153
:101BA000D8F84400002115F07DFF88B915B0BDE8D4
:101BB000F08F484606F1540104F046FF00233364D9
:101BC000BDE70021D8F8440015F08AFF0028E2D0D4
:101BD00006F128000FC800F1004501F1004402F1B0
:101BE000004203F1004349465046B562F462326355
:101BF000736305F015F915B0BDE8F08F494604A8E8
:101C000005F094F92A686968019200236A4608A8D9
:101C100000930291AB68039304A905F093F804A91B
:101C20000CA805F01BFA0CAA08A910A805F08AF860
:101C300010A9684604F0C2FF019815F0EBF80446BD
:101C40000D46029815F0E6F822462B4612F0DEFC0F
:101C50000546384601F1004415F0DCF802460B4613
:101C60002846214614F076FF15F020FC30646FE71B
:101C700000007AC40120704710B5034B036004468E
:101C8000FFF7F2FE204610BD30FD010010B5064BF7
:101C900003600446FFF7E8FE20464FF4387111F068
:101CA000E9FD204610BD00BF30FD010070B50123E5
:101CB00084B0044680F8A53000F1540501A804F072
:101CC000BDFE01A9284604F0BFFE294604F14400E8
:101CD00005F02CF901A804F0B1FE01A904F1B0004F
:101CE00004F0B2FE01A804F0A9FE01A904F110005D
:101CF00004F0AAFE01A804F0A1FE01A904F11C0051
:101D000004F0A2FE04F1380601A804F097FE01A930
:101D1000304604F099FE0025314604F1280005F014
:101D200005F904F52870294605F0CCF9294604F593
:101D3000F07005F0C7F90A4A0A4BC4F8E021C4F86C
:101D4000F421C4F80822C4F81C22C4F8A032C4F854
:101D5000B432C4F8C832C4F8DC3204B070BD00BF7D
:101D60006F12833A6F12033A10B50446FFF786FEEE
:101D70002046194B40F8B03B04F060FE04F1C0006F
:101D800004F016FF04F1D00004F012FF04F1E000AB
:101D900005F076F904F5907005F072F904F5B0706D
:101DA00005F06EF904F5D07005F06AF904F5F070ED
:101DB00005F066F904F5087005F062F904F518708D
:101DC00005F05EF904F5287005F05AF92046FFF792
:101DD0006DFF204610BD00BF30FD01002DE9F04130
:101DE000A4B0044604A805F04BF9684604F0E0FEF0
:101DF000D4F8B0004FF07C5115F0B6FC4FF07C5198
:101E00000746D4F8B40015F0AFFC4FF07C510546FE
:101E1000D4F8B80015F0A8FC04F5087605F10043E5
:101E200007F1004200F10041C4F82832C4F83C3206
:101E3000C4F82422C4F85822C4F83072C4F8380216
:101E4000C4F84052C4F84C72C4F85002C4F82C12C2
:101E5000C4F84412C4F85452314604F5187814A852
:101E600005F0BEFA04F1C00514A9404605F014F9C6
:101E70002A46314614A805F013FA14A9684604F05E
:101E80009DFED4F8BC10684604F044FF04F5B0771A
:101E90006946284604F09EFE04F5D0753A46314660
:101EA00014A805F091F914A9284605F0F5F8424662
:101EB000394614A805F088F914A904A805F0ECF82F
:101EC00004A9284605F008F904F5907604F5F072A7
:101ED000294614A805F04EF914A9304605F0DCF89F
:101EE0003046D4F8BC1005F02FF924B0BDE8F081DD
:101EF0002DE9F043B5B00446684604F059FE04A845
:101F000005F0BEF814A805F0BBF894F8A3301BB98F
:101F100094F8A230002B52D024AD04F1C00828461A
:101F200004F12801424604F1D00904F017FF2946C4
:101F3000484604F043FE04F5907604F528723146D5
:101F4000284605F017F9294604A805F0A5F804A9C4
:101F5000284605F027FB294614A805F09DF804F152
:101F6000E00714AA3146284605F02EF929463846DE
:101F700005F092F84A463946284605F091F9294677
:101F8000684604F01BFE6946404604F023FE04F553
:101F9000B074404604F0F6FE204605F00FFA3946CC
:101FA000204605F0B5F832462146284605F00CF9E2
:101FB0002946204605F070F835B0BDE8F08324AD21
:101FC000284604F1D00904F0F3FD2946484604F000
:101FD000F5FD04F1C008AEE72DE9F04790F8A13017
:101FE00084B004460D469246002B5BD03031B030B1
:101FF00004F02AFD04F1100805F140063146404680
:1020000004F11C0905F1500704F01EFD484639464D
:1020100004F01AFD94F8A53095F84C2084F8A4201B
:10202000002B48D1D5E90089D4E92A01B8EB00009A
:1020300069EB010115F052FB3D4915F049FCC4E97B
:102040002A89C4F8BC00002115F036FD38BB3A4699
:102050003146DAF874302046FFF75AFD2046FFF784
:10206000BDFE04F1C008204604F15407FFF740FF0D
:1020700004F144064046394604F0D2FE414630465B
:1020800004F09CFD012339462B722B7605F10C00E0
:1020900004F0DAFC314605F11C0004F08FFD04B0B9
:1020A000BDE8F08701A804F0C9FC01A904F1B00063
:1020B00004F0CAFC9EE7D5E90067DAF874304A46B6
:1020C00041462046C4E92A67FFF722FD002104F5B6
:1020D000087004F0F7FF002104F5B07004F0F2FF7F
:1020E0004FF07C52234604F14001C3F86021C3F84D
:1020F0006421C3F86821C3F86C2110338B42F4D1FA
:1021000004F1C00904F138084846414604F1440688
:1021100004F00CFF04F154074946304604F04EFD2C
:102120004146384604F090FC002384F8A530A9E726
:10213000002474490FF09ABE0220704710B5034B7B
:1021400003600446FFF790FC204610BD4CFD0100E3
:1021500010B5054B03600446FFF786FC2046E821D6
:1021600011F088FB204610BD4CFD010030B5012365
:1021700085B080F8A530044600F1540501A804F0AC
:102180005DFC01A9284604F05FFC294604F14400E7
:1021900004F0CCFE01A804F051FC01A904F1B00048
:1021A00004F052FC01A804F049FC01A904F110005C
:1021B00004F04AFC01A804F041FC01A904F11C0050
:1021C00004F042FC04F1380501A804F037FC01A931
:1021D000284604F039FC294604F1280004F0A6FE44
:1021E0000023C4F8E03005B030BD00BF2DE9F04F4A
:1021F000044683B0D4F8CC30D0F8B00000934FF050
:102200007C5115F0B1FA4FF07C510746D4F8B40078
:10221000D4F8C480D4F8C860D4F8C0A015F0A4FAEB
:102220004FF07C518146D4F8B80015F09DFA414634
:10223000834607F1004015F097FA494605463046B7
:1022400015F092FA0146284615F084F959460546DC
:10225000009815F089FA01462846D4F8BC5015F0CC
:1022600079F9294615F080FA514615F075F9394685
:10227000C4F8C000504615F077FA59460190304630
:1022800015F072FA019A0146104615F065F94946B3
:102290000190009815F068FA019A0146104615F071
:1022A00059F9294615F060FA414615F055F94946A5
:1022B000C4F8C400504615F057FA594601904046FC
:1022C00015F052FA019A0146104615F043F93946C5
:1022D0000190009815F048FA019A0146104615F051
:1022E0003BF9294615F040FA314615F035F95946C3
:1022F000C4F8C800504615F037FA494682464046B1
:1023000015F032FA0146504615F026F93946804656
:10231000304615F029FA0146404615F01BF92946CA
:1023200015F022FA009915F017F9C4F8CC0004F161
:10233000C00003B0BDE8F04F04F024BD10B5044662
:10234000FFF79CFB2046094B40F8B03B04F076FBBE
:1023500004F1C00004F02CFC04F1D00004F028FCCF
:102360002046FFF703FF204610BD00BF4CFD0100D3
:102370002DE9704390F8A33088B01BB990F8A230D3
:10238000002B63D000F1C00504462946684604F0DE
:1023900065FE04F1740604F12802694604A804F0FD
:1023A000D1FC04A9304604F009FC304604F0EAFCF4
:1023B000606F14F02FFD12F079F815F077F8216FA7
:1023C00015F0D2F914F026FD8046894612F02AF85D
:1023D00015F06CF849460646404611F0D9FFE26F09
:1023E000D4F88030C4F898208946A16FC4F89C3096
:1023F0008046C4F8941004F1940004F041FB49466F
:10240000404615F053F83146C4F88400D4F89400DF
:1024100015F0AAF93146C4F88800D4F8980015F0F0
:10242000A3F93146C4F88C00D4F89C0015F09CF94F
:1024300004F18406C4F89000304604F0A3FC314651
:10244000284604F0D9FB284604F09CFC08B0BDE8FF
:10245000708300BF2DE9F047D0F8E0300D4690F8CA
:10246000A110013384B004469246C0F8E030002940
:102470005CD005F13001B03004F0E6FA04F110064A
:1024800005F140084146304604F11C0705F15009AA
:1024900004F0DAFA3846494604F0D6FA94F8A53042
:1024A00095F84C2084F8A420002B48D1D5E900678A
:1024B000D4E92A01301A67EB010115F00FF933490D
:1024C00015F006FAC4E92A67C4F8BC00002115F02B
:1024D000F3FA40BBDAF874304A4641462046FFF72B
:1024E00017FB94F8A130002B4CD1204604F1C00812
:1024F00004F15407FFF73CFF04F144064046394617
:1025000004F08EFC4146304604F058FB0123394666
:102510002B722B7605F10C0004F096FA314605F18A
:102520001C0004F04BFB04B0BDE8F08701A804F0E8
:1025300085FA01A904F1B00004F086FA9EE7D5E916
:102540000089DAF874303A463146C4E92A892046CF
:1025500004F1C00904F13808FFF7DAFA04F144067F
:102560004846414604F0E2FC04F15407494630462F
:1025700004F024FB4146384604F066FA002384F850
:10258000A530C3E72046FFF731FEAEE700247449CB
:102590000FF06CBC704700BF10B51021044611F05D
:1025A00069F9204610BD00BF0249034A0160C260BC
:1025B000704700BF68FD01000110013870B5047953
:1025C0000CB1012070BD05460E48FFF7E5F9012169
:1025D000E8790FF081FEAE680B490C4802E0172A3B
:1025E00008D0144631F8023F90FBF3F39E4204F109
:1025F0000102F4D3064B53F8243043F06053EB60F0
:10260000012070BDD888FF1F06FC0100006CDC02B1
:1026100038FC01000148FFF7FDB900BFD888FF1F53
:10262000F0B505460846297983B017461C4661B1C6
:102630000A23114600932246089B0FF001F9001B64
:10264000B0FA80F0400903B0F0BD384EEA68F37A82
:102650001BB372B6F37AD807194609D5DFF8E8E05C
:10266000F068DEF800100140B161CEF800101946A4
:10267000980709D5DFF8D4E03069DEF80030F17A48
:102680000340F361CEF800304B0705D52849736944
:102690000868034033620B6062B63368D9689142C0
:1026A00007D0244818602449DA6042F0804018615D
:1026B00019600021E8790FF0FBFD316847F08007D1
:1026C0004FF00043CB624F63CB6A002BFCDA8B6B7D
:1026D00084B1089A4FF0004710190024CF624C6370
:1026E000CB6A002BFCDA8B6B02F8013B824201D0F3
:1026F0003168F3E70121E8790FF0DAFDF37A0B494D
:102700001A4683B1D80703D50C4A896911601A4665
:10271000990703D50A4BF169F27A1960530702D57C
:10272000084B326A1A60012003B0F0BDD888FF1F41
:1027300088E100E001403F0000003F8000E100E050
:1027400004E100E008E100E080E100E084E100E075
:10275000F8B505460846297917461C4651B11A4670
:102760003946069B0FF0F2F8044600286DD001248C
:102770002046F8BD3A4EEA68F37A1BB372B6F37A94
:10278000D807194609D5DFF8FCE0F068DEF800103C
:102790000140B161CEF800101946980709D5DFF85D
:1027A000E8E03069DEF80030F17A0340F361CEF8FA
:1027B00000304B0705D52B49736908680340336225
:1027C0000B6062B63368D968914207D0264818601A
:1027D0002649DA6042F08040186119600021E879EA
:1027E0000FF066FD31684FF00043CB624F63C86A5B
:1027F0000028FCDA8B6B6CB1069802194FF000448C
:1028000010F8013BCC624B63CB6A002BFCDA8242AE
:102810008B6BF5D10121E8790FF04AFDF37A10496D
:102820001A46002BA3D0D80703D5114A8969116035
:102830001A46990703D50F4BF169F27A19605307CD
:1028400095D50D4B326A1A6091E7079B1B78002BD8
:102850008ED0079A09490A4810F0D2FE88E700BFD7
:10286000D888FF1F88E100E001403F0000003F8062
:1028700000E100E004E100E008E100E070FD01009B
:102880005C90FF1F80E100E084E100E0F8B50546C0
:102890000846297917461E4681B11A4639460FF077
:1028A0007BF8044600286BD1069B1B78002B68D070
:1028B000069A3549354810F0A3FE62E0344CEB68C7
:1028C000E27A1AB372B6E27AD007114609D5DFF878
:1028D000DCE0E068DEF800100140A161CEF80010F5
:1028E0001146900709D5DFF8C8E02069DEF800201E
:1028F000E17A0240E261CEF800204A0705D5254979
:1029000062690868024022620A6062B62168CA6889
:102910009A4207D020480860204ACB6043F08040AC
:1029200008610A600021E8790FF0C2FC21684FF0CD
:102930000043CB624F63C86A0028FCDA4FF00043C3
:102940008A6BCB624E63CB6A002BFCDA8B6BE87927
:1029500001210FF0ADFCE37A0D491A4683B1D80787
:1029600003D50F4A896911601A46990703D50D4BA3
:10297000E169E27A1960530702D50B4B226A1A60AB
:1029800001242046F8BD00BF70FD01005C90FF1FD0
:10299000D888FF1F88E100E001403F0000003F8031
:1029A00000E100E004E100E008E100E080E100E097
:1029B00084E100E008460FF0B7BC00BF0FF056BA44
:1029C00010B5064B0360044600F51B7009F018FEB5
:1029D0002046FFF7DFFD204610BD00BFD4170200E0
:1029E00010B5084B0360044600F51B7009F008FEA3
:1029F0002046FFF7CFFD20464FF4247110F03AFF38
:102A0000204610BDD417020038B5044608460D46CE
:102A100016F016FB2368024629465B682046984755
:102A20000546204610F0D4FD284438BD2DE9F04F6E
:102A30004FF0010885B080F8048004468B4691462B
:102A40009A46FFF7BBFD002800F0AA80BF4E019612
:102A50000DF10E0700974346752268212046FFF7C7
:102A6000DFFD054638B19DF80E30712B00F0BE80B9
:102A7000682B00F0C480019600970123752269211C
:102A80002046FFF7CDFD054638B19DF80E30712B7D
:102A900000F0BD80682B00F0C7800F2201960097E0
:102AA00001236A212046FFF7BBFDA84A054638B13D
:102AB0009DF80E30D72B00F01C81D42B00F0C9807C
:102AC0000F220196009701236B212046FFF7A8FDF6
:102AD0009E4A054638B19DF80E30D72B00F03C8158
:102AE000D42B00F0D9800196009701230F226A2190
:102AF0002046FFF795FD054620B19DF80E30D42BFA
:102B000000F09D800196009701230F226B21204643
:102B1000FFF786FD054620B19DF80E30D42B00F05E
:102B2000E680019600970123002268212046FFF7E6
:102B300077FD054620B19DF80E300F2B00F039814E
:102B4000019600970123002269212046FFF768FDC6
:102B5000054620B19DF80E300F2B00F03481019610
:102B600000970123002228212046FFF759FD054642
:102B700020B19DF80E30A02B00F027810196009720
:102B80000123002229212046FFF74AFD054620B1F6
:102B90009DF80E30A02B00F022812046FFF73AFD71
:102BA000002609232671A671E3712046FFF706FD72
:102BB00098B1664B01930DF10E030093752201232A
:102BC00068212046FFF72CFD054618B19DF80E3010
:102BD000712B2BD02046FFF71DFD5D495D4810F09D
:102BE0000FFD0025284605B0BDE8F08F06226823BA
:102BF000CBF800208AF8003089F80080F2E7022242
:102C0000CBF800208AF8003089F80080EAE7062136
:102C1000692201232846CBF800108AF8002089F8A1
:102C2000003005B0BDE8F08F0221F1E706226823ED
:102C3000CBF800208AF8003089F80060D2E7042140
:102C40006A220123CBF800108AF8002089F80030AE
:102C5000C8E70DF10F080192CDF8008001230F2283
:102C60001E212046FFF7DCFC18B19DF80F30492BE0
:102C700010D00196CDF8008001230F221D2120469F
:102C8000FFF7CEFC00283FF41BAF9DF80F30492B17
:102C90007FF416AF0521D3E70DF10F080192CDF8AF
:102CA000008001230F221D212046FFF7B9FC18B137
:102CB0009DF80F30492B10D00196CDF800800123EC
:102CC0000F221E212046FFF7ABFC00283FF40BAF7C
:102CD0009DF80F30492B7FF406AF05216B220123AD
:102CE000CBF800108AF8002089F800307AE7042138
:102CF000F4E70DF10F080192CDF8008001230F22B7
:102D00001E212046FFF78CFC18B19DF80F30492B8F
:102D10006FD00196CDF8008001230F221D2120469F
:102D2000FFF77EFC18B19DF80F30492B61D001965A
:102D3000CDF800800123272219212046FFF770FCDF
:102D4000054600283FF4BCAE072179E7682D020054
:102D500088FD01005C90FF1F0DF10F080192CDF876
:102D6000008001230F221D212046FFF759FC18B1D6
:102D70009DF80F30492B3ED00196CDF800800123FD
:102D80000F221E212046FFF74BFC18B19DF80F3093
:102D9000492B30D00196CDF800800123272219213C
:102DA0002046FFF73DFC054600283FF49CAE072176
:102DB00094E7082168220123CBF800108AF800204C
:102DC00089F800300EE7082122E709212822012393
:102DD000CBF800108AF8002089F8003002E70921BA
:102DE00029220123CBF800108AF8002089F800304E
:102DF000F8E6032124E7032170E700BFF0B40922BD
:102E0000494BC271192432225021282700254FF046
:102E10007E568360C0F8A42000230122C0F8A84099
:102E2000C0F8B81002240421C0F8BC701027446117
:102E300045658565C56545668566C56645670665FC
:102E4000032506660667C0F8B070052603610376A1
:102E50008371C361036280F8243080F8253080F8E4
:102E6000403080F8783080F8943002714271C0F8B8
:102E7000AC10C0F8B470C0F8C870C0F8CC700727A8
:102E8000C0F8C050C0F8C450C0F8D040C0F8E450FA
:102E9000C0F8E850C0F80841C0F81441C0F8284113
:102EA000C0F8E060C0F80C61C0F8D420C0F8D810B9
:102EB000C0F8DC20C0F8EC10C0F8F030C0F8F430F6
:102EC000C0F8F820C0F8FC10C0F80021C0F80411C8
:102ED000C0F81021C0F81821C0F81C11C0F820213A
:102EE000C0F82411C0F83021C0F83431C0F83821BE
:102EF000C0F83C11C0F84021C0F82C61C0F8446112
:102F0000C0F84851C0F84C51C0F85C41C0F860515D
:102F1000C0F86441C0F85871C0F85011C0F854317D
:102F2000C0F86821F0BC704720A10700C1EBC101C7
:102F300070B58D0000242846947016460EF0DEFF12
:102F4000FC2801D0204670BD681C0EF0D7FF152864
:102F5000F8D13446AD1B1C3628190EF0CFFF04F80B
:102F6000010BB442F8D1012070BD00BF0EF07EBF4E
:102F70002DE9F041ADF5187D074600F5B672012345
:102F800066A89E4909F076FC98AA9DF89C0112F863
:102F9000BC3D689987F8700287F87832C7F87412D8
:102FA00007F51B7607F2792307F2862012F8011F36
:102FB00003F8011B8342F9D16D9BC7F88832304674
:102FC00009F02EFB804666A809F01AFBB8F1000F45
:102FD00049D00DF10705002406E00D2814D00A2879
:102FE00012D00134C82C39D0304609F093FAC0B25F
:102FF000FF2805F8010FF0D1304609F003FB4046E9
:103000000DF5187DBDE8F08102AD00232B552B781E
:10301000232BDED013F0DF0FDBD034AA66AB784968
:10302000284615F095FD02287CD1764934A815F084
:103030002BFE10B3744934A815F026FE002862D088
:10304000724934A815F020FEE0B9714966A815F060
:103050001BFEB0FA80F040093871BAE702AD0023D8
:1030600085F8C730D3E73B683846DB689847804629
:1030700040460DF5187DBDE8F08166A814F016FFF6
:103080003861A6E7634934A815F0FEFD00283FD05B
:10309000614934A815F0F8FD00283ED05F4934A8F6
:1030A00015F0F2FD002848D05D4934A815F0ECFD7C
:1030B000002847D05B4934A815F0E6FD002800F051
:1030C0009780594934A815F0DFFD002800F08B8067
:1030D000564934A815F0D8FD00287FD0544934A8AB
:1030E00015F0D2FD002873D0524934A815F0CCFD5C
:1030F00068BB474966A815F0C7FDB0FA80F04009E3
:1031000087F8250065E766A814F0D0FE786160E7CF
:1031100066A814F0CBFE78715BE766A814F0C6FED3
:10312000B87156E72A464449444810F069FA3046D7
:1031300009F068FA4FF0000861E766A814F0B6FEDF
:10314000F87146E766A814F0B1FEB86041E73C4963
:1031500034A815F099FD002800F08885394934A875
:1031600015F092FD002800F07885374934A815F055
:103170008BFD002800F06885344934A815F084FDE3
:10318000002800F05885324934A815F07DFD00284C
:1031900000F048852F4934A815F076FD002800F08E
:1031A00038852D4934A815F06FFD002800F0B9804E
:1031B0002A4934A815F068FD002851D1144966A8A1
:1031C00015F062FDB0FA80F0400987F8400000E792
:1031D00066A814F06BFE87F82400FAE666A814F0DF
:1031E00065FE3862F5E666A814F060FEF861F0E668
:1031F00066A814F05BFE3876EBE600BFD49EFF1F96
:10320000BCFD0100E8FD0100F0FD0100FCFD010036
:1032100008FE010010FE010018FE010020FE010062
:103220002CFE010038FE010048FE010058FE01009E
:1032300068FE01007CFE0100C8FD01005C90FF1FDC
:103240008CFE0100A0FE0100B0FE0100C0FE0100E6
:10325000D0FE0100E0FE0100F0FE010008FF0100C9
:10326000594934A815F010FD002800F0C9845749C9
:1032700034A815F009FD002800F0B984544934A899
:1032800015F002FD002800F0A984524934A815F079
:10329000FBFC002800F099844F4934A815F0F4FC99
:1032A000002800F089844D4934A815F0EDFC002871
:1032B00000F079844A4934A815F0E6FC002800F0B3
:1032C0006984484934A815F0DFFC002800F05984CF
:1032D000454934A815F0D8FC002800F0498443493A
:1032E00034A815F0D1FC002800F03984404934A8F6
:1032F00015F0CAFC00285ED03E4934A815F0C4FC85
:10330000002850D03C4934A815F0BEFC88B93B4990
:1033100066A815F0B9FCB0FA80F0400987F878008B
:1033200057E601AA364966A815F012FC019B7B6797
:103330004FE6344934A815F0A7FC002800F00684B5
:10334000314934A815F0A0FC002800F0F5832F497E
:1033500034A815F099FC002800F0E4832C4934A827
:1033600015F092FC002800F0D3832A4934A815F008
:103370008BFC002800F03B82274934A815F084FC20
:10338000002800F02A82254934A815F07DFC002889
:1033900046D11A4966A815F077FCB0FA80F04009CA
:1033A00087F8940015E601AA154966A815F0D0FB28
:1033B000019B3B670DE601AA114966A815F0C8FB01
:1033C000019BFB6605E600BF24FF010038FF0100FA
:1033D0004CFF010060FF010074FF010088FF010045
:1033E0009CFF0100B0FF0100C4FF0100D8FF0100F5
:1033F000ECFF0100000002001400020008FE0100C2
:103400009CFE01002400020034000200440002007F
:1034100054000200640002007400020084000200F4
:10342000B14934A815F030FC002800F05C83AF49A6
:1034300034A815F029FC002800F04B83AC4934A8CF
:1034400015F022FC002800F03A83AA4934A815F0B0
:103450001BFC002800F02C83A74934A815F014FCAD
:10346000002800F01E83A54934A815F00DFC0028A3
:1034700000F01083A24934A815F006FC002800F0E3
:103480000283A04934A815F0FFFB002800F0F48265
:103490009D4934A815F0F8FB002800F0E6829B490E
:1034A00034A815F0F1FB002800F0D882984934A820
:1034B00015F0EAFB002800F0CA82964934A815F0FE
:1034C000E3FB002800F0BC82934934A815F0DCFB34
:1034D000002800F0AE82914934A815F0D5FB0028F1
:1034E00000F0A0828E4934A815F0CEFB002800F031
:1034F00092828C4934A815F0C7FB002800F0848222
:10350000894934A815F0C0FB002800F0768287496D
:1035100034A815F0B9FB002800F06882844934A86B
:1035200015F0B2FB002800F05A82824934A815F049
:10353000ABFB002800F04C827F4934A815F0A4FBB7
:10354000002800F03E827D4934A815F09DFB00283C
:1035500000F030827A4934A815F096FB002800F07C
:103560002282784934A815F08FFB002800F01482DD
:10357000754934A815F088FB002800F006827349CD
:1035800034A815F081FB002800F0F881704934A8B8
:1035900015F07AFB002800F0EA816E4934A815F096
:1035A00073FB002800F0DC816B4934A815F06CFB3C
:1035B000002800F0CE81694934A815F065FB002889
:1035C00000F0C081664934A815F05EFB002800F0C9
:1035D000B281644934A815F057FB002800F0A4819B
:1035E000614934A815F050FB002800F096815F492E
:1035F00034A815F049FB002800F088815C4934A804
:1036000015F042FB002800F07A815A4934A815F0E1
:103610003BFB002800F06C81574934A815F034FBBF
:10362000002800F05E81554934A815F02DFB0028D4
:1036300000F05081524934A815F026FB002800F014
:103640004281504934A815F01FFB002800F0348156
:103650004D4934A815F018FB002800F026814B498D
:1036600034A815F011FB002800F01881484934A84F
:1036700015F00AFB002800F00A81464934A815F02D
:1036800003FB002800F0FC80434934A815F0FCFA45
:10369000002800F0EE80414934A815F0F5FA002822
:1036A00000F0E0803E4934A815F0EEFA002800F062
:1036B000D2803C4934A815F0E7FA002800F0C48015
:1036C000394934A815F0E0FA002800F0B6803749EF
:1036D00034A815F0D9FA002800F0A880344934A89D
:1036E00015F0D2FA66E000BF94000200A0000200CC
:1036F000AC000200B8000200D4000200F00002009A
:103700000401020014010200240102004001020031
:103710005C0102006C0102007C0102008C010200CD
:103720009C010200B8010200CC010200E00102008D
:10373000F40102001002020024020200380202001A
:10374000540202006C020200880202009C02020085
:10375000B0020200C4020200E0020200F80202000D
:1037600018030200300302004C030200640302004D
:103770007C03020090030200B0030200C8030200B1
:10378000E8030200000402001804020028040200FA
:1037900038040200480402006004020070040200C1
:1037A000800402009C040200B0040200C80402006D
:1037B000D8040200002832D0D04934A815F064FAA9
:1037C00030B334A8CE4915F05FFAD0B966A814F02A
:1037D0006DFBC7F86801FFF7FCBB01AAC94966A8E1
:1037E00015F0B6F9019BC7F89030FFF7F2BB01AABC
:1037F000C44966A815F0ACF9019BC7F88C30FFF7F7
:10380000E8BB2A46C049C1480FF0FAFEFFF7E1BB0A
:1038100066A814F04BFBC7F86401FFF7DABB66A893
:1038200014F044FBC7F86001FFF7D3BB66A814F09F
:103830003DFBC7F85C01FFF7CCBB66A814F036FB74
:10384000C7F85801FFF7C5BB66A814F02FFBC7F8EF
:103850005401FFF7BEBB66A814F028FBC7F850015F
:10386000FFF7B7BB66A814F021FBC7F84C01FFF7C0
:10387000B0BB66A814F01AFBC7F84801FFF7A9BB54
:1038800066A814F013FBC7F84401FFF7A2BB66A8B3
:1038900014F00CFBC7F83801FFF79BBB66A814F0C7
:1038A00005FBC7F83C01FFF794BB66A814F0FEFACD
:1038B000C7F84001FFF78DBB66A814F0F7FAC7F808
:1038C0003401FFF786BB66A814F0F0FAC7F83001A0
:1038D000FFF77FBB66A814F0E9FAC7F82C01FFF7E1
:1038E00078BB66A814F0E2FAC7F82801FFF771BBAD
:1038F00066A814F0DBFAC7F82401FFF76ABB66A8D4
:1039000014F0D4FAC7F81801FFF763BB66A814F0E7
:10391000CDFAC7F81C01FFF75CBB66A814F0C6FA25
:10392000C7F82001FFF755BB66A814F0BFFAC7F827
:103930001401FFF74EBB66A814F0B8FAC7F81001DF
:10394000FFF747BB66A814F0B1FAC7F80C01FFF700
:1039500040BB66A814F0AAFAC7F80801FFF739BB04
:1039600066A814F0A3FAC7F80401FFF732BB66A8F3
:1039700014F09CFAC7F8F800FFF72BBB66A814F008
:1039800095FAC7F8FC00FFF724BB66A814F08EFA7E
:10399000C7F80001FFF71DBB66A814F087FAC7F847
:1039A000F400FFF716BB66A814F080FAC7F8F00021
:1039B000FFF70FBB66A814F079FAC7F8EC00FFF721
:1039C00008BB66A814F072FAC7F8E800FFF701BB5D
:1039D00066A814F06BFAC7F8E400FFF7FABA66A815
:1039E00014F064FAC7F8E000FFF7F3BA66A814F021
:1039F0005DFAC7F8D400FFF7ECBA66A814F056FADF
:103A0000C7F8D800FFF7E5BA66A814F04FFAC7F870
:103A1000DC00FFF7DEBA66A814F048FAC7F8D00059
:103A2000FFF7D7BA66A814F041FAC7F8CC00FFF741
:103A3000D0BA66A814F03AFAC7F8C800FFF7C9BAB6
:103A400066A814F033FAC7F8C400FFF7C2BA66A834
:103A500014F02CFAC7F8C000FFF7BBBA66A814F040
:103A600025FAC7F8BC00FFF7B4BA66A814F01EFA2E
:103A7000C7F8B800FFF7ADBA66A814F017FAC7F890
:103A8000B400FFF7A6BA66A814F010FAC7F8B000A1
:103A9000FFF79FBA66A814F009FAC7F8AC00FFF761
:103AA00098BA66A814F002FAC7F8A800FFF791BA0E
:103AB00066A814F0FBF9C7F8A400FFF78ABA01AAB8
:103AC000104966A815F044F8019BC7F8A030FFF72D
:103AD00080BA01AA0B4966A815F03AF8019BC7F80D
:103AE0009C30FFF776BA01AA064966A815F030F8AF
:103AF000019BC7F89830FFF76CBA00BFF0040200D2
:103B0000000502009CFE0100100502005C90FF1FF2
:103B100001AA5B4966A815F01BF8019BC7F888301D
:103B2000FFF757BA01AA564966A815F011F8019B8C
:103B3000C7F88430FFF74DBA01AA514966A815F0BD
:103B400007F8019BC7F88030FFF743BA01AA4C4938
:103B500066A814F0FDFF019BFB67FFF73ABA01AAC4
:103B6000474966A814F0F4FF019BBB66FFF731BA22
:103B700001AA434966A814F0EBFF019B7B66FFF79F
:103B800028BA01AA3E4966A814F0E2FF019B3B66F1
:103B9000FFF71FBA01AA3A4966A814F0D9FF019BA2
:103BA000FB65FFF716BA01AA354966A814F0D0FFE5
:103BB000019BBB65FFF70DBA01AA314966A814F055
:103BC000C7FF019B7B65FFF704BA01AA2C4966A8D1
:103BD00014F0BEFF019B3B65FFF7FBB901AA284922
:103BE00066A814F0B5FF019BFB64FFF7F2B901AAC8
:103BF000234966A814F0ACFF019BBB64FFF7E9B949
:103C000001AA1F4966A814F0A3FF019B7B64FFF77C
:103C1000E0B901AA1A4966A814F09AFF019BFB6358
:103C2000FFF7D7B901AA164966A814F091FF019BC6
:103C3000BB63FFF7CEB901AA114966A814F088FF4B
:103C4000019B7B63FFF7C5B901AA0D4966A814F073
:103C50007FFF019B3B63FFF7BCB901AA084966A837
:103C600014F076FF019BFB62FFF7B3B901AA044988
:103C700066A814F06DFF019BBB62FFF7AAB900BFF5
:103C80009CFE0100F0B589B00446FFF7B7F890F844
:103C90008C1261B980F8251001AAFFF747F918B115
:103CA0009DF80630012B06D0012009B0F0BDFFF7CA
:103CB0005FF909B0F0BD029F039E049D0598069927
:103CC000079A84F82530A762E66225636063A163E2
:103CD000E263E9E770B504460D46FEF765FC204651
:103CE000284B40F8283B02F0A9FE04F1340002F012
:103CF000A5FE04F1440002F0A1FE04F17C0002F0F4
:103D00009DFE04F1880002F099FE04F1980002F093
:103D100095FE04F51B7008F065FC284615F090F937
:103D2000C82801D82B782BBB174918480FF068FC1E
:103D3000174B07CB04F5B6751E78C4F86C012E73CB
:103D40006960AA6001210A200EF0C6FA0A21114812
:103D500008F0F2FC38B1012384F88C322046FFF7DA
:103D600091FF204670BD84F88C022046FFF78AFF41
:103D7000204670BD2A46084904F5B67014F0C2FE0C
:103D8000E0E700BFD4170200380502005C90FF1F77
:103D900068050200D49EFF1F7805020070B500F58B
:103DA0001B74084616460D4615F04AF92946024688
:103DB000204608F09DFB20460122064908F098FBAA
:103DC000314620460FF06AFC2046BDE870400FF0F7
:103DD000FFBB00BF8405020070B500F51B7482B004
:103DE000084616460D4615F02BF929460246204690
:103DF00008F07EFB01222046094908F079FB304695
:103E000013F008F8022502460B46009520460FF0F5
:103E10004FFC204602B0BDE870400FF0D9BB00BF98
:103E20008405020070B500F51B74084616460D4661
:103E300015F006F929460246204608F059FB2046AF
:103E400001220C4908F054FB4EB9204605220A49CC
:103E500008F04EFB2046BDE870400FF0B9BB20468D
:103E60000422064908F044FB2046BDE870400FF0EC
:103E7000AFBB00BF840502008805020008FE0100F8
:103E8000F0B590F88C3289B005463BBB90F82530F0
:103E9000066B446BD0F828E0C76AEA6B806B8DF83C
:103EA0000230FC21152303960494CDF804E06D46FE
:103EB0000297059006928DF800108DF801306C463F
:103EC0000DF11B0601E014F8011F601B0EF030F825
:103ED000B442F8D10126304609B0F0BD00F5B67401
:103EE0002146D74808F03AFD224668461323D449B4
:103EF00008F0C0FC08AA029B12F8140D9DF80410EB
:103F000085F87802C5F8743285F8701205F51B74CF
:103F100005F2792305F2862012F8011F03F8011B30
:103F20009842F9D1079BC5F88832204608F078FB03
:103F30000646684608F064FB002E02F0E784022281
:103F4000C049204608F0D4FABF492046FEF75CFD80
:103F50000222BC49204608F0CBFABC492046FEF7B5
:103F600053FD0222B749204608F0C2FAB84920465C
:103F7000FEF74AFD20460FF02BFB0222B1492046F6
:103F800008F0B6FAB3492046FEF73EFD0222AD49DD
:103F9000204608F0ADFA0022AC49204608F0A8FA05
:103FA00020460FF015FB20460FF012FB0222A54918
:103FB000204608F09DFA0B22A749204608F098FAFF
:103FC00020460FF005FB02229E49204608F090FA99
:103FD0001322A249204608F08BFA20460FF0F8FA87
:103FE00002229849204608F083FA38229C4920464C
:103FF00008F07EFA20460FF0EBFA022291492046A3
:1040000008F076FA19229749204608F071FA2046FE
:104010000FF0DEFA02228B49204608F069FA1B22D3
:104020009149204608F064FA20460FF0D1FA0222A6
:104030008449204608F05CFA1D228C49204608F08D
:1040400057FA20460FF0C4FA02227E49204608F0B3
:104050004FFA11228649204608F04AFA20460FF00E
:10406000B7FA02227749204608F042FA192281491C
:10407000204608F03DFA20460FF0AAFA02227149C4
:10408000204608F035FA1E227B49204608F030FA17
:1040900020460FF09DFA2A6978492846FFF77EFEF0
:1040A00020460FF095FA02226649204608F020FAD1
:1040B00000226649204608F01BFA20460FF088FAD5
:1040C00002226049204608F013FA13226C49204668
:1040D00008F00EFA20460FF07BFA022259492046DA
:1040E00008F006FA3B226749204608F001FA20460C
:1040F0000FF06EFA02225349204608F0F9F9132214
:104100006149204608F0F4F920460FF061FA0222D6
:104110004C49204608F0ECF90A225C49204608F098
:10412000E7F920460FF054FA6A6959492846FFF723
:1041300035FE20460FF04CFA02224249204608F094
:10414000D7F942492046FEF75FFC02223D4920464E
:1041500008F0CEF94F492046FEF756FC2A794E4921
:104160002846FFF75FFE20460FF032FA022235495B
:10417000204608F0BDF935492046FEF745FC0222ED
:104180003049204608F0B4F944492046FEF73CFC8B
:104190006A7943492846FFF701FE20460FF018FAD6
:1041A00002222849204608F0A3F928492046FEF7B4
:1041B0002BFC02222349204608F09AF9394920466F
:1041C000FEF722FCAA7938492846FFF7E7FD20468A
:1041D0000FF0FEF902221B49204608F089F91B491D
:1041E0002046FEF711FC02221649204608F080F90D
:1041F0002E492046FEF708FCEA792D492846FFF7AC
:10420000CDFD20460FF0E4F902220E49204608F0C9
:104210006FF90E492046FEF7F7FB022209492046B6
:1042200008F066F923492046FEF7EEFBAA6822490A
:104230002846FFF7B3FD20460FF0CAF93EE000BF65
:10424000D49EFF1F80050200B8050200682D020001
:1042500000060200180602002C06020038060200C2
:104260004C06020088060200A4060200C0060200F6
:10427000E0060200F406020010070200E8FD01005B
:104280003007020044070200800702009407020082
:10429000F0FD0100A0070200FCFD0100CC070200B8
:1042A00010FE0100E807020018FE010004080200E9
:1042B00020FE0100240802002CFE01000222CB494E
:1042C000204608F015F9CA492046FEF79DFB022258
:1042D000C649204608F00CF9C6492046FEF794FB73
:1042E0002A7EC5492846FFF759FD20460FF070F990
:1042F0000222BE49204608F0FBF8BD492046FEF7E1
:1043000083FB0222B949204608F0F2F8BB49204657
:10431000FEF77AFBEA69BA492846FFF73FFD2046D7
:104320000FF056F90222B149204608F0E1F8B549EC
:104330002046FEF769FB0222AC49204608F0D8F877
:10434000B1492046FEF760FB0222A849204608F04A
:10435000CFF8AE492046FEF757FB0222A34920467C
:1043600008F0C6F8AA492046FEF74EFB02229F49F4
:10437000204608F0BDF8A7492046FEF745FB02227B
:104380009A49204608F0B4F8A3492046FEF73CFBC2
:1043900002229649204608F0ABF8A0492046FEF7D5
:1043A00033FB2A6A9E492846FFF7F8FC20460FF0A7
:1043B0000FF902228D49204608F09AF88C492046D0
:1043C000FEF722FB02228949204608F091F8954920
:1043D0002046FEF719FB95F8242093492846FFF75D
:1043E000DDFC20460FF0F4F802228049204608F058
:1043F0007FF88E492046FEF707FB02227B492046C4
:1044000008F076F87A492046FEF7FEFA20460FF0CB
:10441000DFF802227549204608F06AF884492046F0
:10442000FEF7F2FA95F8252082492846FFF7FAFCB4
:10443000AA6A81492846FFF7CFFCEA6A7F492846E5
:10444000FFF7CAFC2A6B7E492846FFF7C5FC6A6B5A
:104450007C492846FFF7C0FCAA6B7B492846FFF73A
:10446000BBFCEA6B79492846FFF7B6FC20460FF003
:10447000AFF802225D49204608F03AF86B49204621
:10448000FEF7C2FA02225949204608F031F858498D
:104490002046FEF7B9FA20460FF09AF80222534957
:1044A000204608F025F86A492046FEF7ADFA0222B8
:1044B0004E49204608F01CF866492046FEF7A4FA4B
:1044C0006A6F65492846FFF787FC20460FF080F8A1
:1044D00002224649204608F00BF854492046FEF7D0
:1044E00093FA02224149204608F002F8404920464A
:1044F000FEF78AFA20460FF06BF802223B4920466D
:1045000007F0F6FF55492046FEF77EFA95F8402061
:1045100053492846FFF786FC6A6C52492846FFF744
:104520005BFCAA6C50492846FFF756FCEA6C4F49E1
:104530002846FFF751FC2A6D4D492846FFF74CFCF1
:104540006A6D4C492846FFF747FCAA6D4A49284640
:10455000FFF742FCEA6D49492846FFF73DFC2A6E09
:1045600047492846FFF738FC6A6E46492846FFF758
:1045700033FCAA6E44492846FFF72EFCEA6E4349F5
:104580002846FFF729FC2A6F41492846FFF724FCFB
:1045900020460FF01DF802221449204607F0A8FF1C
:1045A00022492046FEF730FA02221049204607F041
:1045B0009FFF0F492046FEF727FA20460FF008F824
:1045C00002220A49204607F093FF32492046FEF7AF
:1045D0001BFA95F8782030492846FFF723FCEA6F4C
:1045E0002E492846FFF7F8FB5AE000BF800502007D
:1045F000682D02003408020038FE01007408020031
:1046000048FE0100A008020038060200B8080200B7
:10461000E0080200F0080200000902001009020090
:1046200058FE01002009020068FE0100B8050200E2
:10463000680902007CFE01008CFE0100A0FE010062
:10464000B0FE0100C0FE0100D0FE0100E0FE01004E
:104650007C09020098090200F0FE0100E409020052
:1046600008FF010024FF010038FF01004CFF01009A
:1046700060FF010074FF010088FF01009CFF010042
:10468000B0FF0100C4FF0100D8FF0100ECFF0100F2
:1046900000000200040A02001400020024000200CC
:1046A000D5F88020D4492846FFF796FBD5F884201A
:1046B000D2492846FFF790FBD5F88820D0492846F4
:1046C000FFF78AFBD5F88C20CE492846FFF784FBFC
:1046D000D5F89020CC492846FFF77EFB20460EF007
:1046E00077FF0222C949204607F002FFC849204649
:1046F000FEF78AF90222C549204607F0F9FEC549AE
:104700002046FEF781F920460EF062FF0222BF49E3
:10471000204607F0EDFEC0492046FEF775F995F8F2
:104720009420BE492846FFF77DFBD5F89820BC4968
:104730002846FFF751FBD5F89C20BA492846FFF7D9
:104740004BFBD5F8A020B8492846FFF745FB20468B
:104750000EF03EFF0222AD49204607F0C9FEAC49EB
:104760002046FEF751F90222A849204607F0C0FE74
:10477000A8492046FEF748F90222A449204607F03E
:10478000B7FEAA492046FEF73FF902229F4920467C
:1047900007F0AEFE9F492046FEF736F920460EF0A0
:1047A00017FF02229949204607F0A2FEA0492046A1
:1047B000FEF72AF9D5F8A4209E492846FFF7EEFA1D
:1047C00020460EF005FF02229049204607F090FE99
:1047D00090492046FEF718F902228C49204607F03E
:1047E00087FE95492046FEF70FF9D5F8A820934992
:1047F0002846FFF7D3FA20460EF0EAFE022283494C
:10480000204607F075FE83492046FEF7FDF8022298
:104810007E49204607F06CFE89492046FEF7F4F8F1
:1048200002227A49204607F063FE86492046FEF7B9
:10483000EBF802227549204607F05AFE82492046CD
:10484000FEF7E2F802227149204607F051FE7F4947
:104850002046FEF7D9F802226C49204607F048FEB0
:104860007B492046FEF7D0F802226849204607F02F
:104870003FFE78492046FEF7C7F8022263492046EA
:1048800007F036FE74492046FEF7BEF802225F4963
:10489000204607F02DFE71492046FEF7B5F8D5F801
:1048A000AC206F492846FFF779FA20460EF090FEBB
:1048B00002225649204607F01BFE56492046FEF7C5
:1048C000A3F802225149204607F012FE654920460E
:1048D000FEF79AF802224D49204607F009FE624988
:1048E0002046FEF791F802224849204607F000FED4
:1048F0005E492046FEF788F802224449204607F028
:10490000F7FD5B492046FEF77FF802223F4920462B
:1049100007F0EEFD57492046FEF776F8D5F8B020AF
:1049200055492846FFF73AFA20460EF051FE02227A
:104930003649204607F0DCFD36492046FEF764F88C
:1049400002223249204607F0D3FD4C492046FEF7AB
:104950005BF802222D49204607F0CAFD484920464F
:10496000FEF752F802222949204607F0C1FD4549C9
:104970002046FEF749F802222449204607F0B8FDF8
:1049800041492046FEF740F802222049204607F020
:10499000AFFD3E492046FEF737F8D5F8B4203C4934
:1049A0002846FFF7FBF920460EF012FE02221749B7
:1049B000204607F09DFD16492046FEF725F8022205
:1049C0001249204607F094FD12492046FEF71CF8D4
:1049D00002220E49204607F08BFD2E492046FEF7A5
:1049E00013F802220949204607F082FD09492046B2
:1049F000FEF70AF850E000BF340002004400020055
:104A000054000200640002007400020080050200ED
:104A1000B8050200682D0200180A02008400020096
:104A200094000200A0000200AC000200300A020064
:104A3000440A0200B8000200700A0200D40002001A
:104A4000A00A0200C00A0200E00A0200000B0200F5
:104A5000200B0200400B0200600B0200800B0200E2
:104A6000F00002009C0B0200B80B0200DC0B0200FD
:104A7000000C0200240C020004010200480C020099
:104A8000640C0200740C0200840C0200940C0200FE
:104A900014010200A40C020020460EF099FD02222F
:104AA000D249204607F024FDD1492046FDF7ACFF4E
:104AB000D5F8B820CF492846FFF770F920460EF008
:104AC00087FD0222C949204607F012FDCA49204647
:104AD000FDF79AFF0222C549204607F009FDC749A4
:104AE0002046FDF791FFD5F8BC20C5492846FFF7C1
:104AF00055F920460EF06CFD0222BC49204607F015
:104B0000F7FCBD492046FDF77FFF0222B74920464A
:104B100007F0EEFCBB492046FDF776FF0222B349C1
:104B2000204607F0E5FCB8492046FDF76DFF02225C
:104B3000AE49204607F0DCFCB4492046FDF764FF8F
:104B40000222AA49204607F0D3FCB1492046FDF7CE
:104B50005BFF0222A549204607F0CAFCAD4920466A
:104B6000FDF752FF0222A149204607F0C1FCAA49E5
:104B70002046FDF749FF02229C49204607F0B8FC79
:104B8000A6492046FDF740FF02229849204607F03B
:104B9000AFFCA3492046FDF737FF02229349204688
:104BA00007F0A6FC9F492046FDF72EFF02228F4901
:104BB000204607F09DFC9C492046FDF725FFD5F8CF
:104BC000C0209A492846FFF7E9F820460EF000FD7C
:104BD00002228649204607F08BFC87492046FDF7D4
:104BE00013FF02228149204607F082FC90492046AB
:104BF000FDF70AFF02227D49204607F079FC8D4926
:104C00002046FDF701FF02227849204607F070FC9C
:104C100089492046FDF7F8FE02227449204607F034
:104C200067FC86492046FDF7EFFE02226F492046C9
:104C300007F05EFC82492046FDF7E6FE02226B4942
:104C4000204607F055FC7F492046FDF7DDFE022295
:104C50006649204607F04CFC7B492046FDF7D4FE10
:104C600002226249204607F043FC78492046FDF7BE
:104C7000CBFE02225D49204607F03AFC74492046EB
:104C8000FDF7C2FED5F8C42072492846FFF786F822
:104C900020460EF09DFC02225449204607F028FCD5
:104CA00055492046FDF7B0FE02225049204607F044
:104CB0001FFC69492046FDF7A7FE02224B4920460A
:104CC00007F016FC65492046FDF79EFE0222474983
:104CD000204607F00DFC62492046FDF795FE0222B2
:104CE0004249204607F004FC5E492046FDF78CFE51
:104CF00002223E49204607F0FBFB5B492046FDF7B8
:104D000083FED5F8C82059492846FFF747F82046C2
:104D10000EF05EFC02223549204607F0E9FB3649D9
:104D20002046FDF771FE02223049204607F0E0FBE5
:104D30004F492046FDF768FE02222C49204607F025
:104D4000D7FB4C492046FDF75FFE0222274920464B
:104D500007F0CEFB48492046FDF756FE02222349C4
:104D6000204607F0C5FB45492046FDF74DFE0222CF
:104D70001E49204607F0BCFB41492046FDF744FE92
:104D8000D5F8CC203F492846FFF708F820460EF01A
:104D90001FFC02221549204607F0AAFB3A4920468B
:104DA000FDF732FE02221149204607F0A1FB12490D
:104DB0002046FDF729FE02220C49204607F098FB09
:104DC00032492046FDF720FE20460EF001FC02226B
:104DD0000649204607F08CFB07492046FDF714FEE4
:104DE00002220249204607F083FB51E080050200C1
:104DF000B80C020024010200682D0200700A0200B3
:104E000040010200FC0C0200140D0200340D0200EF
:104E1000540D0200740D0200900D0200AC0D020052
:104E2000C80D0200E40D0200040E02005C01020045
:104E3000200E02003C0E02005C0E02007C0E0200FE
:104E40009C0E0200B80E0200D80E0200F80E0200FE
:104E5000180F02006C0102009C0B0200B80B02004C
:104E6000DC0B0200000C0200240C02007C0102009A
:104E7000480C0200640C0200740C0200840C020056
:104E8000940C02008C010200B8050200340F0200ED
:104E9000D2492046FDF7B8FD0222D149204607F04D
:104EA00027FBD0492046FDF7AFFD0222CC49204622
:104EB00007F01EFBCC492046FDF7A6FD0222C8499B
:104EC000204607F015FBC9492046FDF79DFD02224B
:104ED000C349204607F00CFBC5492046FDF794FD69
:104EE0000222BF49204607F003FBC2492046FDF7D6
:104EF0008BFD0222BA49204607F0FAFABE49204645
:104F0000FDF782FD0222B649204607F0F1FABB49BF
:104F10002046FDF779FDD5F8D020B9492846FEF79F
:104F20003DFF20460EF054FB0222AD49204607F01B
:104F3000DFFAB4492046FDF767FD0222A849204662
:104F400007F0D6FA1822B049204607F0D1FA2046D9
:104F50000EF03EFB0222A249204607F0C9FAAB49F7
:104F60002046FDF751FD02229D49204607F0C0FA78
:104F7000A7492046FDF748FD02229949204607F03F
:104F8000B7FAA4492046FDF73FFDD5F8DC20A24939
:104F90002846FEF703FF20460EF01AFB0222904936
:104FA000204607F0A5FA97492046FDF72DFD02227D
:104FB0008B49204607F09CFA98492046FDF724FDCE
:104FC00002228749204607F093FA95492046FDF7CB
:104FD0001BFDD5F8D82093492846FEF7DFFE204672
:104FE0000EF0F6FA02227E49204607F081FA854942
:104FF0002046FDF709FD02227949204607F078FA9C
:1050000089492046FDF700FD02227549204607F038
:105010006FFA86492046FDF7F7FCD5F8D42084497D
:105020002846FEF7BBFE20460EF0D2FA02226C495B
:10503000204607F05DFA7F492046FDF7E5FC022295
:105040006749204607F054FA7B492046FDF7DCFC0F
:1050500002226349204607F04BFA78492046FDF7C3
:10506000D3FC02225E49204607F042FA74492046EA
:10507000FDF7CAFC02225A49204607F039FA714965
:105080002046FDF7C1FC02225549204607F030FAC0
:105090006D492046FDF7B8FC02225149204607F031
:1050A00027FA6A492046FDF7AFFC02224C49204608
:1050B00007F01EFA66492046FDF7A6FC0222484981
:1050C000204607F015FA63492046FDF79DFC0222B1
:1050D0004349204607F00CFA5F492046FDF794FC4F
:1050E00002223F49204607F003FA5C492046FDF7BB
:1050F0008BFCD5F8E0205A492846FEF74FFE2046A3
:105100000EF066FA02223649204607F0F1F93D49D1
:105110002046FDF779FC02223149204607F0E8F9E4
:1051200050492046FDF770FC02222D49204607F029
:10513000DFF94D492046FDF767FC02222849204649
:1051400007F0D6F949492046FDF75EFC02222449C2
:10515000204607F0CDF946492046FDF755FC0222CE
:105160001F49204607F0C4F942492046FDF74CFC90
:1051700002221B49204607F0BBF93F492046FDF7B4
:1051800043FCD5F8E4203D492846FEF707FE2046BB
:105190000EF01EFA02221249204607F0A9F9194919
:1051A0002046FDF731FC02220D49204607F0A0F908
:1051B00033492046FDF728FC02220949204607F022
:1051C00097F930492046FDF71FFC0222044920468A
:1051D00007F08EF92C49204658E000BF500F02001E
:1051E00080050200640F0200740F0200800F0200AD
:1051F0008C0F02009C0F0200AC0F0200BC0F0200DB
:105200009C010200682D02009C0B0200CC0F0200E2
:10521000EC0F02000C100200B80102002C1002007A
:1052200048100200CC010200781002008C1002002D
:10523000E0010200BC100200D4100200E4100200E1
:10524000F410020004110200101102001C110200EF
:105250002C1102003C1102004C1102005C110200F2
:10526000F4010200480C02006C1102007C110200E3
:105270008C1102009C110200AC110200100202000D
:10528000200E0200BC110200C8110200FDF7BCFB99
:105290000222D549204607F02BF9D4492046FDF7D4
:1052A000B3FB0222D049204607F022F9D04920461C
:1052B000FDF7AAFBD5F8E820CE492846FEF76EFD9B
:1052C00020460EF085F90222C749204607F010F962
:1052D000C9492046FDF798FB0222C349204607F042
:1052E00007F9C6492046FDF78FFB0222BE4920463A
:1052F00007F0FEF8C2492046FDF786FB0222BA49B4
:10530000204607F0F5F8BF492046FDF77DFB022255
:10531000B549204607F0ECF8BB492046FDF774FB81
:105320000222B149204607F0E3F8B8492046FDF7CC
:105330006BFB0222AC49204607F0DAF8B44920465C
:10534000FDF762FB0222A849204607F0D1F8B149D7
:105350002046FDF759FBD5F8EC20AF492846FEF76B
:105360001DFD20460EF034F902229F49204607F029
:10537000BFF8A1492046FDF747FB02229A49204683
:1053800007F0B6F8A5492046FDF73EFB02229649F4
:10539000204607F0ADF8A2492046FDF735FB022272
:1053A0009149204607F0A4F89E492046FDF72CFBC2
:1053B00002228D49204607F09BF89B492046FDF7C5
:1053C00023FB02228849204607F092F8974920469D
:1053D000FDF71AFBD5F8F02095492846FEF7DEFCCC
:1053E00020460EF0F5F802227F49204607F080F8AB
:1053F00090492046FDF708FB02227B49204607F032
:1054000077F87D492046FDF7FFFA022276492046CB
:1054100007F06EF888492046FDF7F6FA0222724935
:10542000204607F065F874492046FDF7EDFA20465E
:105430000EF0CEF802226C49204607F059F87F4959
:105440002046FDF7E1FA02226749204607F050F8AE
:105450007B492046FDF7D8FA02226349204607F02F
:1054600047F878492046FDF7CFFA02225E492046E8
:1054700007F03EF874492046FDF7C6FA02225A4961
:10548000204607F035F871492046FDF7BDFAD5F8FA
:10549000F4206F492846FEF781FC20460EF098F86C
:1054A00002225149204607F023F853492046FDF7D0
:1054B000ABFA02224C49204607F01AF8654920460B
:1054C000FDF7A2FA02224849204607F011F81D22F2
:1054D0006149204607F00CF820460EF079F80222C8
:1054E0004149204607F004F81D225C49204606F099
:1054F000FFFF20460EF06CF802223B49204606F0E2
:10550000F7FF1E225649204606F0F2FF20460EF015
:105510005FF8D5F8002153492846FEF73FFC2046A6
:105520000EF056F802223049204606F0E1FF002234
:105530003149204606F0DCFF20460EF049F80222F1
:105540002949204606F0D4FF18224749204606F094
:10555000CFFF20460EF03CF802222349204606F0F9
:10556000C7FF2D224149204606F0C2FF20460EF01B
:105570002FF8D5F8FC203E492846FEF70FFC2046C0
:105580000EF026F802221849204606F0B1FF00224C
:105590001949204606F0ACFF20460EF019F8022209
:1055A0001149204606F0A4FF11223249204606F098
:1055B0009FFF20460EF00CF802220B49204606F011
:1055C00097FF2D222C49204606F092FF20460DF031
:1055D000FFFFD5F8F82029492846FEF7DFFB2046D3
:1055E0000DF0F6FF02224BE080050200D41102000C
:1055F000E011020024020200682D0200EC110200FA
:1056000004120200141202002412020034120200DA
:10561000401202004C120200380202005C1202002A
:10562000781202008C120200A0120200B4120200D2
:1056300054020200B8050200C8120200500F020016
:10564000E8120200F4120200041302001413020014
:105650006C0202009C0B020024130200EC0F0200FB
:105660000C100200880202002C10020044130200F9
:105670009C0202007810020074130200B0020200C3
:10568000D249204606F034FF1422D149204606F0C4
:105690002FFF20460DF09CFF0222CC49204606F049
:1056A00027FF0A22CB49204606F022FF20460DF0B4
:1056B0008FFF0222C549204606F01AFF0B22C64979
:1056C000204606F015FF20460DF082FF0222BF495A
:1056D000204606F00DFFC1492046FDF795F902224C
:1056E000BA49204606F004FFBD492046FDF78CF973
:1056F0000222B649204606F0FBFEBA492046FDF7D5
:1057000083F90222B149204606F0F2FEB64920464E
:10571000FDF77AF90222AD49204606F0E9FEB349C9
:105720002046FDF771F9D5F80421B1492846FEF766
:1057300035FB20460DF04CFF0222A449204606F01E
:10574000D7FEAC492046FDF75FF902229F4920466B
:1057500006F0CEFEA8492046FDF756F902229B49E5
:10576000204606F0C5FEA5492046FDF74DF9022268
:105770009649204606F0BCFEA1492046FDF744F9B3
:1057800002229249204606F0B3FE9E492046FDF7CC
:105790003BF902228D49204606F0AAFE9A4920468E
:1057A000FDF732F9D5F8082198492846FEF7F6FAB0
:1057B00020460DF00DFF02228449204606F098FE97
:1057C0008C492046FDF720F902228049204606F048
:1057D0008FFE8F492046FDF717F902227B492046AC
:1057E00006F086FE8B492046FDF70EF90222774926
:1057F000204606F07DFE88492046FDF705F9022285
:105800007249204606F074FE84492046FDF7FCF8F4
:1058100002226E49204606F06BFE81492046FDF7C4
:10582000F3F802226949204606F062FE7D492046CF
:10583000FDF7EAF802226549204606F059FE7A494A
:105840002046FDF7E1F802226049204606F050FEAE
:1058500076492046FDF7D8F802225C49204606F03A
:1058600047FE73492046FDF7CFF8D5F80C21714962
:105870002846FEF793FA20460DF0AAFE022253496D
:10588000204606F035FE5B492046FDF7BDF80222B2
:105890004E49204606F02CFE67492046FDF7B4F835
:1058A00002224A49204606F023FE64492046FDF7BD
:1058B000ABF802224549204606F01AFE6049204610
:1058C000FDF7A2F802224149204606F011FE5D498B
:1058D0002046FDF799F802223C49204606F008FED2
:1058E00059492046FDF790F802223849204606F033
:1058F000FFFD56492046FDF787F80222334920462E
:1059000006F0F6FD52492046FDF77EF802222F49A7
:10591000204606F0EDFD4F492046FDF775F8D5F815
:1059200010214D492846FEF739FA20460DF050FE69
:1059300002222649204606F0DBFD48492046FDF7B5
:1059400063F802222149204606F0D2FD294920466B
:10595000FDF75AF802221D49204606F0C9FD4049CC
:105960002046FDF751F802221849204606F0C0FDF6
:1059700020492046FDF748F820460DF029FE022276
:105980001249204606F0B4FD1A492046FDF73CF8BE
:1059900002220E49204606F0ABFD32492046FDF7B3
:1059A00033F802220949204606F0A2FD2E4920467E
:1059B000FDF72AF802220549204606F099FD2B49F9
:1059C0002046FDF721F8022252E000BF80050200C8
:1059D000BC100200A4130200B01302003412020033
:1059E000401202004C120200BC130200CC13020051
:1059F000C4020200682D0200480C02006C11020073
:105A00007C110200DC130200EC130200E002020031
:105A1000EC110200FC1302000C1402001C14020022
:105A2000281402003814020044140200501402002A
:105A30005C140200F80202005C1202006C14020006
:105A40008014020094140200A8140200BC14020086
:105A5000D0140200E414020018030200B80502008A
:105A6000F8140200500F0200640F0200740F0200CD
:105A7000D249204606F03CFDD1492046FCF7C4FF40
:105A80000222CE49204606F033FDCE492046FCF7DF
:105A9000BBFF0222C949204606F02AFDCA4920461A
:105AA000FCF7B2FF0222C549204606F021FDC74996
:105AB0002046FCF7A9FF0222C049204606F018FD47
:105AC000C3492046FCF7A0FFD5F81421C149284658
:105AD000FEF764F920460DF07BFD0222B74920460F
