:1000000000800020BD01000015230100CD22010069
:10001000CD220100CD220100CD220100CD22010020
:10002000CD220100CD220100CD22010015230100C7
:1000300015230100CD220100D9380100DD3901006E
:1000400015230100152301001523010015230100CC
:1000500015230100152301001523010015230100BC
:1000600015230100152301001523010015230100AC
:10007000152301001523010015230100152301009C
:10008000152301001523010015230100152301008C
:10009000152301001523010015230100152301007C
:1000A000B1180000BD180000152301001523010040
:1000B000152301001523010015230100152301005C
:1000C000152301001523010015230100152301004C
:1000D000152301001523010015230100152301003C
:1000E000152301001523010015230100152301002C
:1000F00015230100ED3D0100152301002929010010
:1001000015230100193F01001523010015230100EB
:1001100015230100152301001523010015230100FB
:1001200015230100152301001523010015230100EB
:1001300015230100152301001523010015230100DB
:1001400015230100152301001523010015230100CB
:1001500015230100152301001523010015230100BB
:10016000A11A0100A52B0100152301001523010090
:10017000152301001523010015230100152301009B
:10018000152301001523010015230100152301008B
:10019000152301001523010015230100152301007B
:1001A000152301001523010015230100152301006B
:1001B000152301001523010015230100564B4CF2B5
:1001C000205210B51A804DF628121A8000BF00BFC9
:1001D00012F0A4F8514B4FF010621A60504A9A6026
:1001E000504ADA60504A136813F4807304D14F49BF
:1001F0000B604FF4A85313604D4B1A78110703D5C9
:100200001A7842F008021A704A4B4B492A221A7097
:100210004A4A4B4B8B4204D252F8040F43F8040B6A
:10022000F8E7484B484900228B4202D243F8042B9E
:10023000FAE74649464A002352F8230041F82300D2
:1002400001336F2BF8D1434B434A802103F8011B44
:100250009342FBD1414B3D4A1A60414B8A221A70AE
:10026000A3F5805324225A70A0221A709A7992071B
:10027000FCD59A79D406FCD43A4A937903F00C035E
:10028000082B384BF9D103221A7140225A719A79FE
:100290009006FCD5334A9179324B4906FBD5324A58
:1002A000324911600221516020221A709A7902F0BD
:1002B0000C020C2AFAD12E4B2E4A1A602E4B2F4AD2
:1002C0001A6000225A60072243F8042C2C4AC3F813
:1002D0000C2D62B612F0FEF9144B1B68DA0705D537
:1002E000284812F05BF9284B284A1A60284B1B78E3
:1002F0005B0609D5244C254B22689A4204D121483B
:1003000012F04CF90023236017F08EFA12F00CF86B
:1003100013F0C6FCFEE700BF0E200540308004400D
:10032000823F04000100002B10D0034014D0034092
:1003300002D0074000E00740B09AFF1F6C33020074
:100340002087FF1FB09AFF1FA4A4FF1F0082FF1F7A
:100350000000000000E400E05FE400E008ED00E0E1
:100360000050064000400640448004400000030165
:1003700004800440C010050014E000E0FF76010096
:1003800000002020A6B8685A1CE00340A5C3945A78
:1003900000F00740FFFFFFFFFFFFFFFFFFFFFFFF32
:1003A000FFFFFFFFFFFFFFFFFFFFFFFFFFFFFFFF5D
:1003B000FFFFFFFFFFFFFFFFFFFFFFFFFFFFFFFF4D
:1003C000FFFFFFFFFFFFFFFFFFFFFFFFFFFFFFFF3D
:1003D000FFFFFFFFFFFFFFFFFFFFFFFFFFFFFFFF2D
:1003E000FFFFFFFFFFFFFFFFFFFFFFFFFFFFFFFF1D
:1003F000FFFFFFFFFFFFFFFFFFFFFFFFFFFFFFFF0D
:10040000FFFFFFFFFFFFFFFFFFFFFFFFDEF9FFFF23
:1004100010B5054C237833B9044B13B10448AFF33E
:1004200000800123237010BDB09AFF1F0000000060
:1004300068330200084B10B51BB108490848AFF3F8
:1004400000800848036803B910BD074B002BFBD0A0
:10045000BDE81040184700BF00000000B49AFF1F1D
:1004600068330200B09AFF1F0000000010B54FF47F
:10047000EC710446006813F01DFC204610BD00BF5F
:10048000F8B54FF496714248424F434D434C444EA9
:1004900000F050FE4FF47A71424800F04BFE3221DA
:1004A000414800F047FE4FF4FA634FF47A72384641
:1004B000032111F083FA384640F2DC5111F0DCFAE6
:1004C0000E2045F8040B002112F08EF80A2011F0DE
:1004D000C1FD2846642100F02DFE344A0B23184646
:1004E0000221136012F080F8314800F0B9FE4FF499
:1004F000247013F0DDFB2F49054603F029FC284644
:10050000656007F0E9F8036820601B699847236875
:100510002949D3F88430294AA0600124196783F857
:10052000A14083F8A24083F8A3402046147012F043
:1005300083F84FF4EC7013F0BBFB4FF4EC720546FC
:10054000002117F035FD2F1D05F5B4732921C5F8DD
:10055000703128460022C5F8647135600DF0BAFC90
:10056000174A307103462046137012F065F844F6BE
:10057000206012F01FF9204612F05EF821460D208F
:1005800012F032F821460F48BDE8F84000F086BD71
:10059000C09DFF1FD09CFF1FE09CFF1F909DFF1F71
:1005A000D89CFF1FAC9DFF1F9C9DFF1FE09EFF1F5F
:1005B0000088FF1F5CEF01000AD7A33CBC9DFF1F12
:1005C000F59CFF1FE49EFF1FF0B5494E337883B0C2
:1005D000032B58D8DFE803F05965480212F0B0FF4A
:1005E000431C50D0B768347B424DC0B20021CAB220
:1005F000082312F0010F03F1FF3318BF624013F01C
:10060000FF034FEA5202F4D10131B1F5807F05F8C2
:10061000012FECD1002F68D0374C19461A46615C87
:1006200001324B40D2B256FA83F397425B7B1146BC
:10063000F5D898420FD130490A780023642A3370E4
:100640007360B36041D06A2A05D12C4B0A681B78CD
:100650000192002B43D028484FF40072002103B0D0
:10066000BDE8F04017F0A4BC12F06AFF421C2AD08B
:1006700072682149531C88547360B1681C4A9942BE
:1006800001DC0323137003B0F0BD12F095FF0028C6
:10069000F9DD12F055FFC828F5D10123337003B0FE
:1006A000F0BD12F089FF002809DD12F049FFB060AB
:1006B00001300F4BE7D002221A7003B0F0BD4FF0AB
:1006C000FF33B360DFE77368D7E702210C4800F01F
:1006D000E5FC0C490C4A01230B701370BBE7BDF815
:1006E00006100A4811F0C8F9B5E73B46A1E700BF7C
:1006F000D09DFF1FDC9DFF1FCC9AFF1FCC9CFF1FCE
:10070000E49EFF1FCD9CFF1FF49CFF1FD09CFF1F8A
:10071000F0B583B0224800AF00F02AFD88B1214B2C
:100720001B7873B10223C822194638467B703A7091
:1007300012F06CFF02286D4606D01948AD4600F055
:1007400009FD0C37BD46F0BD174E34466423002129
:1007500014F80C0F3B717971CAB2082312F0010F23
:1007600003F1FF3318BF424013F0FF034FEA520278
:10077000F4D10131B1F5807F04F8012FECD17B7900
:1007800096F87120534033440221381D5C7B12F0EF
:100790003DFF0228D1D1204612F0BCFFCDE700BFBB
:1007A000C09DFF1FCD9CFF1FD09DFF1F08B50D48AA
:1007B00000F0DEFC48B10C4B1A783AB100221A70F6
:1007C0000848BDE8084000F0C5BC08BD074B084814
:1007D0001A70012100F062FC0248BDE8084000F0F8
:1007E000B9BC00BFAC9DFF1FF49CFF1FCD9CFF1F39
:1007F000E49EFF1FFFFFFFFF2DE9F047984CA6B0D6
:10080000206800AF0268002300256821BB66FB66F4
:10081000926987F865503B677B67BB67FB67C7F8E2
:100820008030C7F88430C7F88830C7F88C30C7F8F4
:100830009030C7F8943087F86410904750B323681D
:100840009869D9699A6BF866986DD3F83CC0D3F86B
:1008500040E09E6CDD6C1C6D3967C7F88020D96D57
:100860001A6EC7F88C005B697E48C7F884C0C7F869
:1008700088E07E67BD67FC67C7F89010C7F89420D2
:10088000BB664FF0010800F073FC48B99837BD46CD
:10089000BDE8F0878046734800F06AFC0028F5D078
:1008A000714C201D00F064FC002840F0EF806F4B7D
:1008B0001C7807F10805002C00F00381B8F1000F47
:1008C00040F088816A4B1C78002C00F00C81694B49
:1008D0001A79002A40F06381C822052302212846A4
:1008E0003A727B7212F092FE0228E94600F0CF8243
:1008F000CD4600220023DFF880A1C7E90E23C7E917
:100900001023692100230022BB64D14687F83120DF
:1009100087F85820FB643B657B6587F8301005E05D
:1009200011F0CEFFC1B2544810F08EFF11F0B8FFA5
:100930000028F5D1DFF840819AF86C30284641460E
:10094000002B74D02E4610F08DFF0FCE08F17004EE
:100950000FC40FCE0FC496E8030044F8040B99F8B7
:1009600091302180002BE1D099F89230002BDDD01E
:10097000D8F8700015F034FF37A3D3E9002315F041
:1009800095FFC7E90E01D8F8740015F029FF32A3CE
:10099000D3E9002315F08AFFC7E91001B8F97A00FE
:1009A00016F086FB354916F0D7FB0446B8F97800F7
:1009B00016F07EFB0146204616F0C6FAB864B8F978
:1009C0007E0016F075FB2E4916F0C6FB0446B8F9FA
:1009D0007C0016F06DFB0146204616F0B5FAF8646F
:1009E000B8F9820016F064FB244916F0B5FB044602
:1009F000B8F9800016F05CFB0146204616F0A4FA18
:100A0000386598F8840016F04FFB98F88C407865AC
:100A1000C82230230221284687F858403A727B7258
:100A200012F0F4FD0228E84600F06281C546154B3D
:100A3000187811F0CBFD8046002800F09F80124B03
:100A400000221A70074800F085FB9837BD46BDE8C4
:100A5000F08700BFAFF30080000000A0F2D77A3E1D
:100A6000909DFF1F9C9DFF1FE09CFF1FBC9DFF1FD3
:100A7000F59CFF1FD89CFF1FF89CFF1F0AD7233C43
:100A80006F12833AE09EFF1FCC9CFF1F207811F06D
:100A900015FB07F108058146201D00F05BFBC8220D
:100AA0000423284602213A727B7212F0AFFD02281D
:100AB0006C4600F0DD80A546CE4B1C78002C7FF400
:100AC000FDAEC8220523022128463A727B7212F03D
:100AD0009DFD0228E94600F04C81CD46C64B1C78AE
:100AE000002C7FF4F4AEC8220523022128463A7276
:100AF0007B7212F08BFD0228E9467FF4F9AEBF4EFF
:100B000087F83140B6464FF06C0C322267231EF84E
:100B10000C0F87F83440214687F830C087F8322020
:100B200087F83330CAB20823D40703F1FF3348BF34
:100B3000424013F0FF034FEA5202F5D10131B1F503
:100B4000807F0EF8012FEDD107F130081C46424698
:100B500007F134016C2301E012F8013F6340334494
:100B600091425C7BF8D14046052112F04FFD0528EB
:100B70007FF4BEAE204612F0CDFDB9E6C8220323B5
:100B80000221381D3A717B7112F040FD02286C463B
:100B900000F0B2819A4B0122A5461A7052E707F184
:100BA00030081868414600220DF02AFBB7F838904B
:100BB0004FF6FF7399453FF48FAEC82204230221FC
:100BC00028463A727B7212F021FD02286C4612D040
:100BD000A5468EE6C8223423022107F1300087F8AB
:100BE000302087F8313012F011FD0228E84600F07D
:100BF0000981C54666E6814EA7F83290B64667235E
:100C000000211EF80C0F87F8303087F83110CAB277
:100C1000082312F0010F03F1FF3318BF424013F015
:100C2000FF034FEA5202F4D10131B1F5807F0EF893
:100C3000012FECD196F8741097F8313097F832C044
:100C400097F833E05940314440464A7B8CEA02022F
:100C500032440421537B8EEA03031E44767B12F058
:100C6000D5FC0428B4D1304612F054FDA54640E628
:100C7000624EB44609EB8909662300211CF80CEF8B
:100C8000A7F8329087F8303087F83110CAB20823BD
:100C9000D00703F1FF3348BF8EEA020213F0FF03CF
:100CA0004FEA5202F4D10131B1F5807F0CF8012FE7
:100CB000ECD196F8731097F8310097F832E097F876
:100CC0003330484030440421427B8EEA02023244F1
:100CD00007F13000527B53401E44767B12F096FCA5
:100CE00004287FF4E8AE304612F014FDA546E3E692
:100CF0008CB0EE466E4607F1300C07F16009644691
:100D00000FCC4C4530607160B260F360A44606F1D0
:100D10001006F4D1394E3446002014F80C1FC2B22C
:100D2000082312F0010F03F1FF3318BF4A4013F0FC
:100D3000FF034FEA5202F4D10130B0F5807F04F88E
:100D4000012FECD11C460EF1FF320EF12F0112F8EB
:100D5000013F6340334491425C7BF8D170463021BF
:100D600012F054FC30287FF461AE204612F0D2FC21
:100D70005CE6224E87F83140B6464FF06C0C3222CA
:100D800068231EF80C0F87F83440214687F830C0DE
:100D900087F8322087F83330CAB20823D40703F12A
:100DA000FF3348BF424013F0FF034FEA5202F5D130
:100DB0000131B1F5807F0EF8012FEDD107F1300838
:100DC0001C46424607F134016C2301E012F8013F52
:100DD0006340334491425C7BF8D14046052112F0D8
:100DE00015FC05287FF479AE204612F093FCCD4621
:100DF00074E600BFBC9DFF1FF59CFF1FD09DFF1F29
:100E0000CC9CFF1F8EB0EE466C4607F1640C07F1D8
:100E1000940966460FCE4E4520606160A260E36093
:100E2000B44604F11004F4D14D4EDCF8000020600B
:100E30003446002014F80C1FC2B2082312F0010F30
:100E400003F1FF3318BF4A4013F0FF034FEA520289
:100E5000F4D10130B0F5807F04F8012FECD11C46AD
:100E60000EF1FF320EF1330112F8013F63403344BB
:100E70008A425C7BF8D17046342112F0C7FB3428DB
:100E80007FF4B7AE204612F045FCC5461AE5344E55
:100E900034466C23002187F830303322672314F85E
:100EA0000C0F87F8311087F8341087F8322087F854
:100EB0003330CAB2082312F0010F03F1FF3318BF19
:100EC000424013F0FF034FEA5202F4D10131B1F571
:100ED000807F04F8012FECD107F130081C46424610
:100EE00007F134016C2301E012F8013F6340334401
:100EF00091425C7BF8D136E6194E87F80980B646F8
:100F00006B233B721EF80C0F01234146BB72CAB221
:100F1000082312F0010F03F1FF3318BF424013F012
:100F2000FF034FEA5202F4D10131B1F5807F0EF890
:100F3000012FECD17B7A96F87820B97A5A40324466
:100F40002846537B4B401E440321757B12F05EFB09
:100F500003287FF41FAE284612F0DCFB1AE600BF20
:100F6000D09DFF1F10B50E4C0E4800F0BDF8FFF7E6
:100F70002BFBFFF71BFCFFF7CBFB237833B940F2C9
:100F8000DC510948BDE8104010F076BDFFF734FC95
:100F90002378002BF3D0054B1B78002BEFD110BD2D
:100FA000CD9CFF1FE49EFF1FD09CFF1FCC9CFF1F0A
:100FB00038B511F001F92848284D00F0B7F8284855
:100FC00000F0B4F8274800F0B1F80D21264800F0F1
:100FD0005BF8264B2648912200241A731C705C6033
:100FE0009C6010F0C7FC234800F0A0F8224B234877
:100FF000234A2449846018461C7116F0FFFB2846DA
:101000000FF02EFF05F185006C672C67A5F878407E
:10101000A5F87A40A5F87C40A5F87E40A5F8804068
:10102000A5F8824085F8844010F098FC85F88C4043
:1010300085F88E4085F88F4085F8904085F891407E
:1010400085F8924085F8934085F8944085F895405E
:1010500085F88D4038BD00BFC09DFF1FF89CFF1F65
:10106000AC9DFF1F9C9DFF1FE49EFF1FD09DFF1F97
:10107000D09CFF1FE49CFF1FD89CFF1F909DFF1F6B
:10108000FC87FF1F6D04000038B504460D4600F0D4
:101090004DF800232582A383204638BD827F8A42F3
:1010A0000FD038B505460C46A97700F07DF8012C25
:1010B00009D00DD3022C05D1084B6B610C23AB6119
:1010C00038BD704738BD064B6B610423AB6138BD3A
:1010D000044B6B610423AB6138BD00BF70EF0100AE
:1010E00088EF010068EF0100818B8269914202D391
:1010F00000228283704710B5044600F039F870B1C1
:10110000A38B6269D9070BD432F8131001B1012106
:10111000207C11F055FAA38B0133A38310BD10BDC1
:10112000204632F8131000F005F8F4E700220273AD
:10113000704700BF037B4BB9054B816082B01B68D1
:101140000193019B03600123037302B0704700BF4A
:10115000ACA1FF1F054B82B01B680193037B019A72
:1011600002600BB90123037302B07047ACA1FF1FEB
:101170000346007BA0B110B40A4A1C681268996843
:1011800083B00192019A5A60121B8A4204D3002252
:101190001A7303B010BC7047002003B010BC704736
:1011A00001207047ACA1FF1F00230373704700BFED
:1011B0000020704790F8392090F83800101A7047D6
:1011C00090F8383090F839209A4205D95A1C0344D7
:1011D00080F83820187E70474FF0FF30704700BF0E
:1011E00090F8383090F839209A4286BF1B18187E44
:1011F0004FF0FF30704700BF704700BF38B505465D
:10120000B0F85E0090B195F85D301446C3F121024C
:1012100094420CD805F13B001844224610F06EFDB4
:1012200095F85D30234485F85D30204638BD0120B7
:1012300014462871EEE700BFB0F85E306BB190F84D
:101240005D30202B07D8C218013380F85D300120B3
:1012500082F83B107047012303710020704700BFE4
:101260000023426980F8383080F8393080F85C30EB
:1012700080F85D3080F85E3080F85F3006CA30B4A8
:101280000D68046943662A4383660A60A370426955
:1012900090F861301649146813441D7A5B7B01EBAA
:1012A000C5051B026D6803F4E06343F064032B6023
:1012B00090F8623013449D7CDB7D01EBC5011B027D
:1012C000496803F4E06343F064030B6021685368EA
:1012D000194205D0036927225A70036904229A71C2
:1012E000036920225A71036980229A7030BC7047CA
:1012F000182B020010B50269D378DBB2D906044678
:101300003DD510215806D17038D503F0040303F001
:10131000FF02002B51D03D49626E00230B7084F810
:101320005D30002A5BD0904794F85D30002B56D09A
:101330002369D0229A70236994F83B201A7123699B
:10134000012284F85C200222DA7010BD304B84F850
:1013500060009C424AD02F4B9C4252D094F83910E6
:1013600013791F29DBB207D82848007820B160180C
:10137000013184F8391003760223D37010BD590669
:10138000C3D4917801F0100101F0FF000029DDD0F5
:1013900013F001031ED194F85C1094F85D008842AC
:1013A00081BF4B1C091984F85C3091F83B301371F4
:1013B0002369D0229A702269DEE7236984F83920F4
:1013C000C0229A702369114A1979012111700222F1
:1013D000DA7010BDC023937022691379CCE7012223
:1013E000002384F85D2084F83B30A1E7626994F81B
:1013F0006130094913440322187A11F00FF8226969
:10140000ACE7626994F861300449F3E7049FFF1F79
:101410000088FF1F6C88FF1F7D14000089140000E6
:101420000369DB7803F0200373B190F86030013377
:10143000DBB2012B80F860301AD9426990F8613034
:101440001344187A11F066B870B5426903F0FF05CD
:1014500090F8613013440446187A11F05BF8A36EDB
:101460005BB184F8385094F83900BDE870401847F3
:1014700090F85F30002BE0D0704770BD0148FFF757
:10148000CFBF00BF0088FF1F0148FFF7C9BF00BFE3
:101490006C88FF1F2DE9F047374FDFF8E0903B687D
:1014A000026982B006460093DDF800800021A02585
:1014B000D3789B065BD53B680193019BC8EB030384
:1014C0000F2BF5D949B1102BF2D000209070336961
:1014D00080229A7002B0BDE8F087726996F8613098
:1014E00013440521187A11F07FF8726996F861307B
:1014F0001344012193F812A0504611F075F8092405
:101500000021504611F05CF82B46013BFDD1012132
:10151000504611F055F82B46013BFDD1013CEFD16F
:10152000706996F8611001444FF4A0720C7A4B7BFD
:1015300009EBC4011B02496803F4E06343F0640350
:101540000B6096F862300344997CDB7D09EBC101A6
:101550001B02496803F4E06343F064030B60013A43
:10156000FDD13269D3789B064FF00101A3D401204D
:1015700002B0BDE8F08700BFACA1FF1F182B02002E
:10158000F0B503691222DA700269937803F0200340
:1015900085B004460D46002B5ED0B42393703C49C1
:1015A00022690B680093009E05E00B680193019B84
:1015B0009B1B042B42D8D37803F0200303F0FF00D9
:1015C000002BF2D094F85D30002B31D04FF0000E9C
:1015D0004FF0020C04EB0E0393F83B3013710B68D1
:1015E0000393039F206907E09B060DD50B680293C8
:1015F000029BDB1B052B28D8C378DBB203F0020269
:1016000002F0FF06002AEFD080F803C02669F378C5
:10161000DBB2DF0632462DD49F062BD5DB0731D453
:101620000EF1010E94F85D305FFA8EFE7345D1D84D
:1016300000201DBB002384F85E3004E09070236915
:1016400080229A70042005B0F0BD86702369802244
:1016500004209A7005B0F0BD03F0FF06FFF71AFFF3
:1016600010B9042005B0F0BD236984F85F60B02292
:101670009A7094E78023B3700420DAE72669802308
:10168000B370D7E7BEF1000F0CBF02200320F6E7CE
:10169000ACA1FF1F2DE9F04106690025122780F853
:1016A000385080F83950F770D0F810C09CF802E03C
:1016B0000EF0200E88B00446884615461E46BEF140
:1016C000000F49D0B4238CF80230784B21691A6896
:1016D0000092DDF800E006E01A6801920198CEEB76
:1016E0000000042830D8C87800F0200000F0FF0780
:1016F0000028F1D04FEA480242F00102D2B20A714A
:101700001A680292DDF808E0206906E01A68039280
:101710000399CEEB010105292AD8C17801F0020115
:1017200001F0FF070029F1D04FF0020C80F803C050
:101730002269D17811F0110722D12DBB002E0CBFE8
:10174000A0238023937003E08F70236980229A7016
:10175000384608B0BDE8F0810EF0FF07FFF79AFEAB
:101760000028F5D0236984F85F70B0229A70ACE746
:1017700087702369802238469A7008B0BDE8F081EE
:10178000802393700027E3E7012D75D0A02191708D
:1017900021690A79BE4667464FF0A80C1A68049280
:1017A000049805E01A680592059A121A052A4AD883
:1017B000CA7802F0020202F0FF08002AF2D0CF70CD
:1017C0002169CA78D2B212F0100F08465AD1920697
:1017D00058D5013DEDB2012D49D0BEF11F0F3BD9C7
:1017E0000A79012DDAD11A680692069D05E01A6879
:1017F0000792079A521B052A46D8C27802F00202C5
:1018000002F0FF01002AF2D00223C3702269D378CC
:10181000DBB2D9063AD49B0634D5B023BEF11F0FF4
:1018200093703FD8226904EB0E0312791A760EF1F9
:10183000010E5FFA8EFE16B1236980229A7084F839
:1018400039E0774684E781F80280236980229A7024
:10185000774684F839E07BE704EB0E0291F80480C8
:1018600082F818800EF1010E5FFA8EFEB9E781F85A
:1018700002C021690846B0E7A82191702069BE46E0
:101880000279B0E7774663E78170DEE71021A02395
:10189000D170013BFDD12269937803F0F7037746BD
:1018A000937055E723691B79C5E700BFACA1FF1F03
:1018B0000148FFF71FBD00BF0088FF1F0148FFF769
:1018C00019BD00BF6C88FF1F10B4047F4160022C5B
:1018D000C26002D010BC11F09DBF836810BC1847D5
:1018E000F0B4464B464A186BDC6A017911704549E1
:1018F00022790A709A6A00790870002A46D05968DD
:10190000C9688A423ED82168CC8B240402F1FF309A
:1019100065D4C0F30E00C883C88B80B2C882196B2F
:101920000968C88B000452D4C2F30E00C883C88B68
:10193000002480B212F1FF32C88218BF01229C62DB
:10194000D96A2E4809680D6800F12404A54236D0F2
:101950000068C46814F0804F0C680D6815BF2488B7
:1019600024780235013544F000440D604463196B5E
:10197000254B09791970214912B1CA6A12791A7076
:10198000F0BC7047521A9A620122D9E7586B196865
:1019900005681E4C0A63CC62CC682D681C4E24F08E
:1019A00080440327B542CC6083F825701FD1037FA4
:1019B0004260022BC2601ED0F0BC11F02BBF016848
:1019C00090F82400CC6840F000404863CFE7CC8B0F
:1019D000C2F3080004F47E442043C883A7E7CC8BFD
:1019E000C0F3080004F47E442043C88394E72B46E8
:1019F0001146F0BC18478368F0BC1847D888FF1F11
:101A00001F8000401C8000401B80004000000FFF32
:101A1000C918000090E80C00F0B41C6859682568EB
:101A2000164F174E29432160164D17491760D6608F
:101A300015611160417A154A5C180A3194F8244006
:101A400053F8215002EBC40149680D60017A5C181B
:101A500003EB8101247ECD6902EBC40149680D606E
:101A6000817A581803EB810390F83000596B02EB30
:101A7000C002F0BC53681960704700BF01401F00EE
:101A8000011000380110007800001F80182B0200A0
:101A900070B4417A44680E4B05680E4E2144002212
:101AA00091F8241003EBC10149680A60017A2144CE
:101AB000097E03EBC10149680A60817A214491F8EB
:101AC000301003EBC1035B681A602E6070BC704776
:101AD000182B020001401F0000207047704700BF14
:101AE000704700BF704700BF10B5B021044612F028
:101AF000E1F8204610BD00BF224B10B5044640F867
:101B0000043B04F0D9FF04F1100004F0D5FF04F108
:101B10001C0004F0D1FF04F1280005F087F804F15F
:101B2000380004F0C9FF04F1440005F07FF804F127
:101B3000540004F0C1FF04F1600005F077F804F1EF
:101B4000740005F073F804F1840005F06FF804F1F7
:101B5000940004F0B1FF002300224FF07E500A49A8
:101B600084F8A0300123E066216784F8A53084F86A
:101B7000A13084F8A23084F8A33022666266A2669F
:101B8000204610BD00F101000AD7A33C2DE9F04F1B
:101B900095B0064668461F460C46154605F046F8C1
:101BA00004A805F043F896F8A23006F13809002B96
:101BB0003DD02046494604F0D7FF96F8A3301BB12C
:101BC00096F8A430002B57D1F36D336406F1280A40
:101BD0005046494605F0E8F9444F06F1240B00252C
:101BE0004FF0FF385BF8044F24F00044204639469C
:101BF00015F06EFC08B12746A8460135042DF1D139
:101C000006EB88080021D8F82840204615F042FC51
:101C1000A8B92046002115F05BFC28B1D8F8440093
:101C2000002115F037FC88B915B0BDE8F08F4846A3
:101C300006F1540104F046FF00233364BDE70021A0
:101C4000D8F8440015F044FC0028E2D006F1280042
:101C50000FC800F1004501F1004402F1004203F118
:101C6000004349465046B562F4623263736305F03F
:101C700015F915B0BDE8F08F494604A805F094F9B0
:101C80002A686968019200236A4608A800930291B5
:101C9000AB68039304A905F093F804A90CA805F018
:101CA0001BFA0CAA08A910A805F08AF810A9684622
:101CB00004F0C2FF019814F0A5FD04460D460298F9
:101CC00014F0A0FD22462B4612F018FB05463846BC
:101CD00001F1004414F096FD02460B4628462146C9
:101CE00014F030FC15F0DAF830646FE700007AC4C5
:101CF0000120704710B5034B03600446FFF7F2FE66
:101D0000204610BD1CF1010010B5064B03600446CF
:101D1000FFF7E8FE20464FF4387111F0CBFF204664
:101D200010BD00BF1CF1010070B5012384B0044652
:101D300080F8A53000F1540501A804F0BDFE01A90A
:101D4000284604F0BFFE294604F1440005F02CF9B2
:101D500001A804F0B1FE01A904F1B00004F0B2FE44
:101D600001A804F0A9FE01A904F1100004F0AAFEE4
:101D700001A804F0A1FE01A904F11C0004F0A2FED8
:101D800004F1380601A804F097FE01A9304604F0DA
:101D900099FE0025314604F1280005F005F904F507
:101DA0002870294605F0CCF9294604F5F07005F0B5
:101DB000C7F90A4A0A4BC4F8E021C4F8F421C4F870
:101DC0000822C4F81C22C4F8A032C4F8B432C4F803
:101DD000C832C4F8DC3204B070BD00BF6F12833A61
:101DE0006F12033A10B50446FFF786FE2046194BE2
:101DF00040F8B03B04F060FE04F1C00004F016FFB0
:101E000004F1D00004F012FF04F1E00005F076F9CF
:101E100004F5907005F072F904F5B07005F06EF9F4
:101E200004F5D07005F06AF904F5F07005F066F974
:101E300004F5087005F062F904F5187005F05EF914
:101E400004F5287005F05AF92046FFF76DFF20468B
:101E500010BD00BF1CF101002DE9F041A4B0044603
:101E600004A805F04BF9684604F0E0FED4F8B00091
:101E70004FF07C5115F070F94FF07C510746D4F8C3
:101E8000B40015F069F94FF07C510546D4F8B8005C
:101E900015F062F904F5087605F1004307F10042F8
:101EA00000F10041C4F82832C4F83C32C4F82422BE
:101EB000C4F85822C4F83072C4F83802C4F840524A
:101EC000C4F84C72C4F85002C4F82C12C4F844127E
:101ED000C4F85452314604F5187814A805F0BEFA37
:101EE00004F1C00514A9404605F014F92A4631460C
:101EF00014A805F013FA14A9684604F09DFED4F85E
:101F0000BC10684604F044FF04F5B07769462846E3
:101F100004F09EFE04F5D0753A46314614A805F04B
:101F200091F914A9284605F0F5F84246394614A857
:101F300005F088F914A904A805F0ECF804A92846CE
:101F400005F008F904F5907604F5F072294614A816
:101F500005F04EF914A9304605F0DCF83046D4F807
:101F6000BC1005F02FF924B0BDE8F0812DE9F04355
:101F7000B5B00446684604F059FE04A805F0BEF862
:101F800014A805F0BBF894F8A3301BB994F8A2305C
:101F9000002B52D024AD04F1C008284604F12801DA
:101FA000424604F1D00904F017FF2946484604F0E0
:101FB00043FE04F5907604F528723146284605F074
:101FC00017F9294604A805F0A5F804A9284605F044
:101FD00027FB294614A805F09DF804F1E00714AA90
:101FE0003146284605F02EF92946384605F092F884
:101FF0004A463946284605F091F92946684604F0D4
:102000001BFE6946404604F023FE04F5B0744046CA
:1020100004F0F6FE204605F00FFA3946204605F09A
:10202000B5F832462146284605F00CF929462046E7
:1020300005F070F835B0BDE8F08324AD284604F112
:10204000D00904F0F3FD2946484604F0F5FD04F1FB
:10205000C008AEE72DE9F04790F8A13084B00446FF
:102060000D469246002B5BD03031B03004F02AFD93
:1020700004F1100805F140063146404604F11C0900
:1020800005F1500704F01EFD4846394604F01AFDDC
:1020900094F8A53095F84C2084F8A420002B48D162
:1020A000D5E90089D4E92A01B8EB000069EB010108
:1020B00015F00CF83D4915F003F9C4E92A89C4F874
:1020C000BC00002115F0F0F938BB3A463146DAF889
:1020D00074302046FFF75AFD2046FFF7BDFE04F19D
:1020E000C008204604F15407FFF740FF04F14406FE
:1020F0004046394604F0D2FE4146304604F09CFD8D
:10210000012339462B722B7605F10C0004F0DAFC22
:10211000314605F11C0004F08FFD04B0BDE8F087E6
:1021200001A804F0C9FC01A904F1B00004F0CAFC44
:102130009EE7D5E90067DAF874304A464146204602
:10214000C4E92A67FFF722FD002104F5087004F0B6
:10215000F7FF002104F5B07004F0F2FF4FF07C525D
:10216000234604F14001C3F86021C3F86421C3F899
:102170006821C3F86C2110338B42F4D104F1C009FB
:1021800004F138084846414604F1440604F00CFFC7
:1021900004F154074946304604F04EFD41463846A6
:1021A00004F090FC002384F8A530A9E700247449CA
:1021B00010F002B80220704710B5034B03600446CC
:1021C000FFF790FC204610BD38F1010010B5054B1B
:1021D00003600446FFF786FC2046E82111F06AFD03
:1021E000204610BD38F1010030B5012385B080F8DC
:1021F000A530044600F1540501A804F05DFC01A9D6
:10220000284604F05FFC294604F1440004F0CCFEAB
:1022100001A804F051FC01A904F1B00004F052FC43
:1022200001A804F049FC01A904F1100004F04AFCE3
:1022300001A804F041FC01A904F11C0004F042FCD7
:1022400004F1380501A804F037FC01A9284604F080
:1022500039FC294604F1280004F0A6FE0023C4F846
:10226000E03005B030BD00BF2DE9F04F044683B02B
:10227000D4F8CC30D0F8B00000934FF07C5114F07B
:102280006BFF4FF07C510746D4F8B400D4F8C480FB
:10229000D4F8C860D4F8C0A014F05EFF4FF07C51B1
:1022A0008146D4F8B80014F057FF4146834607F141
:1022B000004014F051FF49460546304614F04CFFEB
:1022C0000146284614F03EFE59460546009814F093
:1022D00043FF01462846D4F8BC5014F033FE29468B
:1022E00014F03AFF514614F02FFE3946C4F8C000EE
:1022F000504614F031FF59460190304614F02CFF3F
:10230000019A0146104614F01FFE494601900098BC
:1023100014F022FF019A0146104614F013FE2946DC
:1023200014F01AFF414614F00FFE4946C4F8C400E9
:10233000504614F011FF59460190404614F00CFF2E
:10234000019A0146104614F0FDFD394601900098AF
:1023500014F002FF019A0146104614F0F5FD2946DB
:1023600014F0FAFE314614F0EFFD5946C4F8C800E7
:10237000504614F0F1FE49468246404614F0ECFE09
:102380000146504614F0E0FD39468046304614F0D0
:10239000E3FE0146404614F0D5FD294614F0DCFE6C
:1023A000009914F0D1FDC4F8CC0004F1C00003B0D2
:1023B000BDE8F04F04F024BD10B50446FFF79CFBC8
:1023C0002046094B40F8B03B04F076FB04F1C00016
:1023D00004F02CFC04F1D00004F028FC2046FFF7A8
:1023E00003FF204610BD00BF38F101002DE9704306
:1023F00090F8A33088B01BB990F8A230002B63D0BE
:1024000000F1C00504462946684604F065FE04F163
:10241000740604F12802694604A804F0D1FC04A95A
:10242000304604F009FC304604F0EAFC606F14F01A
:10243000E9F911F0B3FE14F031FD216F14F08CFEB8
:1024400014F0E0F98046894611F064FE14F026FD90
:1024500049460646404611F013FEE26FD4F880303C
:10246000C4F898208946A16FC4F89C308046C4F80F
:10247000941004F1940004F041FB4946404614F0E6
:102480000DFD3146C4F88400D4F8940014F064FEC5
:102490003146C4F88800D4F8980014F05DFE314647
:1024A000C4F88C00D4F89C0014F056FE04F18406A5
:1024B000C4F89000304604F0A3FC3146284604F0EE
:1024C000D9FB284604F09CFC08B0BDE8708300BF2F
:1024D0002DE9F047D0F8E0300D4690F8A110013317
:1024E00084B004469246C0F8E03000295CD005F183
:1024F0003001B03004F0E6FA04F1100605F14008AE
:102500004146304604F11C0705F1500904F0DAFA9F
:102510003846494604F0D6FA94F8A53095F84C2090
:1025200084F8A420002B48D1D5E90067D4E92A011A
:10253000301A67EB010114F0C9FD334914F0C0FEF5
:10254000C4E92A67C4F8BC00002114F0ADFF40BB09
:10255000DAF874304A4641462046FFF717FB94F8F4
:10256000A130002B4CD1204604F1C00804F15407DF
:10257000FFF73CFF04F144064046394604F08EFC68
:102580004146304604F058FB012339462B722B7626
:1025900005F10C0004F096FA314605F11C0004F038
:1025A0004BFB04B0BDE8F08701A804F085FA01A94F
:1025B00004F1B00004F086FA9EE7D5E90089DAF864
:1025C00074303A463146C4E92A89204604F1C009EC
:1025D00004F13808FFF7DAFA04F1440648464146A8
:1025E00004F0E2FC04F154074946304604F024FBB1
:1025F0004146384604F066FA002384F8A530C3E764
:102600002046FFF731FEAEE7002474490FF0D4BD39
:10261000704700BF10B51021044611F04BFB204657
:1026200010BD00BF0249034A0160C260704700BF8D
:1026300054F101000110013870B504790CB101208A
:1026400070BD05460E48FFF7E5F90121E8790FF066
:10265000CBFFAE680B490C4802E0172A08D014469D
:1026600031F8023F90FBF3F39E4204F10102F4D3F0
:10267000064B53F8243043F06053EB60012070BDEB
:10268000D888FF1FF2EF0100006CDC0224F001008B
:102690000148FFF7FDB900BFD888FF1FF0B5054618
:1026A0000846297983B017461C4661B10A231146B2
:1026B00000932246089B0FF069FA001BB0FA80F0E5
:1026C000400903B0F0BD384EEA68F37A1BB372B626
:1026D000F37AD807194609D5DFF8E8E0F068DEF8A4
:1026E00000100140B161CEF800101946980709D5D5
:1026F000DFF8D4E03069DEF80030F17A0340F361AE
:10270000CEF800304B0705D52849736908680340A7
:1027100033620B6062B63368D968914207D02448AF
:1027200018602449DA6042F0804018611960002185
:10273000E8790FF045FF316847F080074FF000431C
:10274000CB624F63CB6A002BFCDA8B6B84B1089AA7
:102750004FF0004710190024CF624C63CB6A002B66
:10276000FCDA8B6B02F8013B824201D03168F3E75F
:102770000121E8790FF024FFF37A0B491A4683B15F
:10278000D80703D50C4A896911601A46990703D501
:102790000A4BF169F27A1960530702D5084B326A85
:1027A0001A60012003B0F0BDD888FF1F88E100E067
:1027B00001403F0000003F8000E100E004E100E054
:1027C00008E100E080E100E084E100E0F8B50546C2
:1027D0000846297917461C4651B11A463946069BC8
:1027E0000FF05AFA044600286DD001242046F8BDA7
:1027F0003A4EEA68F37A1BB372B6F37AD8071946F1
:1028000009D5DFF8FCE0F068DEF800100140B161A6
:10281000CEF800101946980709D5DFF8E8E03069CE
:10282000DEF80030F17A0340F361CEF800304B0758
:1028300005D52B4973690868034033620B6062B6A3
:102840003368D968914207D0264818602649DA6073
:1028500042F08040186119600021E8790FF0B0FE65
:1028600031684FF00043CB624F63C86A0028FCDA3E
:102870008B6B6CB1069802194FF0004410F8013BC5
:10288000CC624B63CB6A002BFCDA82428B6BF5D1B6
:102890000121E8790FF094FEF37A10491A46002BD3
:1028A000A3D0D80703D5114A896911601A46990740
:1028B00003D50F4BF169F27A1960530795D50D4B8B
:1028C000326A1A6091E7079B1B78002B8ED0079A1B
:1028D00009490A4811F0B6F888E700BFD888FF1FF9
:1028E00088E100E001403F0000003F8000E100E09F
:1028F00004E100E008E100E05CF101005090FF1FFE
:1029000080E100E084E100E0F8B505460846297959
:1029100017461E4681B11A4639460FF0E3F90446C0
:1029200000286BD1069B1B78002B68D0069A35498E
:10293000354811F087F862E0344CEB68E27A1AB35C
:1029400072B6E27AD007114609D5DFF8DCE0E0681C
:10295000DEF800100140A161CEF80010114690078A
:1029600009D5DFF8C8E02069DEF80020E17A0240EE
:10297000E261CEF800204A0705D52549626908685A
:10298000024022620A6062B62168CA689A4207D091
:1029900020480860204ACB6043F0804008610A600C
:1029A0000021E8790FF00CFE21684FF00043CB6264
:1029B0004F63C86A0028FCDA4FF000438A6BCB6291
:1029C0004E63CB6A002BFCDA8B6BE87901210FF0A8
:1029D000F7FDE37A0D491A4683B1D80703D50F4AAC
:1029E000896911601A46990703D50D4BE169E27AAE
:1029F0001960530702D50B4B226A1A600124204646
:102A0000F8BD00BF5CF101005090FF1FD888FF1F88
:102A100088E100E001403F0000003F8000E100E06D
:102A200004E100E008E100E080E100E084E100E092
:102A300008460FF001BE00BF0FF0BEBB10B5064B3D
:102A40000360044600F51B7009F018FE2046FFF7EE
:102A5000DFFD204610BD00BFC00B020010B5084BC3
:102A60000360044600F51B7009F008FE2046FFF7DE
:102A7000CFFD20464FF4247111F01CF9204610BD03
:102A8000C00B020038B5044608460D4615F078FF25
:102A90002368024629465B6820469847054620463B
:102AA00010F0B8FF284438BD2DE9F04F4FF0010871
:102AB00085B080F8048004468B4691469A46FFF71D
:102AC000BBFD002800F0AA80BF4E01960DF10E0755
:102AD00000974346752268212046FFF7DFFD054633
:102AE00038B19DF80E30712B00F0BE80682B00F0DD
:102AF000C480019600970123752269212046FFF7C3
:102B0000CDFD054638B19DF80E30712B00F0BD802B
:102B1000682B00F0C7800F220196009701236A21DD
:102B20002046FFF7BBFDA84A054638B19DF80E3098
:102B3000D72B00F01C81D42B00F0C9800F22019606
:102B4000009701236B212046FFF7A8FD9E4A05460A
:102B500038B19DF80E30D72B00F03C81D42B00F01B
:102B6000D9800196009701230F226A212046FFF7A2
:102B700095FD054620B19DF80E30D42B00F09D80C8
:102B80000196009701230F226B212046FFF786FD57
:102B9000054620B19DF80E30D42B00F0E68001965A
:102BA00000970123002268212046FFF777FD0546A4
:102BB00020B19DF80E300F2B00F03981019600975F
:102BC0000123002269212046FFF768FD054620B158
:102BD0009DF80E300F2B00F03481019600970123F1
:102BE000002228212046FFF759FD054620B19DF817
:102BF0000E30A02B00F027810196009701230022C0
:102C000029212046FFF74AFD054620B19DF80E30E8
:102C1000A02B00F022812046FFF73AFD0026092371
:102C20002671A671E3712046FFF706FD98B1664B49
:102C300001930DF10E0300937522012368212046B4
:102C4000FFF72CFD054618B19DF80E30712B2BD0E7
:102C50002046FFF71DFD5D495D4810F0F3FE00259D
:102C6000284605B0BDE8F08F06226823CBF8002087
:102C70008AF8003089F80080F2E70222CBF80020C1
:102C80008AF8003089F80080EAE7062169220123EA
:102C90002846CBF800108AF8002089F8003005B0EB
:102CA000BDE8F08F0221F1E706226823CBF800206F
:102CB0008AF8003089F80060D2E704216A220123F3
:102CC000CBF800108AF8002089F80030C8E70DF131
:102CD0000F080192CDF8008001230F221E2120460B
:102CE000FFF7DCFC18B19DF80F30492B10D001968E
:102CF000CDF8008001230F221D212046FFF7CEFCD6
:102D000000283FF41BAF9DF80F30492B7FF416AF1E
:102D10000521D3E70DF10F080192CDF800800123C2
:102D20000F221D212046FFF7B9FC18B19DF80F3086
:102D3000492B10D00196CDF8008001230F221E21CF
:102D40002046FFF7ABFC00283FF40BAF9DF80F3097
:102D5000492B7FF406AF05216B220123CBF800102D
:102D60008AF8002089F800307AE70421F4E70DF1B1
:102D70000F080192CDF8008001230F221E2120466A
:102D8000FFF78CFC18B19DF80F30492B6FD00196DE
:102D9000CDF8008001230F221D212046FFF77EFC85
:102DA00018B19DF80F30492B61D00196CDF8008005
:102DB0000123272219212046FFF770FC0546002831
:102DC0003FF4BCAE072179E75421020074F1010001
:102DD0005090FF1F0DF10F080192CDF800800123E4
:102DE0000F221D212046FFF759FC18B19DF80F3026
:102DF000492B3ED00196CDF8008001230F221E21E1
:102E00002046FFF74BFC18B19DF80F30492B30D00E
:102E10000196CDF800800123272219212046FFF7D3
:102E20003DFC054600283FF49CAE072194E70821AD
:102E300068220123CBF800108AF8002089F80030BE
:102E40000EE7082122E7092128220123CBF80010F0
:102E50008AF8002089F8003002E70921292201239D
:102E6000CBF800108AF8002089F80030F8E603213A
:102E700024E7032170E700BFF0B40922494BC27177
:102E8000192432225021282700254FF07E568360D6
:102E9000C0F8A42000230122C0F8A840C0F8B81050
:102EA00002240421C0F8BC70102744614565856583
:102EB000C56545668566C56645670665032506667C
:102EC0000667C0F8B0700526036103768371C3619D
:102ED000036280F8243080F8253080F8403080F894
:102EE000783080F8943002714271C0F8AC10C0F8AC
:102EF000B470C0F8C870C0F8CC700727C0F8C050D4
:102F0000C0F8C450C0F8D040C0F8E450C0F8E85051
:102F1000C0F80841C0F81441C0F82841C0F8E0608A
:102F2000C0F80C61C0F8D420C0F8D810C0F8DC207C
:102F3000C0F8EC10C0F8F030C0F8F430C0F8F82059
:102F4000C0F8FC10C0F80021C0F80411C0F810212E
:102F5000C0F81821C0F81C11C0F82021C0F82411B5
:102F6000C0F83021C0F83431C0F83821C0F83C1125
:102F7000C0F84021C0F82C61C0F84461C0F8485145
:102F8000C0F84C51C0F85C41C0F86051C0F86441D1
:102F9000C0F85871C0F85011C0F85431C0F8682119
:102FA000F0BC704720A10700C1EBC10170B58D00D6
:102FB00000242846947016460FF046F9FC2801D0EC
:102FC000204670BD681C0FF03FF91528F8D1344633
:102FD000AD1B1C3628190FF037F904F8010BB44269
:102FE000F8D1012070BD00BF0FF0E6B82DE9F04127
:102FF000ADF5187D074600F5B672012366A89E4917
:1030000009F076FC98AA9DF89C0112F8BC3D6899DD
:1030100087F8700287F87832C7F8741207F51B76C4
:1030200007F2792307F2862012F8011F03F8011B2B
:103030008342F9D16D9BC7F88832304609F02EFBE8
:10304000804666A809F01AFBB8F1000F49D00DF1CF
:103050000705002406E00D2814D00A2812D00134F8
:10306000C82C39D0304609F093FAC0B2FF2805F8D1
:10307000010FF0D1304609F003FB40460DF5187DF5
:10308000BDE8F08102AD00232B552B78232BDED039
:1030900013F0DF0FDBD034AA66AB7849284615F071
:1030A00001FA02287CD1764934A815F09DFA10B3B4
:1030B000744934A815F098FA002862D0724934A8EF
:1030C00015F092FAE0B9714966A815F08DFAB0FAD8
:1030D00080F040093871BAE702AD002385F8C730A7
:1030E000D3E73B683846DB689847804640460DF595
:1030F000187DBDE8F08166A814F086FB3861A6E76C
:10310000634934A815F070FA00283FD0614934A80B
:1031100015F06AFA00283ED05F4934A815F064FA29
:10312000002848D05D4934A815F05EFA002847D041
:103130005B4934A815F058FA002800F097805949E7
:1031400034A815F051FA002800F08B80564934A8B5
:1031500015F04AFA00287FD0544934A815F044FAF3
:10316000002873D0524934A815F03EFA68BB47498D
:1031700066A815F039FAB0FA80F0400987F8250002
:1031800065E766A814F040FB786160E766A814F074
:103190003BFB78715BE766A814F036FBB87156E725
:1031A0002A464449444810F04DFC304609F068FA7C
:1031B0004FF0000861E766A814F026FBF87146E7B7
:1031C00066A814F021FBB86041E73C4934A815F02B
:1031D0000BFA002800F08885394934A815F004FA64
:1031E000002800F07885374934A815F0FDF900284B
:1031F00000F06885344934A815F0F6F9002800F08D
:103200005885324934A815F0EFF9002800F04885B8
:103210002F4934A815F0E8F9002800F038852D4929
:1032200034A815F0E1F9002800F0B9802A4934A843
:1032300015F0DAF9002851D1144966A815F0D4F92F
:10324000B0FA80F0400987F8400000E766A814F063
:10325000DBFA87F82400FAE666A814F0D5FA38629B
:10326000F5E666A814F0D0FAF861F0E666A814F066
:10327000CBFA3876EBE600BF089FFF1FA8F10100EC
:10328000D4F10100DCF10100E8F10100F4F10100EA
:10329000FCF1010004F201000CF2010018F201003F
:1032A00024F2010034F2010044F2010054F2010062
:1032B00068F20100B4F101005090FF1F78F20100A4
:1032C0008CF201009CF20100ACF20100BCF20100A2
:1032D000CCF20100DCF20100F4F20100594934A8FB
:1032E00015F082F9002800F0C984574934A815F078
:1032F0007BF9002800F0B984544934A815F074F91A
:10330000002800F0A984524934A815F06DF900286E
:1033100000F099844F4934A815F066F9002800F0B0
:1033200089844D4934A815F05FF9002800F07984AC
:103330004A4934A815F058F9002800F06984484932
:1033400034A815F051F9002800F05984454934A8F3
:1033500015F04AF9002800F04984434934A815F0D3
:1033600043F9002800F03984404934A815F03CF9AD
:1033700000285ED03E4934A815F036F9002850D018
:103380003C4934A815F030F988B93B4966A815F0D6
:103390002BF9B0FA80F0400987F8780057E601AAC7
:1033A000364966A815F07EF8019B7B674FE63449E5
:1033B00034A815F019F9002800F00684314934A822
:1033C00015F012F9002800F0F5832F4934A815F004
:1033D0000BF9002800F0E4832C4934A815F004F917
:1033E000002800F0D3832A4934A815F0FDF80028FE
:1033F00000F03B82274934A815F0F6F8002800F0C9
:103400002A82254934A815F0EFF8002846D11A4938
:1034100066A815F0E9F8B0FA80F0400987F8940042
:1034200015E601AA154966A815F03CF8019B3B6713
:103430000DE601AA114966A815F034F8019BFB6658
:1034400005E600BF10F3010024F3010038F301008A
:103450004CF3010060F3010074F3010088F30100F4
:103460009CF30100B0F30100C4F30100D8F30100A4
:10347000ECF3010000F40100F4F1010088F2010016
:1034800010F4010020F4010030F4010040F40100C8
:1034900050F4010060F4010070F40100B14934A857
:1034A00015F0A2F8002800F05C83AF4934A815F0AD
:1034B0009BF8002800F04B83AC4934A815F094F831
:1034C000002800F03A83AA4934A815F08DF80028A6
:1034D00000F02C83A74934A815F086F8002800F0E6
:1034E0001E83A54934A815F07FF8002800F010834A
:1034F000A24934A815F078F8002800F00283A0490A
:1035000034A815F071F8002800F0F4829D4934A821
:1035100015F06AF8002800F0E6829B4934A815F0FF
:1035200063F8002800F0D882984934A815F05CF8B8
:10353000002800F0CA82964934A815F055F80028F2
:1035400000F0BC82934934A815F04EF8002800F032
:10355000AE82914934A815F047F8002800F0A08207
:103560008E4934A815F040F8002800F092828C496A
:1035700034A815F039F8002800F08482894934A86D
:1035800015F032F8002800F07682874934A815F04B
:103590002BF8002800F06882844934A815F024F83C
:1035A000002800F05A82824934A815F01DF800283E
:1035B00000F04C827F4934A815F016F8002800F07E
:1035C0003E827D4934A815F00FF8002800F03082C3
:1035D0007A4934A815F008F8002800F022827849CA
:1035E00034A815F001F8002800F01482754934A8B9
:1035F00014F0FAFF002800F00682734934A814F092
:10360000F3FF002800F0F881704934A814F0ECFFB3
:10361000002800F0EA816E4934A814F0E5FF002884
:1036200000F0DC816B4934A814F0DEFF002800F0C4
:10363000CE81694934A814F0D7FF002800F0C0817A
:10364000664934A814F0D0FF002800F0B281644924
:1036500034A814F0C9FF002800F0A481614934A8FF
:1036600014F0C2FF002800F096815F4934A814F0DE
:10367000BBFF002800F088815C4934A814F0B4FF37
:10368000002800F07A815A4934A814F0ADFF0028D0
:1036900000F06C81574934A814F0A6FF002800F010
:1036A0005E81554934A814F09FFF002800F0508136
:1036B000524934A814F098FF002800F04281504984
:1036C00034A814F091FF002800F034814D4934A84B
:1036D00014F08AFF002800F026814B4934A814F02A
:1036E00083FF002800F01881484934A814F07CFFBB
:1036F000002800F00A81464934A814F075FF00281C
:1037000000F0FC80434934A814F06EFF002800F05C
:10371000EE80414934A814F067FF002800F0E080F3
:103720003E4934A814F060FF002800F0D2803C49E4
:1037300034A814F059FF002800F0C480394934A897
:1037400014F052FF002800F0B680374934A814F076
:103750004BFF002800F0A880344934A814F044FF3F
:1037600066E000BF80F401008CF4010098F40100D1
:10377000A4F40100C0F40100DCF40100F0F4010045
:1037800000F5010010F501002CF5010048F50100DD
:1037900058F5010068F5010078F5010088F5010091
:1037A000A4F50100B8F50100CCF50100E0F5010039
:1037B000FCF5010010F6010024F6010040F60100BE
:1037C00058F6010074F6010088F601009CF601002D
:1037D000B0F60100CCF60100E4F6010004F70100A8
:1037E0001CF7010038F7010050F7010068F70100ED
:1037F0007CF701009CF70100B4F70100D4F7010049
:10380000ECF7010004F8010014F8010024F80100AD
:1038100034F801004CF801005CF801006CF801007C
:1038200088F801009CF80100B4F80100C4F8010018
:10383000002832D0D04934A814F0D6FE30B334A8D2
:10384000CE4914F0D1FED0B966A813F0DDFFC7F859
:103850006801FFF7FCBB01AAC94966A814F022FE63
:10386000019BC7F89030FFF7F2BB01AAC44966A8D4
:1038700014F018FE019BC7F88C30FFF7E8BB2A460E
:10388000C049C14810F0DEF8FFF7E1BB66A813F0AD
:10389000BBFFC7F86401FFF7DABB66A813F0B4FFFB
:1038A000C7F86001FFF7D3BB66A813F0ADFFC7F8F8
:1038B0005C01FFF7CCBB66A813F0A6FFC7F8580160
:1038C000FFF7C5BB66A813F09FFFC7F85401FFF7C9
:1038D000BEBB66A813F098FFC7F85001FFF7B7BB4F
:1038E00066A813F091FFC7F84C01FFF7B0BB66A8BC
:1038F00013F08AFFC7F84801FFF7A9BB66A813F0C9
:1039000083FFC7F84401FFF7A2BB66A813F07CFF52
:10391000C7F83801FFF79BBB66A813F075FFC7F81F
:103920003C01FFF794BB66A813F06EFFC7F8400197
:10393000FFF78DBB66A813F067FFC7F83401FFF7E8
:1039400086BB66A813F060FFC7F83001FFF77FBBA6
:1039500066A813F059FFC7F82C01FFF778BB66A8DB
:1039600013F052FFC7F82801FFF771BB66A813F0E8
:103970004BFFC7F82401FFF76ABB66A813F044FFAA
:10398000C7F81801FFF763BB66A813F03DFFC7F83F
:103990001C01FFF75CBB66A813F036FFC7F82001D7
:1039A000FFF755BB66A813F02FFFC7F81401FFF708
:1039B0004EBB66A813F028FFC7F81001FFF747BBFE
:1039C00066A813F021FFC7F80C01FFF740BB66A8FB
:1039D00013F01AFFC7F80801FFF739BB66A813F008
:1039E00013FFC7F80401FFF732BB66A813F00CFF02
:1039F000C7F8F800FFF72BBB66A813F005FFC7F860
:103A0000FC00FFF724BB66A813F0FEFEC7F8000118
:103A1000FFF71DBB66A813F0F7FEC7F8F400FFF729
:103A200016BB66A813F0F0FEC7F8F000FFF70FBB57
:103A300066A813F0E9FEC7F8EC00FFF708BB66A81C
:103A400013F0E2FEC7F8E800FFF701BB66A813F029
:103A5000DBFEC7F8E400FFF7FABA66A813F0D4FE5D
:103A6000C7F8E000FFF7F3BA66A813F0CDFEC7F879
:103A7000D400FFF7ECBA66A813F0C6FEC7F8D8006A
:103A8000FFF7E5BA66A813F0BFFEC7F8DC00FFF742
:103A9000DEBA66A813F0B8FEC7F8D000FFF7D7BAB1
:103AA00066A813F0B1FEC7F8CC00FFF7D0BA66A83D
:103AB00013F0AAFEC7F8C800FFF7C9BA66A813F04A
:103AC000A3FEC7F8C400FFF7C2BA66A813F09CFEB5
:103AD000C7F8C000FFF7BBBA66A813F095FEC7F899
:103AE000BC00FFF7B4BA66A813F08EFEC7F8B800A2
:103AF000FFF7ADBA66A813F087FEC7F8B400FFF76A
:103B0000A6BA66A813F080FEC7F8B000FFF79FBA08
:103B100066A813F079FEC7F8AC00FFF798BA66A85C
:103B200013F072FEC7F8A800FFF791BA66A813F069
:103B30006BFEC7F8A400FFF78ABA01AA104966A86D
:103B400014F0B0FC019BC7F8A030FFF780BA01AABF
:103B50000B4966A814F0A6FC019BC7F89C30FFF740
:103B600076BA01AA064966A814F09CFC019BC7F826
:103B70009830FFF76CBA00BFDCF80100ECF80100E8
:103B800088F20100FCF801005090FF1F01AA5B4978
:103B900066A814F087FC019BC7F88830FFF757BA76
:103BA00001AA564966A814F07DFC019BC7F8843031
:103BB000FFF74DBA01AA514966A814F073FC019BA6
:103BC000C7F88030FFF743BA01AA4C4966A814F041
:103BD00069FC019BFB67FFF73ABA01AA474966A84F
:103BE00014F060FC019BBB66FFF731BA01AA4349A0
:103BF00066A814F057FC019B7B66FFF728BA01AA60
:103C00003E4966A814F04EFC019B3B66FFF71FBAC5
:103C100001AA3A4966A814F045FC019BFB65FFF731
:103C200016BA01AA354966A814F03CFC019BBB6595
:103C3000FFF70DBA01AA314966A814F033FC019BC5
:103C40007B65FFF704BA01AA2C4966A814F02AFC88
:103C5000019B3B65FFF7FBB901AA284966A814F050
:103C600021FC019BFB64FFF7F2B901AA234966A876
:103C700014F018FC019BBB64FFF7E9B901AA1F49C6
:103C800066A814F00FFC019B7B64FFF7E0B901AA62
:103C90001A4966A814F006FC019BFB63FFF7D7B92D
:103CA00001AA164966A814F0FDFB019BBB63FFF750
:103CB000CEB901AA114966A814F0F4FB019B7B63FD
:103CC000FFF7C5B901AA0D4966A814F0EBFB019BEB
:103CD0003B63FFF7BCB901AA084966A814F0E2FBF0
:103CE000019BFB62FFF7B3B901AA044966A814F06F
:103CF000D9FB019BBB62FFF7AAB900BF88F20100A4
:103D0000F0B589B00446FFF7B7F890F88C1261B9A6
:103D100080F8251001AAFFF747F918B19DF8063081
:103D2000012B06D0012009B0F0BDFFF75FF909B003
:103D3000F0BD029F039E049D05980699079A84F89A
:103D40002530A762E66225636063A163E263E9E769
:103D500070B504460D46FEF765FC2046284B40F83A
:103D6000283B02F0A9FE04F1340002F0A5FE04F1A4
:103D7000440002F0A1FE04F17C0002F09DFE04F17B
:103D8000880002F099FE04F1980002F095FE04F517
:103D90001B7008F065FC284614F0F2FDC82801D815
:103DA0002B782BBB174918480FF04CFE174B07CB4D
:103DB00004F5B6751E78C4F86C012E736960AA60AC
:103DC00001210A200EF010FC0A21114808F0F2FC33
:103DD00038B1012384F88C322046FFF791FF20464A
:103DE00070BD84F88C022046FFF78AFF204670BD24
:103DF0002A46084904F5B67014F02EFBE0E700BF30
:103E0000C00B020024F901005090FF1F54F901007B
:103E1000089FFF1F64F9010070B500F51B74084688
:103E200016460D4614F0ACFD29460246204608F021
:103E30009DFB20460122064908F098FB31462046AA
:103E40000FF04EFE2046BDE870400FF0E3BD00BF0E
:103E500070F9010070B500F51B7482B00846164673
:103E60000D4614F08DFD29460246204608F07EFBE3
:103E700001222046094908F079FB304612F0C2FCC5
:103E8000022502460B46009520460FF031FE2046E3
:103E900002B0BDE870400FF0BDBD00BF70F9010079
:103EA00070B500F51B74084616460D4614F068FD03
:103EB00029460246204608F059FB204601220C49BB
:103EC00008F054FB4EB9204605220A4908F04EFB83
:103ED0002046BDE870400FF09DBD204604220649F3
:103EE00008F044FB2046BDE870400FF093BD00BFD2
:103EF00070F9010074F90100F4F10100F0B590F8D7
:103F00008C3289B005463BBB90F82530066B446B7C
:103F1000D0F828E0C76AEA6B806B8DF80230FC218C
:103F2000152303960494CDF804E06D46029705909E
:103F300006928DF800108DF801306C460DF11B06CD
:103F400001E014F8011F601B0EF098F9B442F8D19B
:103F50000126304609B0F0BD00F5B6742146D748B9
:103F600008F03AFD224668461323D44908F0C0FC05
:103F700008AA029B12F8140D9DF8041085F8780227
:103F8000C5F8743285F8701205F51B7405F27923B3
:103F900005F2862012F8011F03F8011B9842F9D19F
:103FA000079BC5F88832204608F078FB064668462D
:103FB00008F064FB002E02F0E7840222C04920468C
:103FC00008F0D4FABF492046FEF75CFD0222BC4946
:103FD000204608F0CBFABC492046FEF753FD0222EA
:103FE000B749204608F0C2FAB8492046FEF74AFD14
:103FF00020460FF00FFD0222B149204608F0B6FA24
:10400000B3492046FEF73EFD0222AD49204608F0A6
:10401000ADFA0022AC49204608F0A8FA20460FF07D
:10402000F9FC20460FF0F6FC0222A549204608F0D4
:104030009DFA0B22A749204608F098FA20460FF077
:10404000E9FC02229E49204608F090FA1322A24978
:10405000204608F08BFA20460FF0DCFC022298493B
:10406000204608F083FA38229C49204608F07EFA60
:1040700020460FF0CFFC02229149204608F076FA44
:1040800019229749204608F071FA20460FF0C2FC29
:1040900002228B49204608F069FA1B2291492046EA
:1040A00008F064FA20460FF0B5FC0222844920464D
:1040B00008F05CFA1D228C49204608F057FA204689
:1040C0000FF0A8FC02227E49204608F04FFA112288
:1040D0008649204608F04AFA20460FF09BFC02224F
:1040E0007749204608F042FA19228149204608F013
:1040F0003DFA20460FF08EFC02227149204608F05E
:1041000035FA1E227B49204608F030FA20460FF08F
:1041100081FC2A6978492846FFF77EFE20460FF089
:1041200079FC02226649204608F020FA00226649FE
:10413000204608F01BFA20460FF06CFC0222604972
:10414000204608F013FA13226C49204608F00EFAB4
:1041500020460FF05FFC02225949204608F006FA7B
:104160003B226749204608F001FA20460FF052FC36
:1041700002225349204608F0F9F9132261492046EA
:1041800008F0F4F920460FF045FC02224C49204685
:1041900008F0ECF90A225C49204608F0E7F92046CD
:1041A0000FF038FC6A6959492846FFF735FE20466A
:1041B0000FF030FC02224249204608F0D7F942496C
:1041C0002046FEF75FFC02223D49204608F0CEF96A
:1041D0004F492046FEF756FC2A794E492846FFF7FC
:1041E0005FFE20460FF016FC02223549204608F0FB
:1041F000BDF935492046FEF745FC022230492046EC
:1042000008F0B4F944492046FEF73CFC6A7943497A
:104210002846FFF701FE20460FF0FCFB022228494A
:10422000204608F0A3F928492046FEF72BFC02227D
:104230002349204608F09AF939492046FEF722FC26
:10424000AA7938492846FFF7E7FD20460FF0E2FB40
:1042500002221B49204608F089F91B492046FEF737
:1042600011FC02221649204608F080F92E4920460A
:10427000FEF708FCEA792D492846FFF7CDFD2046D8
:104280000FF0C8FB02220E49204608F06FF90E49D4
:104290002046FEF7F7FB02220949204608F066F99E
:1042A00023492046FEF7EEFBAA6822492846FFF77D
:1042B000B3FD20460FF0AEFB3EE000BF089FFF1F9E
:1042C0006CF90100A4F9010054210200ECF901008D
:1042D00004FA010018FA010024FA010038FA01007A
:1042E00074FA010090FA0100ACFA0100CCFA010066
:1042F000E0FA0100FCFA0100D4F101001CFB01000E
:1043000030FB01006CFB010080FB0100DCF10100CF
:104310008CFB0100E8F10100B8FB0100FCF1010099
:10432000D4FB010004F20100F0FB01000CF20100DB
:1043300010FC010018F201000222CB49204608F0CF
:1043400015F9CA492046FEF79DFB0222C6492046C0
:1043500008F00CF9C6492046FEF794FB2A7EC549B1
:104360002846FFF759FD20460FF054FB0222BE49B4
:10437000204608F0FBF8BD492046FEF783FB0222E9
:10438000B949204608F0F2F8BB492046FEF77AFB0F
:10439000EA69BA492846FFF73FFD20460FF03AFB8D
:1043A0000222B149204608F0E1F8B5492046FEF75F
:1043B00069FB0222AC49204608F0D8F8B1492046F2
:1043C000FEF760FB0222A849204608F0CFF8AE496C
:1043D0002046FEF757FB0222A349204608F0C6F804
:1043E000AA492046FEF74EFB02229F49204608F0CC
:1043F000BDF8A7492046FEF745FB02229A49204610
:1044000008F0B4F8A3492046FEF73CFB0222964987
:10441000204608F0ABF8A0492046FEF733FB2A6A95
:104420009E492846FFF7F8FC20460FF0F3FA0222D7
:104430008D49204608F09AF88C492046FEF722FB69
:1044400002228949204608F091F895492046FEF756
:1044500019FB95F8242093492846FFF7DDFC2046F8
:104460000FF0D8FA02228049204608F07FF88E49E2
:104470002046FEF707FB02227B49204608F076F82B
:104480007A492046FEF7FEFA20460FF0C3FA0222D0
:104490007549204608F06AF884492046FEF7F2FA8A
:1044A00095F8252082492846FFF7FAFCAA6A814937
:1044B0002846FFF7CFFCEA6A7F492846FFF7CAFC87
:1044C0002A6B7E492846FFF7C5FC6A6B7C49284663
:1044D000FFF7C0FCAA6B7B492846FFF7BBFCEA6BE1
:1044E00079492846FFF7B6FC20460FF093FA0222DE
:1044F0005D49204608F03AF86B492046FEF7C2FABB
:1045000002225949204608F031F858492046FEF762
:10451000B9FA20460FF07EFA02225349204608F0ED
:1045200025F86A492046FEF7ADFA02224E49204698
:1045300008F01CF866492046FEF7A4FA6A6F654940
:104540002846FFF787FC20460FF064FA022246490E
:10455000204608F00BF854492046FEF793FA022251
:104560004149204608F002F840492046FEF78AFA01
:1045700020460FF04FFA02223B49204607F0F6FF93
:1045800055492046FEF77EFA95F8402053492846C3
:10459000FFF786FC6A6C52492846FFF75BFCAA6C61
:1045A00050492846FFF756FCEA6C4F492846FFF76A
:1045B00051FC2A6D4D492846FFF74CFC6A6D4C4969
:1045C0002846FFF747FCAA6D4A492846FFF742FCF8
:1045D000EA6D49492846FFF73DFC2A6E47492846BF
:1045E000FFF738FC6A6E46492846FFF733FCAA6E8F
:1045F00044492846FFF72EFCEA6E43492846FFF758
:1046000029FC2A6F41492846FFF724FC20460FF079
:1046100001FA02221449204607F0A8FF2249204649
:10462000FEF730FA02221049204607F09FFF0F499B
:104630002046FEF727FA20460FF0ECF902220A493D
:10464000204607F093FF32492046FEF71BFA95F803
:10465000782030492846FFF723FCEA6F2E49284688
:10466000FFF7F8FB5AE000BF6CF90100542102008B
:1046700020FC010024F2010060FC010034F2010082
:104680008CFC010024FA0100A4FC0100CCFC010018
:10469000DCFC0100ECFC0100FCFC010044F2010028
:1046A0000CFD010054F20100A4F9010054FD0100C9
:1046B00068F2010078F201008CF201009CF2010026
:1046C000ACF20100BCF20100CCF2010068FD010077
:1046D00084FD0100DCF20100D0FD0100F4F20100D4
:1046E00010F3010024F3010038F301004CF3010042
:1046F00060F3010074F3010088F301009CF30100F2
:10470000B0F30100C4F30100D8F30100ECF30100A1
:10471000F0FD010000F4010010F40100D5F8802044
:10472000D4492846FFF796FBD5F88420D24928467D
:10473000FFF790FBD5F88820D0492846FFF78AFB81
:10474000D5F88C20CE492846FFF784FBD5F8902079
:10475000CC492846FFF77EFB20460FF05BF902228A
:10476000C949204607F002FFC8492046FEF78AF9EA
:104770000222C549204607F0F9FEC5492046FEF74A
:1047800081F920460FF046F90222BF49204607F082
:10479000EDFEC0492046FEF775F995F89420BE4914
:1047A0002846FFF77DFBD5F89820BC492846FFF73F
:1047B00051FBD5F89C20BA492846FFF74BFBD5F8AA
:1047C000A020B8492846FFF745FB20460FF022F904
:1047D0000222AD49204607F0C9FEAC492046FEF74B
:1047E00051F90222A849204607F0C0FEA8492046F8
:1047F000FEF748F90222A449204607F0B7FEAA496D
:104800002046FEF73FF902229F49204607F0AEFE00
:104810009F492046FEF736F920460FF0FBF80222AA
:104820009949204607F0A2FEA0492046FEF72AF942
:10483000D5F8A4209E492846FFF7EEFA20460FF04F
:10484000E9F802229049204607F090FE9049204660
:10485000FEF718F902228C49204607F087FE954999
:104860002046FEF70FF9D5F8A82093492846FFF710
:10487000D3FA20460FF0CEF802228349204607F0F3
:1048800075FE83492046FEF7FDF802227E49204648
:1048900007F06CFE89492046FEF7F4F802227A49B7
:1048A000204607F063FE86492046FEF7EBF8022219
:1048B0007549204607F05AFE82492046FEF7E2F885
:1048C00002227149204607F051FE7F492046FEF73B
:1048D000D9F802226C49204607F048FE7B49204661
:1048E000FEF7D0F802226849204607F03FFE7849DB
:1048F0002046FEF7C7F802226349204607F036FE3D
:1049000074492046FEF7BEF802225F49204607F0B0
:104910002DFE71492046FEF7B5F8D5F8AC206F4959
:104920002846FFF779FA20460FF074F8022256491C
:10493000204607F01BFE56492046FEF7A3F8022248
:104940005149204607F012FE65492046FEF79AF8C5
:1049500002224D49204607F009FE62492046FEF733
:1049600091F802224849204607F000FE5E492046A1
:10497000FEF788F802224449204607F0F7FD5B491C
:104980002046FEF77FF802223F49204607F0EEFD61
:1049900057492046FEF776F8D5F8B0205549284605
:1049A000FFF73AFA20460FF035F802223649204642
:1049B00007F0DCFD36492046FEF764F80222324952
:1049C000204607F0D3FD4C492046FEF75BF8022253
:1049D0002D49204607F0CAFD48492046FEF752F807
:1049E00002222949204607F0C1FD45492046FEF72D
:1049F00049F802222449204607F0B8FD41492046E3
:104A0000FEF740F802222049204607F0AFFD3E495C
:104A10002046FEF737F8D5F8B4203C492846FFF782
:104A2000FBF920460EF0F6FF02221749204607F058
:104A30009DFD16492046FEF725F802221249204620
:104A400007F094FD12492046FEF71CF802220E4999
:104A5000204607F08BFD2E492046FEF713F8022270
:104A60000949204607F082FD09492046FEF70AF869
:104A700050E000BF20F4010030F4010040F40100D8
:104A800050F4010060F401006CF90100A4F9010088
:104A90005421020004FE010070F4010080F40100C2
:104AA0008CF4010098F401001CFE010030FE0100AE
:104AB000A4F401005CFE0100C0F401008CFE0100C2
:104AC000ACFE0100CCFE0100ECFE01000CFF010079
:104AD0002CFF01004CFF01006CFF0100DCF4010021
:104AE00088FF0100A4FF0100C8FF0100ECFF0100E6
:104AF00010000200F0F40100340002005000020037
:104B000060000200700002008000020000F5010059
:104B10009000020020460EF07DFF0222D24920467E
:104B200007F024FDD1492046FDF7ACFFD5F8B820A9
:104B3000CF492846FFF770F920460EF06BFF02229E
:104B4000C949204607F012FDCA492046FDF79AFFE1
:104B50000222C549204607F009FDC7492046FDF756
:104B600091FFD5F8BC20C5492846FFF755F92046E6
:104B70000EF050FF0222BC49204607F0F7FCBD4969
:104B80002046FDF77FFF0222B749204607F0EEFCE2
:104B9000BB492046FDF776FF0222B349204607F0C5
:104BA000E5FCB8492046FDF76DFF0222AE492046DC
:104BB00007F0DCFCB4492046FDF764FF0222AA4955
:104BC000204607F0D3FCB1492046FDF75BFF0222E7
:104BD000A549204607F0CAFCAD492046FDF752FF23
:104BE0000222A149204607F0C1FCAA492046FDF750
:104BF00049FF02229C49204607F0B8FCA6492046FE
:104C0000FDF740FF02229849204607F0AFFCA34978
:104C10002046FDF737FF02229349204607F0A6FC05
:104C20009F492046FDF72EFF02228F49204607F0BC
:104C30009DFC9C492046FDF725FFD5F8C0209A49E8
:104C40002846FFF7E9F820460EF0E4FE02228649E6
:104C5000204607F08BFC87492046FDF713FF022210
:104C60008149204607F082FC90492046FDF70AFF63
:104C700002227D49204607F079FC8D492046FDF748
:104C800001FF02227849204607F070FC894920463E
:104C9000FDF7F8FE02227449204607F067FC8649BA
:104CA0002046FDF7EFFE02226F49204607F05EFC2A
:104CB00082492046FDF7E6FE02226B49204607F0B6
:104CC00055FC7F492046FDF7DDFE0222664920465D
:104CD00007F04CFC7B492046FDF7D4FE02226249D6
:104CE000204607F043FC78492046FDF7CBFE022220
:104CF0005D49204607F03AFC74492046FDF7C2FEA4
:104D0000D5F8C42072492846FFF786F820460EF0F1
:104D100081FE02225449204607F028FC55492046CE
:104D2000FDF7B0FE02225049204607F01FFC6949FA
:104D30002046FDF7A7FE02224B49204607F016FC4D
:104D400065492046FDF79EFE02224749204607F0AE
:104D50000DFC62492046FDF795FE0222424920469D
:104D600007F004FC5E492046FDF78CFE02223E4916
:104D7000204607F0FBFB5B492046FDF783FED5F894
:104D8000C82059492846FFF747F820460EF042FE52
:104D900002223549204607F0E9FB36492046FDF757
:104DA00071FE02223049204607F0E0FB4F492046C1
:104DB000FDF768FE02222C49204607F0D7FB4C493C
:104DC0002046FDF75FFE02222749204607F0CEFB72
:104DD00048492046FDF756FE02222349204607F0A7
:104DE000C5FB45492046FDF74DFE02221E492046DF
:104DF00007F0BCFB41492046FDF744FED5F8CC2026
:104E00003F492846FFF708F820460EF003FE02222D
:104E10001549204607F0AAFB3A492046FDF732FE25
:104E200002221149204607F0A1FB12492046FDF756
:104E300029FE02220C49204607F098FB3249204601
:104E4000FDF720FE20460EF0E5FD02220649204631
:104E500007F08CFB07492046FDF714FE02220249A9
:104E6000204607F083FB51E06CF90100A40002002A
:104E700010F50100542102005CFE01002CF5010038
:104E8000E8000200000102002001020040010200CF
:104E9000600102007C01020098010200B4010200DE
:104EA000D0010200F001020048F501000C020200EE
:104EB0002802020048020200680202008802020082
:104EC000A4020200C4020200E40202000403020081
:104ED00058F5010088FF0100A4FF0100C8FF010090
:104EE000ECFF01001000020068F501003400020030
:104EF000500002006000020070000200800002000A
:104F000078F50100A4F9010020030200D2492046EF
:104F1000FDF7B8FD0222D149204607F027FBD04912
:104F20002046FDF7AFFD0222CC49204607F01EFBCC
:104F3000CC492046FDF7A6FD0222C849204607F0CD
:104F400015FBC9492046FDF79DFD0222C3492046B5
:104F500007F00CFBC5492046FDF794FD0222BF492E
:104F6000204607F003FBC2492046FDF78BFD0222D5
:104F7000BA49204607F0FAFABE492046FDF782FDFD
:104F80000222B649204607F0F1FABB492046FDF758
:104F900079FDD5F8D020B9492846FEF73DFF2046D7
:104FA0000EF038FD0222AD49204607F0DFFAB44981
:104FB0002046FDF767FD0222A849204607F0D6FAF1
:104FC0001822B049204607F0D1FA20460EF022FD03
:104FD0000222A249204607F0C9FAAB492046FDF754
:104FE00051FD02229D49204607F0C0FAA7492046FC
:104FF000FDF748FD02229949204607F0B7FAA44977
:105000002046FDF73FFDD5F8DC20A2492846FEF7F3
:1050100003FF20460EF0FEFC02229049204607F0D6
:10502000A5FA97492046FDF72DFD02228B4920461F
:1050300007F09CFA98492046FDF724FD0222874993
:10504000204607F093FA95492046FDF71BFDD5F859
:10505000D82093492846FEF7DFFE20460EF0DAFC02
:1050600002227E49204607F081FA85492046FDF755
:1050700009FD02227949204607F078FA894920463D
:10508000FDF700FD02227549204607F06FFA8649B8
:105090002046FDF7F7FCD5F8D42084492846FEF7D2
:1050A000BBFE20460EF0B6FC02226C49204607F0FB
:1050B0005DFA7F492046FDF7E5FC0222674920465C
:1050C00007F054FA7B492046FDF7DCFC02226349D5
:1050D000204607F04BFA78492046FDF7D3FC022220
:1050E0005E49204607F042FA74492046FDF7CAFCA3
:1050F00002225A49204607F039FA71492046FDF745
:10510000C1FC02225549204607F030FA6D4920467D
:10511000FDF7B8FC02225149204607F027FA6A49F8
:105120002046FDF7AFFC02224C49204607F01EFA4C
:1051300066492046FDF7A6FC02224849204607F0B2
:1051400015FA63492046FDF79DFC0222434920469B
:1051500007F00CFA5F492046FDF794FC02223F4914
:10516000204607F003FA5C492046FDF78BFCD5F892
:10517000E0205A492846FEF74FFE20460EF04AFC32
:1051800002223649204607F0F1F93D492046FDF755
:1051900079FC02223149204607F0E8F950492046BF
:1051A000FDF770FC02222D49204607F0DFF94D493A
:1051B0002046FDF767FC02222849204607F0D6F971
:1051C00049492046FDF75EFC02222449204607F0AB
:1051D000CDF946492046FDF755FC02221F492046DD
:1051E00007F0C4F942492046FDF74CFC02221B4956
:1051F000204607F0BBF93F492046FDF743FCD5F8B0
:10520000E4203D492846FEF707FE20460EF002FC4A
:1052100002221249204607F0A9F919492046FDF754
:1052200031FC02220D49204607F0A0F933492046FF
:10523000FDF728FC02220949204607F097F930497A
:105240002046FDF71FFC02220449204607F08EF994
:105250002C49204658E000BF3C0302006CF90100D5
:1052600050030200600302006C0302007803020096
:105270008803020098030200A803020088F50100D9
:105280005421020088FF0100B8030200D803020085
:10529000F8030200A4F5010018040200340402001F
:1052A000B8F501006404020078040200CCF50100A6
:1052B000A8040200C0040200D0040200E0040200BE
:1052C000F0040200FC0402000805020018050200B8
:1052D000280502003805020048050200E0F501003B
:1052E000340002005805020068050200780502003B
:1052F0008805020098050200FCF501000C0202007E
:10530000A8050200B4050200FDF7BCFB0222D54946
:10531000204607F02BF9D4492046FDF7B3FB0222C3
:10532000D049204607F022F9D0492046FDF7AAFBD4
:10533000D5F8E820CE492846FEF76EFD20460EF04F
:1053400069FB0222C749204607F010F9C9492046E7
:10535000FDF798FB0222C349204607F007F9C6492A
:105360002046FDF78FFB0222BE49204607F0FEF8DB
:10537000C2492046FDF786FB0222BA49204607F0C3
:10538000F5F8BF492046FDF77DFB0222B5492046CE
:1053900007F0ECF8BB492046FDF774FB0222B14947
:1053A000204607F0E3F8B8492046FDF76BFB0222E0
:1053B000AC49204607F0DAF8B4492046FDF762FB15
:1053C0000222A849204607F0D1F8B1492046FDF74E
:1053D00059FBD5F8EC20AF492846FEF71DFD2046C5
:1053E0000EF018FB02229F49204607F0BFF8A149A2
:1053F0002046FDF747FB02229A49204607F0B6F8FF
:10540000A5492046FDF73EFB02229649204607F0BB
:10541000ADF8A2492046FDF735FB0222914920460E
:1054200007F0A4F89E492046FDF72CFB02228D4987
:10543000204607F09BF89B492046FDF723FB0222FC
:105440008849204607F092F897492046FDF71AFB55
:10545000D5F8F02095492846FEF7DEFC20460EF0F0
:10546000D9FA02227F49204607F080F89049204669
:10547000FDF708FB02227B49204607F077F87D49BB
:105480002046FDF7FFFA02227649204607F06EF823
:1054900088492046FDF7F6FA02227249204607F0B5
:1054A00065F874492046FDF7EDFA20460EF0B2FA91
:1054B00002226C49204607F059F87F492046FDF743
:1054C000E1FA02226749204607F050F87B4920465E
:1054D000FDF7D8FA02226349204607F047F87849D9
:1054E0002046FDF7CFFA02225E49204607F03EF83B
:1054F00074492046FDF7C6FA02225A49204607F0B1
:1055000035F871492046FDF7BDFAD5F8F4206F490A
:105510002846FEF781FC20460EF07CFA0222514913
:10552000204607F023F853492046FDF7ABFA022244
:105530004C49204607F01AF865492046FDF7A2FAC3
:1055400002224849204607F011F81D2261492046F1
:1055500007F00CF820460EF05DFA02224149204681
:1055600007F004F81D225C49204606F0FFFF2046A4
:105570000EF050FA02223B49204606F0F7FF1E22A9
:105580005649204606F0F2FF20460EF043FAD5F8C1
:10559000002153492846FEF73FFC20460EF03AFA18
:1055A00002223049204606F0E1FF00223149204620
:1055B00006F0DCFF20460EF02DFA02222949204693
:1055C00006F0D4FF18224749204606F0CFFF2046B8
:1055D0000EF020FA02222349204606F0C7FF2D22B2
:1055E0004149204606F0C2FF20460EF013FAD5F8D6
:1055F000FC203E492846FEF70FFC20460EF00AFA32
:1056000002221849204606F0B1FF0022194920461F
:1056100006F0ACFF20460EF0FDF9022211492046AB
:1056200006F0A4FF11223249204606F09FFF2046D3
:105630000EF0F0F902220B49204606F097FF2D22CA
:105640002C49204606F092FF20460EF0E3F9D5F8EB
:10565000F82029492846FEF7DFFB20460EF0DAF94C
:1056600002224BE06CF90100C0050200CC050200EB
:1056700010F6010054210200D8050200F0050200D6
:105680000006020010060200200602002C0602009E
:105690003806020024F601004806020064060200F3
:1056A000780602008C060200A006020040F6010007
:1056B000A4F90100B40602003C030200D406020073
:1056C000E0060200F00602000007020058F60100A2
:1056D00088FF010010070200D8030200F80302004F
:1056E00074F60100180402003007020088F6010079
:1056F00064040200600702009CF60100D2492046C3
:1057000006F034FF1422D149204606F02FFF204630
:105710000EF080F90222CC49204606F027FF0A222B
:10572000CB49204606F022FF20460EF073F90222F4
:10573000C549204606F01AFF0B22C649204606F04E
:1057400015FF20460EF066F90222BF49204606F0FA
:105750000DFFC1492046FDF795F90222BA492046BE
:1057600006F004FFBD492046FDF78CF90222B64938
:10577000204606F0FBFEBA492046FDF783F90222D7
:10578000B149204606F0F2FEB6492046FDF77AF907
:105790000222AD49204606F0E9FEB3492046FDF756
:1057A00071F9D5F80421B1492846FEF735FB2046AA
:1057B0000EF030F90222A449204606F0D7FEAC498B
:1057C0002046FDF75FF902229F49204606F0CEFEF3
:1057D000A8492046FDF756F902229B49204606F0CB
:1057E000C5FEA5492046FDF74DF9022296492046FF
:1057F00006F0BCFEA1492046FDF744F90222924979
:10580000204606F0B3FE9E492046FDF73BF90222F2
:105810008D49204606F0AAFE9A492046FDF732F946
:10582000D5F8082198492846FEF7F6FA20460EF0EA
:10583000F1F802228449204606F098FE8C49204661
:10584000FDF720F902228049204606F08FFE8F499D
:105850002046FDF717F902227B49204606F086FE16
:105860008B492046FDF70EF902227749204606F0C3
:105870007DFE88492046FDF705F90222724920463F
:1058800006F074FE84492046FDF7FCF802226E49BA
:10589000204606F06BFE81492046FDF7F3F8022210
:1058A0006949204606F062FE7D492046FDF7EAF888
:1058B00002226549204606F059FE7A492046FDF746
:1058C000E1F802226049204606F050FE7649204663
:1058D000FDF7D8F802225C49204606F047FE7349DE
:1058E0002046FDF7CFF8D5F80C2171492846FEF780
:1058F00093FA20460EF08EF802225349204606F015
:1059000035FE5B492046FDF7BDF802224E49204690
:1059100006F02CFE67492046FDF7B4F802224A49FA
:10592000204606F023FE64492046FDF7ABF802222C
:105930004549204606F01AFE60492046FDF7A2F8C8
:1059400002224149204606F011FE5D492046FDF73E
:1059500099F802223C49204606F008FE59492046A3
:10596000FDF790F802223849204606F0FFFD56491F
:105970002046FDF787F802223349204606F0F6FD5F
:1059800052492046FDF77EF802222F49204606F0B4
:10599000EDFD4F492046FDF775F8D5F810214D492A
:1059A0002846FEF739FA20460EF034F8022226493E
:1059B000204606F0DBFD48492046FDF763F8022249
:1059C0002149204606F0D2FD29492046FDF75AF824
:1059D00002221D49204606F0C9FD40492046FDF738
:1059E00051F802221849204606F0C0FD2049204601
:1059F000FDF748F820460EF00DF802221249204625
:105A000006F0B4FD1A492046FDF73CF802220E4983
:105A1000204606F0ABFD32492046FDF733F802225E
:105A20000949204606F0A2FD2E492046FDF72AF836
:105A300002220549204606F099FD2B492046FDF734
:105A400021F8022252E000BF6CF90100A804020014
:105A5000900702009C070200200602002C060200AC
:105A600038060200A8070200B8070200B0F60100DD
:105A700054210200340002005805020068050200AB
:105A8000C8070200D8070200CCF60100D8050200C2
:105A9000E8070200F80702000808020014080200E4
:105AA00024080200300802003C08020048080200F6
:105AB000E4F6010048060200580802006C080200E3
:105AC0008008020094080200A8080200BC08020036
:105AD000D008020004F70100A4F90100E408020064
